:100000000C945A000C9477000C9477000C947700B1
:100010000C9477000C9477000C9477000C94770084
:100020000C9477000C9477000C9477000C94770074
:100030000C9477000C9477000C9477000C94770064
:100040000C9415040C9477000C9421060C94770002
:100050000C9477000C9477000C9477000C94770044
:100060000C9477000C947700000024272A000025C8
:10007000282B000023262904040404040404040299
:100080000202020202030303030303010204081035
:100090002040800102040810200102040810200002
:1000A0000000070002010000030406000000000039
:1000B0000000000011241FBECFEFD4E0DEBFCDBF93
:1000C00011E0A0E0B1E0E8E8FDE002C005900D928B
:1000D000AA31B107D9F711E0AAE1B1E001C01D9240
:1000E000A23BB107E1F70E940E040C94C2060C94E7
:1000F000000060E0809104010E94100580911401CD
:10010000909115010E94AA0461E0809104010E946F
:1001100010058091140190911501880F991F0E947C
:10012000AA0460E0809104010E94100580911401EE
:10013000909115010E94AA0461E0809106010E943D
:10014000100580911201909113010E94AA04089554
:100150000F931F93CF93DF93082F162FEA0110926E
:100160001B0110921A0112C0612F61708091000171
:100170000E94100516950E94790080911A019091B5
:100180001B01019690931B0180931A0180911A0123
:1001900090911B01089744F310921B0110921A01D1
:1001A00028C0602F6170809100010E94100580912D
:1001B0001A0190911B01039781F460E08091060180
:1001C0000E94100580910E0190910F010E94AA04D7
:1001D00061E0809102010E94100506950E9479005D
:1001E00080911A0190911B01019690931B018093BD
:1001F0001A0180911A0190911B01049794F2809149
:100200001001909111010E94AA0460E08091020106
:100210000E941005BE01882777FD8095982F0E94C7
:100220008004DF91CF911F910F9108958091080173
:100230000E945B0580931E01813069F580911F014A
:10024000882349F50E9472042091200130912101F8
:100250004091220150912301621B730B840B950B7B
:1002600020910A0130910B0140910C0150910D0138
:10027000261737074807590770F410921E010E948D
:100280007204609320017093210180932201909366
:10029000230181E0089580911E0180931F0180E079
:1002A0000895CF93DF938AE090E090931D018093AF
:1002B0001C01C4E1D0E006C18C9FA0018D9F500DB0
:1002C0009C9F500D112460E080E00E94A8000E94D5
:1002D0001601882309F0FEC080911C0190911D0138
:1002E0008C9FA0018D9F500D9C9F500D112460E0AC
:1002F00088E00E94A8000E941601882309F0EAC045
:1003000080911C0190911D018C9FA0018D9F500D2B
:100310009C9F500D112460E084E00E94A8000E9480
:100320001601882309F0D6C080911C0190911D010F
:100330008C9FA0018D9F500D9C9F500D112460E05B
:1003400082E00E94A8000E941601882309F0C2C022
:1003500080911C0190911D018C9FA0018D9F500DDB
:100360009C9F500D112460E081E00E94A8000E9433
:100370001601882309F0AEC080911C0190911D01E7
:100380008C9FA0018D9F500D9C9F500D112460E803
:1003900080E00E94A8000E941601882309F09AC0FC
:1003A00080911C0190911D018C9FA0018D9F500D8B
:1003B0009C9F500D112460E480E00E94A8000E94E0
:1003C0001601882309F086C080911C0190911D01BF
:1003D0008C9FA0018D9F500D9C9F500D112460E2B9
:1003E00080E00E94A8000E941601882309F072C0D4
:1003F00080911C0190911D018C9FA0018D9F500D3B
:100400009C9F500D112460E180E00E94A8000E9492
:100410001601882309F05EC080911C0190911D0196
:100420008C9FA0018D9F500D9C9F500D112468E062
:1004300080E00E94A8000E941601882309F04AC0AB
:1004400080911C0190911D018C9FA0018D9F500DEA
:100450009C9F500D112464E080E00E94A8000E943F
:1004600016018823B9F580911C0190911D018C9F84
:10047000A0018D9F500D9C9F500D112462E080E0E3
:100480000E94A8000E941601882321F580911C017A
:1004900090911D018C9FA0018D9F500D9C9F500D30
:1004A000112461E080E00E94A8000E9416018823C8
:1004B00089F480911C0190911D01019790931D0179
:1004C00080931C0180911C0190911D011816190642
:1004D0000CF4F2CE10921D0110921C0149C1409102
:1004E00016015091170160E080E00E94A8000E9470
:1004F0001601882309F043C140911601509117015C
:1005000060E088E00E94A8000E941601882309F09C
:1005100036C1409116015091170160E08CE00E94B5
:10052000A8000E941601882309F029C140911601F4
:100530005091170160E08EE00E94A8000E94160111
:10054000882309F01CC1409116015091170160E009
:100550008FE00E94A8000E941601882309F00FC1B5
:10056000409116015091170160E88FE00E94A800A9
:100570000E941601882309F002C140911601509192
:10058000170160EC8FE00E94A8000E9416018823EA
:1005900009F0F5C0409116015091170160EE8FE00F
:1005A0000E94A8000E941601882309F0E8C040912B
:1005B00016015091170160EF8FE00E94A8000E9481
:1005C0001601882309F0DBC04091160150911701F4
:1005D00068EF8FE00E94A8000E941601882309F0AE
:1005E000CEC040911601509117016CEF8FE00E9430
:1005F000A8000E941601882309F0C1C0409116018D
:10060000509117016EEF8FE00E94A8000E94160122
:10061000882309F0B4C040911601509117016FEF83
:100620008FE00E94A8000E941601882309F0A7C04D
:1006300040911601509117016EEF8FE00E94A800C3
:100640000E941601882309F09AC04091160150912A
:1006500017016CEF8FE00E94A8000E94160188230A
:1006600009F08DC0409116015091170168EF8FE09D
:100670000E94A8000E941601882309F080C04091C2
:1006800016015091170160EF8FE00E94A8000E94B0
:100690001601882309F073C040911601509117018B
:1006A00060EE8FE00E94A8000E941601882309F0E6
:1006B00066C0409116015091170160EC8FE00E94D6
:1006C000A8000E941601882309F059C04091160124
:1006D0005091170160E88FE00E94A8000E94160167
:1006E000882309F04CC0409116015091170160E039
:1006F0008FE00E94A8000E941601882309F03FC0E5
:10070000409116015091170160E08EE00E94A80010
:100710000E941601882399F5409116015091170106
:1007200060E08CE00E94A8000E941601882339F541
:10073000409116015091170160E088E00E94A800E6
:100740000E9416018823D9F4409116015091170197
:1007500060E00E94A8000E941601882381F4809125
:100760001C0190911D01019690931D0180931C0125
:1007700080911C0190911D0105970CF4B0CE109250
:100780001D0110921C0121C04091160150911701CA
:1007900065E585E00E94A8000E9416018823D9F42F
:1007A00040911601509117016AEA8AE00E94A80060
:1007B0000E941601882379F480911C0190911D01FB
:1007C000019690931D0180931C0180911C019091D2
:1007D0001D014497CCF2DF91CF91089560E875E256
:1007E00080E090E00E94A70561E0809100010E94F6
:1007F000F20461E0809104010E94F20461E08091C2
:1008000002010E94F20461E0809106010E94F2045C
:1008100060E0809108010E94F20408950E94B804EB
:100820000E94EE030E945101FDCF1F920F920FB65E
:100830000F9211242F938F939F93AF93BF93809127
:10084000260190912701A0912801B09129018050A3
:10085000904CAF4FBF4F8093260190932701A093F8
:100860002801B093290127C080912601909127018A
:10087000A0912801B091290180549F41A040B0402F
:100880008093260190932701A0932801B09329011A
:1008900080912A0190912B01A0912C01B0912D0102
:1008A0000196A11DB11D80932A0190932B01A09365
:1008B0002C01B0932D018091260190912701A091E8
:1008C0002801B091290181549F41A040B04060F6B9
:1008D000BF91AF919F918F912F910F900FBE0F906D
:1008E0001F9018958FB7F89420912A0130912B0111
:1008F00040912C0150912D018FBFB901CA0108957B
:10090000EF92FF920F931F937B018C018FB7F894A6
:1009100040912A0150912B0160912C0170912D0181
:100920008FBF2FB7F89480912A0190912B01A0914D
:100930002C01B0912D012FBF841B950BA60BB70B7B
:100940008E159F05A007B10760F31F910F91FF90CF
:10095000EF900895019759F0019749F0FC01EE0FCF
:10096000FF1F31978FB7F8943197F1F78FBF089534
:10097000789484B5826084BD84B5816084BD85B57A
:10098000826085BD85B5816085BDEEE6F0E0808141
:1009900081608083E1E8F0E08081826080838081F3
:1009A00081608083E0E8F0E0808181608083E1EB1A
:1009B000F0E0808184608083E0EBF0E08081816002
:1009C0008083EAE7F0E080818460808380818260B8
:1009D00080838081816080838081806880831092A1
:1009E000C1000895282F30E0C90185579F4FFC01B1
:1009F000949129583F4FF9018491882381F0E82F81
:100A0000F0E0E859FF4FE491F0E0662329F480819B
:100A100090958923808308958081892B8083089510
:100A2000482F50E0CA0181569F4FFC012491CA0112
:100A300085579F4FFC01949149585F4FFA013491BB
:100A40003323C1F1222331F1233021F4809180003E
:100A50008F7705C0243031F4809180008F7D8093A2
:100A6000800018C0213019F484B58F7704C022307B
:100A700021F484B58F7D84BD0DC0263021F4809192
:100A8000B0008F7705C0273029F48091B0008F7DAA
:100A90008093B000E32FF0E0E359FF4FE491F0E0E2
:100AA000662329F48081909589238083089580812D
:100AB000892B80830895482F50E0CA0181569F4FAB
:100AC000FC012491CA0185579F4FFC01949149581C
:100AD0005F4FFA013491332319F420E030E035C040
:100AE000222331F1233021F4809180008F7705C0DB
:100AF000243031F4809180008F7D8093800018C075
:100B0000213019F484B58F7704C0223021F484B5E4
:100B10008F7D84BD0DC0263021F48091B0008F7789
:100B200005C0273029F48091B0008F7D8093B000FC
:100B3000E32FF0E0EE58FF4FE491F0E0808120E0F9
:100B400030E0892311F021E030E0C9010895EF92EF
:100B5000FF920F931F937B018C0122E030E040E075
:100B600050E00E947106205E3E45484F5F4FCA012B
:100B7000B901A80197010E947106C901DA01019724
:100B8000A109B109292F3A2F4B2F552747FD5A9517
:100B90000196A11DB11D2093C50081508093C40012
:100BA000E1ECF0E0808180618083808188608083D7
:100BB0008081806880831F910F91FF90EF9008954E
:100BC000982F8091C00085FFFCCF9093C6000895B8
:100BD00080912E0190912F0180589F4F20913001DC
:100BE00030913101821B930B60E870E00E945E0639
:100BF0000895409130015091310180912E019091E2
:100C00002F018417950719F42FEF3FEF0FC0FA015A
:100C1000EE5CFE4F2081CA01019660E870E00E9400
:100C20005E06909331018093300130E0C901089550
:100C3000809130019091310190932F0180932E018A
:100C400008951F920F920FB60F9211242F933F9386
:100C50004F935F936F937F938F939F93AF93BF93C4
:100C6000EF93FF934091C600E0912E01F0912F0188
:100C7000CF01019660E870E00E945E069C018091C1
:100C80003001909131012817390739F0EE5CFE4FA1
:100C9000408330932F0120932E01FF91EF91BF915C
:100CA000AF919F918F917F916F915F914F913F9104
:100CB0002F910F900FBE0F901F90189597FB092E44
:100CC00007260AD077FD04D027D006D000201AF4DA
:100CD000709561957F4F0895F6F7909581959F4F98
:100CE000089597FB092E05260ED057FD04D028D075
:100CF0000AD0001C38F450954095309521953F4F0F
:100D00004F4F5F4F0895F6F79095809570956195D8
:100D10007F4F8F4F9F4F0895AA1BBB1B51E107C008
:100D2000AA1FBB1FA617B70710F0A61BB70B881F7B
:100D3000991F5A95A9F780959095BC01CD0108950A
:100D4000A1E21A2EAA1BBB1BFD010DC0AA1FBB1FCF
:100D5000EE1FFF1FA217B307E407F50720F0A21B41
:100D6000B30BE40BF50B661F771F881F991F1A94AE
:100D700069F760957095809590959B01AC01BD01D8
:080D8000CF010895F894FFCFA4
:100D8800090008000A000B000700640000001400B6
:0A0D9800140014001400C8000C0041
:00000001FF
