:100000000C945A000C9477000C9477000C947700B1
:100010000C9477000C9477000C9477000C94770084
:100020000C9477000C9477000C9477000C94770074
:100030000C9477000C9477000C9477000C94770064
:100040000C9465050C9477000C9471070C94770060
:100050000C9477000C9477000C9477000C94770044
:100060000C9477000C947700000024272A000025C8
:10007000282B000023262904040404040404040299
:100080000202020202030303030303010204081035
:100090002040800102040810200102040810200002
:1000A0000000070002010000030406000000000039
:1000B0000000000011241FBECFEFD4E0DEBFCDBF93
:1000C00011E0A0E0B1E0E8E2F0E102C005900D929D
:1000D000A431B107D9F711E0A4E1B1E001C01D924C
:1000E000A23BB107E1F70E945E050C9412080C9444
:1000F000000060E0809104010E94600684E190E0CD
:100100000E94FA0561E0809104010E94600688EC7B
:1001100090E00E94FA0560E0809104010E94600670
:1001200008959F92AF92BF92CF92DF92EF92FF928B
:100130000F931F93982EA62EB42EF22E1E2D1092E2
:1001400015011092140117C0612F61708091000198
:100150000E94600616950E94790061E08091060178
:100160000E94600680911401909115010196909370
:100170001501809314018091140190911501089745
:100180001CF3109215011092140117C0602F6170BA
:10019000809100010E94600606950E94790061E04E
:1001A000809106010E9460068091140190911501D2
:1001B0000196909315018093140180911401909100
:1001C000150108971CF3109215011092140117C025
:1001D0006F2D6170809100010E946006F6940E946C
:1001E000790061E0809106010E946006809114010F
:1001F00090911501019690931501809314018091BF
:1002000014019091150108971CF31092150110929A
:10021000140117C06B2D6170809100010E9460066F
:10022000B6940E94790061E0809106010E94600608
:10023000809114019091150101969093150180937E
:100240001401809114019091150108971CF31092EC
:1002500015011092140117C06A2D61708091000180
:100260000E946006A6940E94790061E080910601D8
:100270000E9460068091140190911501019690935F
:100280001501809314018091140190911501089734
:100290001CF3109215011092140127C0692D617092
:1002A000809100010E9460068091140190911501D7
:1002B000079751F460E0809106010E94600661E0BA
:1002C000809102010E94600696940E94790061E08C
:1002D000809106010E9460068091140190911501A1
:1002E00001969093150180931401809114019091CF
:1002F000150108979CF284E190E00E94FA0560E005
:10030000809102010E946006B601882777FD8095E2
:10031000982F0E94D0051F910F91FF90EF90DF90D2
:10032000CF90BF90AF909F900895CF92DF92EF92C1
:100330000F93809108010E94AB066C019093170106
:100340008093160181E0C816D10409F043C0809162
:10035000180190911901892BE9F50E94C20520919D
:100360001A0130911B0140911C0150911D01621B2B
:10037000730B840B950B20910A0130910B01409176
:100380000C0150910D01261737074807590710F542
:10039000D0921701C09216018091240190912501FD
:1003A00001969093250180932401209112013091B0
:1003B00013018217930721F4109225011092240152
:1003C0000E94C20560931A0170931B0180931C0167
:1003D00090931D018091160190911701909319013E
:1003E000809318018091240190912501892B09F0B7
:1003F000FBC1C0900E01D0900F01EE2400E020E080
:1004000040E060E080E80E949100C0900E01D09032
:100410000F0120E040E060E080E40E949100C09085
:100420000E01D0900F0120E040E060E080E20E94E9
:100430009100C0900E01D0900F0120E040E060E0FC
:1004400080E10E949100C0900E01D0900F0120E049
:1004500040E060E088E00E949100C0900E01D090E2
:100460000F0120E040E060E084E00E949100C09035
:100470000E01D0900F0120E040E060E082E00E9499
:100480009100C0900E01D0900F0120E040E060E0AC
:1004900081E00E949100C0900E01D0900F0120E0F9
:1004A00040E060E880E00E949100C0900E01D09092
:1004B0000F0120E040E060E480E00E949100C090E5
:1004C0000E01D0900F0120E040E060E280E00E9449
:1004D0009100C0900E01D0900F0120E040E060E15B
:1004E00080E00E949100C0900E01D0900F0120E0AA
:1004F00040E068E080E00E949100C0900E01D09042
:100500000F0120E040E064E080E00E949100C09094
:100510000E01D0900F0120E040E062E080E00E94F8
:100520009100C0900E01D0900F0120E040E061E00A
:1005300080E00E949100C0900E01D0900F0120E059
:1005400040E860E080E00E949100C0900E01D090F1
:100550000F0120E040E460E080E00E949100C09044
:100560000E01D0900F0120E040E260E080E00E94A8
:100570009100C0900E01D0900F0120E040E160E0BA
:1005800080E00E949100C0900E01D0900F0120E009
:1005900048E060E080E00E949100C0900E01D090A1
:1005A0000F0120E044E060E080E00E949100C090F4
:1005B0000E01D0900F0120E042E060E080E00E9458
:1005C0009100C0900E01D0900F0120E041E060E06A
:1005D00080E00E949100C0900E01D0900F0120E8B1
:1005E00040E060E080E00E949100C0900E01D09059
:1005F0000F0120E440E060E080E00E949100C090A4
:100600000E01D0900F0120E240E060E080E00E9407
:100610009100C0900E01D0900F0120E140E060E019
:1006200080E00E949100C0900E01D0900F0128E060
:1006300040E060E080E00E949100C0900E01D09008
:100640000F0124E040E060E080E00E949100C09053
:100650000E01D0900F0122E040E060E080E00E94B7
:100660009100C0900E01D0900F0121E040E060E0C9
:1006700080E00E949100C0900E01D0900F0100E830
:1006800020E040E060E080E00E949100C0900E0118
:10069000D0900F0100E420E040E060E080E00E94A4
:1006A0009100C0900E01D0900F0100E220E040E0E8
:1006B00060E080E00E949100C0900E01D0900F0198
:1006C00000E120E040E060E080E00E949100C09006
:1006D0000E01D0900F0108E020E040E060E080E0F3
:1006E0000E949100C0900E01D0900F0104E020E024
:1006F00040E060E080E00E949100C0900E01D09048
:100700000F0102E020E040E060E080E00E94910004
:10071000C0900E01D0900F0101E020E040E060E0C9
:1007200080E00E949100C0900E01D0900F0190E8EF
:10073000E92E00E020E040E060E080E00E949100CF
:10074000C0900E01D0900F0180E4E82E20E040E040
:1007500060E080E00E949100C0900E01D0900F01F7
:10076000B0E2EB2E20E040E060E080E00E949100EB
:10077000C0900E01D0900F01A0E1EA2E20E040E0F1
:1007800060E080E00E949100C0900E01D0900F01C7
:10079000F8E0EF2E20E040E060E080E00E94910071
:1007A000C0900E01D0900F01E4E0EE2E20E040E07A
:1007B00060E080E00E949100C0900E01D0900F0197
:1007C00072E0E72E20E040E060E080E00E949100CF
:1007D000C0900E01D0900F01EE24E39420E040E0A1
:1007E00060E080E00E9491008091240190912501B9
:1007F000019709F066C0C0900E01D0900F01EE2461
:1008000000E020E040E060E08EEF0E949100C090A8
:100810000E01D0900F0120E040E068EF81E00E94DF
:100820009100C0900E01D0900F0120E040EF67E0F2
:1008300080E00E949100C0900E01D0900F0120EC4A
:100840004FE060E080E00E949100C0900E01D090E7
:100850000F0100E82FE340E060E080E00E9491009B
:10086000C0900E01D0900F010EE720E040E060E064
:1008700080E00E949100C0900E01D0900F0160EFC7
:10088000E62E01E020E040E060E080E00E94910080
:10089000C0900E01D0900F015CE0E52E00E020E05A
:1008A00040E060E080E00E949100C0900E01D09096
:1008B0000F0143E0E42E20E040E060E080E00E9491
:1008C00091008091240190912501029709F0D1C0F7
:1008D000C0900E01D0900F01EE2400E020E040E037
:1008E00060E080E00E949100C0900E01D0900F0166
:1008F00020E040E060E08EEF0E949100C0900E0189
:10090000D0900F0120E040E068EF8FEF0E9491004F
:10091000C0900E01D0900F0120E040EF6FEF8FEFFD
:100920000E949100C0900E01D0900F0120EC4FEF7B
:100930006FEF8FEF0E949100C0900E01D0900F01D9
:1009400000E82FEF4FEF6FEF8FEF0E949100C09004
:100950000E01D0900F010EEF2FEF4FEF6FEF8FEFE3
:100960000E949100C0900E01D0900F0130EFE32E55
:100970000FEF2FEF4FEF6FEF8FEF0E949100C090BE
:100980000E01D0900F012CEFE22E2FEF4FEF6FEF03
:100990008FEF0E949100C0900E01D0900F01EE24C5
:1009A000EA942FEF4FEF6FEF8FEF0E949100C0900E
:1009B0000E01D0900F019CEFE92E2FEF4FEF6FEF5C
:1009C0008FEF0E949100C0900E01D0900F0180EF38
:1009D000E82E2FEF4FEF6FEF8FEF0E949100C09046
:1009E0000E01D0900F01EE240EEF2FEF4FEF6FEFBF
:1009F0008FEF0E949100C0900E01D0900F0100E88F
:100A00002FEF4FEF6FEF8FEF0E949100C0900E011C
:100A1000D0900F0100E020EC4FEF6FEF8FEF0E94BE
:100A20009100C0900E01D0900F0120E040EF6FEFD9
:100A30008FEF0E949100C0900E01D0900F0120E036
:100A400040E068EF8FEF0E949100C0900E01D090BF
:100A50000F0120E040E060E08EEF0E949100C09026
:100A60000E01D0900F0120E040E060E080E00E94A5
:100A700091000F91EF90DF90CF90089560E875E2BC
:100A800080E090E00E94F70661E0809100010E9402
:100A9000420661E0809104010E94420661E080917B
:100AA00002010E94420661E0809106010E94420616
:100AB00060E0809108010E94420608950E940806A5
:100AC0000E943E050E949501FDCF1F920F920FB626
:100AD0000F9211242F938F939F93AF93BF93809185
:100AE000260190912701A0912801B0912901805001
:100AF000904CAF4FBF4F8093260190932701A09356
:100B00002801B093290127C08091260190912701E7
:100B1000A0912801B091290180589E43A040B04087
:100B20008093260190932701A0932801B093290177
:100B300080912A0190912B01A0912C01B0912D015F
:100B40000196A11DB11D80932A0190932B01A093C2
:100B50002C01B0932D018091260190912701A09145
:100B60002801B091290181589E43A040B04060F611
:100B7000BF91AF919F918F912F910F900FBE0F90CA
:100B80001F9018958FB7F89420912A0130912B016E
:100B900040912C0150912D018FBFB901CA010895D8
:100BA000EF92FF920F931F937B018C018FB7F89404
:100BB00040912A0150912B0160912C0170912D01DF
:100BC0008FBF2FB7F89480912A0190912B01A091AB
:100BD0002C01B0912D012FBF841B950BA60BB70BD9
:100BE0008E159F05A007B10760F31F910F91FF902D
:100BF000EF900895019759F0FC01EE0FFF1FEE0FE3
:100C0000FF1F32978FB7F8943197F1F78FBF089590
:100C1000789484B5826084BD84B5816084BD85B5D7
:100C2000826085BD85B5816085BDEEE6F0E080819E
:100C300081608083E1E8F0E0808182608083808150
:100C400081608083E0E8F0E0808181608083E1EB77
:100C5000F0E0808184608083E0EBF0E0808181605F
:100C60008083EAE7F0E08081846080838081826015
:100C700080838081816080838081806880831092FE
:100C8000C1000895282F30E0C90185579F4FFC010E
:100C9000949129583F4FF9018491882381F0E82FDE
:100CA000F0E0E859FF4FE491F0E0662329F48081F9
:100CB00090958923808308958081892B808308956E
:100CC000482F50E0CA0181569F4FFC012491CA0170
:100CD00085579F4FFC01949149585F4FFA01349119
:100CE0003323C1F1222331F1233021F4809180009C
:100CF0008F7705C0243031F4809180008F7D809300
:100D0000800018C0213019F484B58F7704C02230D8
:100D100021F484B58F7D84BD0DC0263021F48091EF
:100D2000B0008F7705C0273029F48091B0008F7D07
:100D30008093B000E32FF0E0E359FF4FE491F0E03F
:100D4000662329F48081909589238083089580818A
:100D5000892B80830895482F50E0CA0181569F4F08
:100D6000FC012491CA0185579F4FFC019491495879
:100D70005F4FFA013491332319F420E030E035C09D
:100D8000222331F1233021F4809180008F7705C038
:100D9000243031F4809180008F7D8093800018C0D2
:100DA000213019F484B58F7704C0223021F484B542
:100DB0008F7D84BD0DC0263021F48091B0008F77E7
:100DC00005C0273029F48091B0008F7D8093B0005A
:100DD000E32FF0E0EE58FF4FE491F0E0808120E057
:100DE00030E0892311F021E030E0C9010895EF924D
:100DF000FF920F931F937B018C0122E030E040E0D3
:100E000050E00E94C107205C3D4B404F5F4FCA013C
:100E1000B901A80197010E94C107C901DA01019730
:100E2000A109B109292F3A2F4B2F552747FD5A9574
:100E30000196A11DB11D2093C50081508093C4006F
:100E4000E1ECF0E080818061808380818860808334
:100E50008081806880831F910F91FF90EF900895AB
:100E6000982F8091C00085FFFCCF9093C600089515
:100E700080912E0190912F0180589F4F2091300139
:100E800030913101821B930B60E870E00E94AE0745
:100E90000895409130015091310180912E0190913F
:100EA0002F018417950719F42FEF3FEF0FC0FA01B8
:100EB000EE5CFE4F2081CA01019660E870E00E945E
:100EC000AE07909331018093300130E0C90108955D
:100ED000809130019091310190932F0180932E01E8
:100EE00008951F920F920FB60F9211242F933F93E4
:100EF0004F935F936F937F938F939F93AF93BF9322
:100F0000EF93FF934091C600E0912E01F0912F01E5
:100F1000CF01019660E870E00E94AE079C018091CD
:100F20003001909131012817390739F0EE5CFE4FFE
:100F3000408330932F0120932E01FF91EF91BF91B9
:100F4000AF919F918F917F916F915F914F913F9161
:100F50002F910F900FBE0F901F90189597FB092EA1
:100F600007260AD077FD04D027D006D000201AF437
:100F7000709561957F4F0895F6F7909581959F4FF5
:100F8000089597FB092E05260ED057FD04D028D0D2
:100F90000AD0001C38F450954095309521953F4F6C
:100FA0004F4F5F4F0895F6F7909580957095619536
:100FB0007F4F8F4F9F4F0895AA1BBB1B51E107C066
:100FC000AA1FBB1FA617B70710F0A61BB70B881FD9
:100FD000991F5A95A9F780959095BC01CD01089568
:100FE000A1E21A2EAA1BBB1BFD010DC0AA1FBB1F2D
:100FF000EE1FFF1FA217B307E407F50720F0A21B9F
:10100000B30BE40BF50B661F771F881F991F1A940B
:1010100069F760957095809590959B01AC01BD0135
:08102000CF010895F894FFCF01
:10102800090008000A000B000700C800000064005F
:041038003000030081
:00000001FF
