:100000000C945A000C9477000C9477000C947700B1
:100010000C9477000C9477000C9477000C94770084
:100020000C9477000C9477000C9477000C94770074
:100030000C9477000C9477000C9477000C94770064
:100040000C9478150C9477000C94F9170C947700A5
:100050000C9477000C9477000C9477000C94770044
:100060000C9477000C947700000024272A000025C8
:10007000282B000023262904040404040404040299
:100080000202020202030303030303010204081035
:100090002040800102040810200102040810200002
:1000A0000000070002010000030406000000000039
:1000B0000000000011241FBECFEFD4E0DEBFCDBF93
:1000C00011E0A0E0B1E0E8E3F1E302C005900D9299
:1000D000AC31B107D9F711E0ACE1B1E001C01D923C
:1000E000A23CB107E1F70E9471150C949A180C9488
:1000F00000000F931F938C0180911C010E945816E1
:1001000020910A0130910B01821793072CF4809102
:100110001C010E9458168C01C8011F910F9108956F
:1001200060E0809104010E94E81680911601909190
:1001300017010E940D1661E0809104010E94E816EB
:100140008091160190911701880F991F0E940D163A
:1001500060E0809104010E94E81680911601909160
:1001600017010E940D1661E0809106010E94E816B9
:1001700080911401909115010E940D1608959F928F
:10018000AF92BF92CF92DF92EF92FF920F931F93A5
:10019000982EA62EB42EF22E1E2D10922101109212
:1001A000200112C0612F6170809100010E94E81649
:1001B00016950E9490008091200190912101019656
:1001C0009093210180932001809120019091210141
:1001D000089744F3109221011092200112C0602F61
:1001E0006170809100010E94E81606950E949000BF
:1001F000809120019091210101969093210180939B
:1002000020018091200190912101089744F31092E0
:1002100021011092200112C06F2D617080910001A8
:100220000E94E816F6940E9490008091200190911F
:10023000210101969093210180932001809120015A
:1002400090912101089744F310922101109220010E
:1002500012C06B2D6170809100010E94E816B69467
:100260000E9490008091200190912101019690932D
:100270002101809320018091200190912101089714
:1002800044F3109221011092200112C06A2D617076
:10029000809100010E94E816A6940E94900080912F
:1002A00020019091210101969093210180932001DA
:1002B0008091200190912101089744F3109221012F
:1002C0001092200128C0692D6170809100010E9468
:1002D000E8168091200190912101079781F460E058
:1002E000809106010E94E816809110019091110101
:1002F0000E940D1661E0809102010E94E81696941A
:100300000E9490008091200190912101019690938C
:100310002101809320018091200190912101089773
:1003200094F280911201909113010E940D1660E0E9
:10033000809102010E94E816B601882777FD80951A
:10034000982F0E94E3151F910F91FF90EF90DF907F
:10035000CF90BF90AF909F900895809108010E9428
:10036000331780932401813069F58091250188231A
:1003700049F50E94D5152091260130912701409121
:10038000280150912901621B730B840B950B20915E
:100390000C0130910D0140910E0150910F01261773
:1003A00037074807590770F4109224010E94D515A9
:1003B000609326017093270180932801909329016F
:1003C00081E00895809124018093250180E00895C3
:1003D000CF92DF92EF920F9388EE93E090933101EA
:1003E0008093300185E090E0909335018093340153
:1003F00010922301109222012CC080913001909123
:1004000031010E9479006C01EE24EA940FEF2FEF86
:100410004FEF6FEF8FEF0E94BF000E94AD01882366
:1004200019F580911C010E94581620910A01309103
:100430000B018217930724F41092230110922201DA
:100440008091220190912301019690932301809342
:100450002201209122013091230180913401909159
:100460003501281739074CF288EC90E09093310160
:10047000809330018AE090E09093350180933401BD
:10048000109223011092220167C080913001909157
:1004900031010E9479006C01A3E0EA2E00E020E027
:1004A00040E060E080E00E94BF000E94AD01882330
:1004B00009F05EC080913001909131010E94790075
:1004C0006C01EE24E39420E040E060E080E00E94D4
:1004D000BF000E94AD01882309F04AC0809130011D
:1004E000909131010E9479006C01F3E0EF2E20E041
:1004F00040E060E080E00E94BF000E94AD018823E0
:10050000B9F580913001909131010E9479006C0120
:10051000E2E0EE2E20E040E060E080E00E94BF00DC
:100520000E94AD01882321F580911C010E9458167C
:1005300020910A0130910B018217930724F4109245
:1005400023011092220180912201909123010196B2
:100550009093230180932201209122013091230165
:100560008091340190913501281739070CF48DCF13
:1005700086E490E0909331018093300185E090E033
:10058000909335018093340110922301109222013F
:1005900091C380913001909131010E9479006C01EA
:1005A000EE2400E020E040E060E080E80E94BF0030
:1005B0000E94AD01882309F089C380913001909198
:1005C00031010E9479006C0120E040E060E080E4AD
:1005D0000E94BF000E94AD01882309F077C380917B
:1005E0003001909131010E9479006C0120E040E0DF
:1005F00060E080E20E94BF000E94AD01882309F004
:1006000065C380913001909131010E9479006C01A5
:1006100020E040E060E080E10E94BF000E94AD0168
:10062000882309F053C380913001909131010E94D9
:1006300079006C0120E040E060E088E00E94BF00AB
:100640000E94AD01882309F041C38091300190914F
:1006500031010E9479006C0120E040E060E084E01C
:100660000E94BF000E94AD01882309F02FC3809132
:100670003001909131010E9479006C0120E040E04E
:1006800060E082E00E94BF000E94AD01882309F073
:100690001DC380913001909131010E9479006C015D
:1006A00020E040E060E081E00E94BF000E94AD01D8
:1006B000882309F00BC380913001909131010E9491
:1006C00079006C0120E040E060E880E00E94BF001B
:1006D0000E94AD01882309F0F9C280913001909108
:1006E00031010E9479006C0120E040E060E480E08C
:1006F0000E94BF000E94AD01882309F0E7C28091EB
:100700003001909131010E9479006C0120E040E0BD
:1007100060E280E00E94BF000E94AD01882309F0E2
:10072000D5C280913001909131010E9479006C0115
:1007300020E040E060E180E00E94BF000E94AD0147
:10074000882309F0C3C280913001909131010E9449
:1007500079006C0120E040E068E080E00E94BF008A
:100760000E94AD01882309F0B1C2809130019091BF
:1007700031010E9479006C0120E040E064E080E0FB
:100780000E94BF000E94AD01882309F09FC28091A2
:100790003001909131010E9479006C0120E040E02D
:1007A00062E080E00E94BF000E94AD01882309F052
:1007B0008DC280913001909131010E9479006C01CD
:1007C00020E040E061E080E00E94BF000E94AD01B7
:1007D000882309F07BC280913001909131010E9401
:1007E00079006C0120E040E860E080E00E94BF00FA
:1007F0000E94AD01882309F069C280913001909177
:1008000031010E9479006C0120E040E460E080E06A
:100810000E94BF000E94AD01882309F057C2809159
:100820003001909131010E9479006C0120E040E29A
:1008300060E080E00E94BF000E94AD01882309F0C3
:1008400045C280913001909131010E9479006C0184
:1008500020E040E160E080E00E94BF000E94AD0126
:10086000882309F033C280913001909131010E94B8
:1008700079006C0120E048E060E080E00E94BF0069
:100880000E94AD01882309F021C28091300190912E
:1008900031010E9479006C0120E044E060E080E0DA
:1008A0000E94BF000E94AD01882309F00FC2809111
:1008B0003001909131010E9479006C0120E042E00A
:1008C00060E080E00E94BF000E94AD01882309F033
:1008D000FDC180913001909131010E9479006C013D
:1008E00020E041E060E080E00E94BF000E94AD0196
:1008F000882309F0EBC180913001909131010E9471
:1009000079006C0120E840E060E080E00E94BF00D8
:100910000E94AD01882309F0D9C1809130019091E6
:1009200031010E9479006C0120E440E060E080E049
:100930000E94BF000E94AD01882309F0C7C18091C9
:100940003001909131010E9479006C0120E240E079
:1009500060E080E00E94BF000E94AD01882309F0A2
:10096000B5C180913001909131010E9479006C01F4
:1009700020E140E060E080E00E94BF000E94AD0105
:10098000882309F0A3C180913001909131010E9428
:1009900079006C0128E040E060E080E00E94BF0048
:1009A0000E94AD01882309F091C18091300190919E
:1009B00031010E9479006C0124E040E060E080E0B9
:1009C0000E94BF000E94AD01882309F07FC1809181
:1009D0003001909131010E9479006C0122E040E0E9
:1009E00060E080E00E94BF000E94AD01882309F012
:1009F0006DC180913001909131010E9479006C01AC
:100A000021E040E060E080E00E94BF000E94AD0174
:100A1000882309F05BC180913001909131010E94DF
:100A200079006C0100E820E040E060E080E00E9496
:100A3000BF000E94AD01882309F048C180913001B8
:100A4000909131010E9479006C0100E420E040E0C7
:100A500060E080E00E94BF000E94AD01882309F0A1
:100A600035C180913001909131010E9479006C0173
:100A700000E220E040E060E080E00E94BF000E94D1
:100A8000AD01882309F022C180913001909131019C
:100A90000E9479006C0100E120E040E060E080E02D
:100AA0000E94BF000E94AD01882309F00FC1809110
:100AB0003001909131010E9479006C0108E020E042
:100AC00040E060E080E00E94BF000E94AD0188230A
:100AD00009F0FCC080913001909131010E947900B1
:100AE0006C0104E020E040E060E080E00E94BF0094
:100AF0000E94AD01882309F0E9C0809130019091F6
:100B000031010E9479006C0102E020E040E060E0E9
:100B100080E00E94BF000E94AD01882309F0D6C08A
:100B200080913001909131010E9479006C0101E0C7
:100B300020E040E060E080E00E94BF000E94AD0144
:100B4000882309F0C3C080913001909131010E9447
:100B500079006C0170E8E72E00E020E040E060E002
:100B600080E00E94BF000E94AD01882309F0AEC062
:100B700080913001909131010E9479006C0160E414
:100B8000E62E20E040E060E080E00E94BF000E948E
:100B9000AD01882309F09AC0809130019091310114
:100BA0000E9479006C0150E2E52E20E040E060E018
:100BB00080E00E94BF000E94AD01882309F086C03A
:100BC00080913001909131010E9479006C0140E1E7
:100BD000E42E20E040E060E080E00E94BF000E9440
:100BE000AD01882309F072C08091300190913101EC
:100BF0000E9479006C0138E0E32E20E040E060E0E4
:100C000080E00E94BF000E94AD01882309F05EC011
:100C100080913001909131010E9479006C0124E0B3
:100C2000E22E20E040E060E080E00E94BF000E94F1
:100C3000AD01882309F04AC08091300190913101C3
:100C40000E9479006C0192E0E92E20E040E060E033
:100C500080E00E94BF000E94AD018823B9F5809119
:100C60003001909131010E9479006C01EE24E394EF
:100C700020E040E060E080E00E94BF000E94AD0103
:100C8000882321F580911C010E94581620910A01A9
:100C900030910B018217930724F4109223011092D4
:100CA00022018091220190912301019690932301CA
:100CB00080932201209122013091230180913401FF
:100CC00090913501281739070CF463CC8DE790E03B
:100CD00090933101809330018FE090E09093350143
:100CE000809334011092230110922201C4C080919C
:100CF0003001909131010E9479006C01EE2400E0F6
:100D000020E040E060E08EEF0E94BF000E94AD0155
:100D1000882309F0BCC080913001909131010E947C
:100D200079006C0120E040E068EF81E00E94BF00A4
:100D30000E94AD01882309F0AAC0809130019091F2
:100D400031010E9479006C0120E040EF67E080E013
:100D50000E94BF000E94AD01882309F098C08091D5
:100D60003001909131010E9479006C0120EC4FE03C
:100D700060E080E00E94BF000E94AD01882309F07E
:100D800086C080913001909131010E9479006C0100
:100D900000E82FE340E060E080E00E94BF000E9496
:100DA000AD01882309F073C0809130019091310129
:100DB0000E9479006C010EE720E040E060E080E0F6
:100DC0000E94BF000E94AD01882309F060C080919D
:100DD0003001909131010E9479006C018CECE82E79
:100DE00001E020E040E060E080E00E94BF000E945F
:100DF000AD01882309F04BC0809130019091310101
:100E00000E9479006C0100E3E02E00E020E040E069
:100E100060E080E00E94BF000E94AD018823B9F528
:100E200080913001909131010E9479006C01B3E012
:100E3000EB2E20E040E060E080E00E94BF000E94D6
:100E4000AD01882321F580911C010E945816209144
:100E50000A0130910B018217930724F410922301A9
:100E6000109222018091220190912301019690938A
:100E7000230180932201209122013091230180914E
:100E8000340190913501281739070CF430CF8AEFDF
:100E900090E0909331018093300185E090E0909351
:100EA0003501809334011092230110922201A2C3D4
:100EB00080913001909131010E9479006C01EE2403
:100EC00000E020E040E060E080E00E94BF000E947F
:100ED000AD01882309F09AC38091300190913101CE
:100EE0000E9479006C0120E040E060E280E00E9416
:100EF000BF000E94AD01882309F088C380913001B2
:100F0000909131010E9479006C01A8E0EA2E20E066
:100F100040E060E280E00E94BF000E94AD018823B3
:100F200009F074C380913001909131010E947900E1
:100F30006C01FAE0EF2E20E040E060E280E00E94E9
:100F4000BF000E94AD01882309F060C38091300189
:100F5000909131010E9479006C0120E044E060E250
:100F600080E00E94BF000E94AD01882309F04EC3BB
:100F700080913001909131010E9479006C0120E054
:100F800044E060E281E00E94BF000E94AD0188233E
:100F900009F03CC380913001909131010E947900A9
:100FA0006C0120E444E060E281E00E94BF000E9406
:100FB000AD01882309F02AC380913001909131015D
:100FC0000E9479006C0124E444E060E281E00E9428
:100FD000BF000E94AD01882309F018C38091300141
:100FE000909131010E9479006C0124E444E060E2B8
:100FF00081E40E94BF000E94AD01882309F006C36E
:1010000080913001909131010E9479006C0124E4BB
:1010100044E060E283E40E94BF000E94AD018823A7
:1010200009F0F4C280913001909131010E94790061
:101030006C0100E424E444E060E283E40E94BF0029
:101040000E94AD01882309F0E1C2809130019091A6
:1010500031010E9479006C0124E444E860E283E4F9
:101060000E94BF000E94AD01882309F0CFC2809189
:101070003001909131010E9479006C0108E424E470
:1010800044E860E283E40E94BF000E94AD0188232F
:1010900009F0BCC280913001909131010E94790029
:1010A0006C0124E44CE860E283E40E94BF000E94EB
:1010B000AD01882309F0AAC28091300190913101DD
:1010C0000E9479006C0124E44CE864E283E40E940D
:1010D000BF000E94AD01882309F098C280913001C1
:1010E000909131010E9479006C0124E44CE86CE29B
:1010F00083E40E94BF000E94AD01882309F086C2EC
:1011000080913001909131010E9479006C0124E5B9
:101110004CE86CE283E40E94BF000E94AD0188238A
:1011200009F074C280913001909131010E947900E0
:101130006C01EAE2EE2E24E54CE86CE283E40E94C6
:10114000BF000E94AD01882309F060C28091300188
:10115000909131010E9479006C0124E54CE86CE229
:1011600083E50E94BF000E94AD01882309F04EC2B2
:1011700080913001909131010E9479006C0124E549
:101180004CEA6CE283E50E94BF000E94AD01882317
:1011900009F03CC280913001909131010E947900A8
:1011A0006C0124ED4CEA6CE283E50E94BF000E94D2
:1011B000AD01882309F02AC280913001909131015C
:1011C0000E9479006C017AEAE72E24ED4CEA6CE289
:1011D00083E50E94BF000E94AD01882309F016C27A
:1011E00080913001909131010E9479006C0124EDD1
:1011F0004CEA6CE283ED0E94BF000E94AD0188239F
:1012000009F004C280913001909131010E9479006F
:101210006C0124ED4CEE6CE283ED0E94BF000E9455
:10122000AD01882309F0F2C1809130019091310124
:101230000E9479006C016AEBE62E24ED4CEE6CE224
:1012400083ED0E94BF000E94AD01882309F0DEC13A
:1012500080913001909131010E9479006C0124ED60
:101260004CEF6CE283ED0E94BF000E94AD01882329
:1012700009F0CCC180913001909131010E94790038
:101280006C0108EC24ED4CEF6CE283ED0E94BF0092
:101290000E94AD01882309F0B9C18091300190917D
:1012A00031010E9479006C0108ED24ED4CEF6CE2F5
:1012B00083ED0E94BF000E94AD01882309F0A6C102
:1012C00080913001909131010E9479006C0109ED0B
:1012D00024ED4CEF6CE283ED0E94BF000E94AD0153
:1012E000882309F093C180913001909131010E94CF
:1012F00079006C0124ED4CEF6EE283ED0E94BF009B
:101300000E94AD01882309F081C180913001909144
:1013100031010E9479006C0124EF4CEF6EE283ED05
:101320000E94BF000E94AD01882309F06FC1809127
:101330003001909131010E9479006C0124EF4CEF53
:101340006EEA83ED0E94BF000E94AD01882309F080
:101350005DC180913001909131010E9479006C0152
:101360000DED24EF4CEF6EEA83ED0E94BF000E946A
:10137000AD01882309F04AC180913001909131017B
:101380000E9479006C015AEFE52E24EF4CEF6EEAD3
:1013900083ED0E94BF000E94AD01882309F036C191
:1013A00080913001909131010E9479006C0124EF0D
:1013B0004CEF6EEA8BED0E94BF000E94AD018823C6
:1013C00009F024C180913001909131010E9479008F
:1013D0006C0124EF4CEF6EEA8BEF0E94BF000E947D
:1013E000AD01882309F012C1809130019091310143
:1013F0000E9479006C0124EF4EEF6EEA8BEF0E94A1
:10140000BF000E94AD01882309F000C18091300126
:10141000909131010E9479006C010FED24EF4EEFA5
:101420006EEA8BEF0E94BF000E94AD01882309F095
:10143000EDC080913001909131010E9479006C01E2
:1014400026EF4EEF6EEA8BEF0E94BF000E94AD01C7
:10145000882309F0DBC080913001909131010E9416
:1014600079006C0126EF4EEF6EEB8BEF0E94BF0010
:101470000E94AD01882309F0C9C08091300190918C
:1014800031010E9479006C012EEF4EEF6EEB8BEF75
:101490000E94BF000E94AD01882309F0B7C080916F
:1014A0003001909131010E9479006C012FEF4EEFD5
:1014B0006EEB8BEF0E94BF000E94AD01882309F004
:1014C000A5C080913001909131010E9479006C019A
:1014D0004BEFE42E2FEF4EEF6EEB8BEF0E94BF0031
:1014E0000E94AD01882309F091C080913001909154
:1014F00031010E9479006C012FEF4EEF6FEB8BEF03
:101500000E94BF000E94AD01882309F07FC0809136
:101510003001909131010E9479006C012FEF4EEF64
:101520006FEB8FEF0E94BF000E94AD01882309F08E
:101530006DC080913001909131010E9479006C0161
:101540000FEF2FEF4EEF6FEB8FEF0E94BF000E9467
:10155000AD01882309F05AC080913001909131018A
:101560000E9479006C01EE24EA942FEF4EEF6FEBAE
:101570008FEF0E94BF000E94AD01882309F046C092
:1015800080913001909131010E9479006C012FEF20
:101590004EEF6FEF8FEF0E94BF000E94AD018823D6
:1015A000A9F580913001909131010E9479006C0180
:1015B0002FEF4FEF6FEF8FEF0E94BF000E94AD0142
:1015C000882321F580911C010E94581620910A0160
:1015D00030910B018217930724F41092230110928B
:1015E0002201809122019091230101969093230181
:1015F00080932201209122013091230180913401B6
:1016000090913501281739070CF452CC8AEF90E0FD
:10161000909331018093300184E190E09093350103
:10162000809334011092230110922201C8C080914E
:101630003001909131010E9479006C01EE2400E0AC
:1016400024E040E060E080E00E94BF000E94AD0125
:10165000882309F0C0C080913001909131010E942F
:1016600079006C0108E12AE043E060E080E00E943C
:10167000BF000E94AD01882309F0ADC08091300108
:10168000909131010E9479006C0130E8E32E04E270
:1016900021E944E860E080E00E94BF000E94AD01C3
:1016A000882309F098C080913001909131010E9407
:1016B00079006C012CE4E22E03EC20E648E461E6BC
:1016C00080E00E94BF000E94AD01882309F083C022
:1016D00080913001909131010E9479006C0190E37A
:1016E000E92E00E020E040E262E980E10E94BF00D4
:1016F0000E94AD01882309F06EC080913001909165
:1017000031010E9479006C01EE2420E040E16CE0A0
:1017100089E20E94BF000E94AD01882309F05BC0EE
:1017200080913001909131010E9479006C0183E039
:10173000E82E20E040E060E084E40E94BF000E94C8
:10174000AD01882309F047C08091300190913101AB
:101750000E9479006C01EE2420E040E060E082E825
:101760000E94BF000E94AD018823A9F5809130013D
:10177000909131010E9479006C0120E240E060E02C
:1017800080E00E94BF000E94AD01882321F5809176
:101790001C010E94581620910A0130910B018217FA
:1017A000930724F4109223011092220180912201C8
:1017B000909123010196909323018093220120911F
:1017C0002201309123018091340190913501281735
:1017D00039070CF42CCF88EC90E090933101809382
:1017E000300188E290E090933501809334011092AB
:1017F0002301109222014DC180913001909131015D
:101800000E9479006C01EE24EA940FEF2FEF4FEF66
:101810006FEF8FEF0E94BF000E94AD01882309F097
:1018200044C180913001909131010E9479006C0196
:10183000BDEFEB2E2FEF4FEF6FEF8FEF0E94BF004A
:101840000E94AD01882309F030C180913001909150
:1018500031010E9479006C01EE24EA942FEF4FEFE2
:101860006FEF8FEB0E94BF000E94AD01882309F04B
:101870001CC180913001909131010E9479006C016E
:101880000EEF2FEF4FEF6FEF8FEF0E94BF000E9420
:10189000AD01882309F009C1809130019091310197
:1018A0000E9479006C010FEF2FEF4FEB6FEF8FEF7E
:1018B0000E94BF000E94AD01882309F0F6C080910C
:1018C0003001909131010E9479006C01ABEFEA2E5A
:1018D0002FEF4FEF6FEF8FEF0E94BF000E94AD011F
:1018E000882309F0E2C080913001909131010E947B
:1018F00079006C01EE24EA942FEE4FEF6FEF8FEF3B
:101900000E94BF000E94AD01882309F0CEC08091E3
:101910003001909131010E9479006C012FEF4FEF5F
:101920006FED8FEF0E94BF000E94AD01882309F088
:10193000BCC080913001909131010E9479006C010E
:10194000FEEFEF2E2FEF4FEF6FEF8FEF0E94BF00F4
:101950000E94AD01882309F0A8C0809130019091C8
:1019600031010E9479006C01EE24EA942FEF4DEFD3
:101970006FEF8FEF0E94BF000E94AD01882309F036
:1019800094C080913001909131010E9479006C01E6
:101990002BEF4FEF6EEF8FEF0E94BF000E94AD0163
:1019A000882309F082C080913001909131010E941A
:1019B00079006C01EFEBEE2E2FEF4FEF6FEF8FEF13
:1019C0000E94BF000E94AD01882309F06EC0809183
:1019D0003001909131010E9479006C01EE24EA946B
:1019E0002FEF4FEF6FEF8FEF0E94BF000E94AD010E
:1019F000882309F05AC080913001909131010E94F2
:101A000079006C0107EF2FEF4FEF6FEF8FEF0E9420
:101A1000BF000E94AD01882309F047C080913001CA
:101A2000909131010E9479006C010FEF2FEF4FEF81
:101A30006FEF8FEE0E94BF000E94AD018823A9F5D1
:101A400080913001909131010E9479006C012FEF5B
:101A50004DEF6FEF8FEF0E94BF000E94AD01882312
:101A600021F580911C010E94581620910A013091A5
:101A70000B018217930724F4109223011092220184
:101A800080912201909123010196909323018093EC
:101A90002201209122013091230180913401909103
:101AA0003501281739070CF4A7CE87E390E090930F
:101AB00031018093300189E190E09093350180936A
:101AC0003401109223011092220102C3809130014F
:101AD000909131010E9479006C01EE2400E020E039
:101AE00040E060E080E00E94BF000E94AD018823DA
:101AF00009F0FAC280913001909131010E94790081
:101B00006C0120E040E060E08EEF0E94BF000E9488
:101B1000AD01882309F0E8C2809130019091310134
:101B20000E9479006C0120E040E068EF8FEF0E9496
:101B3000BF000E94AD01882309F0D6C28091300118
:101B4000909131010E9479006C0120E040EF6FEF2D
:101B50008FEF0E94BF000E94AD01882309F0C4C22C
:101B600080913001909131010E9479006C0120EC4C
:101B70004FEF6FEF8FEF0E94BF000E94AD018823EF
:101B800009F0B2C280913001909131010E94790038
:101B90006C0100E82FEF4FEF6FEF8FEF0E94BF0057
:101BA0000E94AD01882309F09FC28091300190917D
:101BB00031010E9479006C010EEF2FEF4FEF6FEFB4
:101BC0008FEF0E94BF000E94AD01882309F08CC2F4
:101BD00080913001909131010E9479006C017CEC80
:101BE000E72E0FEF2FEF4FEF6FEF8FEF0E94BF0049
:101BF0000E94AD01882309F077C280913001909155
:101C000031010E9479006C016CEFE62E2FEF4FEF4F
:101C10006FEF8FEF0E94BF000E94AD01882309F093
:101C200063C280913001909131010E9479006C0172
:101C3000EE24EA942FEF4FEF6FEF8FEF0E94BF007B
:101C40000E94AD01882309F04FC28091300190912C
:101C500031010E9479006C015CEFE52E2FEF4FEF10
:101C60006FEF8FEF0E94BF000E94AD01882309F043
:101C70003BC280913001909131010E9479006C014A
:101C80004CECE42E2FEF4FEF6FEF8FEF0E94BF0071
:101C90000E94AD01882309F027C280913001909104
:101CA00031010E9479006C01EE240EEF2FEF4FEF0F
:101CB0006FEF8FEF0E94BF000E94AD01882309F0F3
:101CC00013C280913001909131010E9479006C0122
:101CD00000E82FEF4FEF6FEF8FEF0E94BF000E94E1
:101CE000AD01882309F000C280913001909131014B
:101CF0000E9479006C0100E020EC4FEF6FEF8FEF56
:101D00000E94BF000E94AD01882309F0EDC18091BF
:101D10003001909131010E9479006C0120E040EF88
:101D20006FEF8FEF0E94BF000E94AD01882309F082
:101D3000DBC180913001909131010E9479006C01EA
:101D400020E040E068EF8FEF0E94BF000E94AD01ED
:101D5000882309F0C9C180913001909131010E941E
:101D600079006C0120E040E060E08EEF0E94BF004F
:101D70000E94AD01882309F0B7C180913001909194
:101D800031010E9479006C0120E040E060E080E0D9
:101D90000E94BF000E94AD01882309F0A5C1809177
:101DA0003001909131010E947900AA2797FDA095FA
:101DB000BA2FBC01CD010E94E315809130019091B2
:101DC00031010E947900AA2797FDA095BA2FBC0186
:101DD000CD010E94E31580913001909131010E9464
:101DE00079006C0120E040E060E080E00E94BF00EC
:101DF0000E94AD01882309F077C180913001909154
:101E000031010E9479006C0133E0E32E20E040E0D4
:101E100060E080E00E94BF000E94AD01882309F0CD
:101E200063C180913001909131010E9479006C0171
:101E300023E3E22E20E040E060E080E00E94BF006B
:101E40000E94AD01882309F04FC18091300190912B
:101E500031010E9479006C01EE24EA9401E020E057
:101E600040E060E080E00E94BF000E94AD01882356
:101E700009F03AC180913001909131010E947900BE
:101E80006C010FE720E040E060E080E00E94BF00CE
:101E90000E94AD01882309F027C180913001909103
:101EA00031010E9479006C010FEF2FE340E060E008
:101EB00080E00E94BF000E94AD01882309F014C198
:101EC00080913001909131010E9479006C012FEFD7
:101ED0004FE060E080E00E94BF000E94AD018823D7
:101EE00009F002C180913001909131010E94790086
:101EF0006C012FEF4FEF67E080E00E94BF000E946F
:101F0000AD01882309F0F0C080913001909131013A
:101F10000E9479006C012FEF4FEF6FEF81E00E947C
:101F2000BF000E94AD01882309F0DEC0809130011E
:101F3000909131010E9479006C012FEF4FEF6FEF0C
:101F40008FEF0E94BF000E94AD01882309F0CCC032
:101F500080913001909131010E9479006C012FEF46
:101F60004FEF6FEF81E00E94BF000E94AD01882318
:101F700009F0BAC080913001909131010E9479003E
:101F80006C012FEF4FEF67E080E00E94BF000E94DE
:101F9000AD01882309F0A8C08091300190913101F2
:101FA0000E9479006C012FEF4FE060E080E00E941A
:101FB000BF000E94AD01882309F096C080913001D6
:101FC000909131010E9479006C012FE340E060E0C4
:101FD00080E00E94BF000E94AD01882309F084C008
:101FE00080913001909131010E9479006C010FE7DE
:101FF00020E040E060E080E00E94BF000E94AD0170
:10200000882309F071C080913001909131010E94C4
:1020100079006C0101E020E040E060E080E00E9497
:10202000BF000E94AD01882309F05EC0809130019D
:10203000909131010E9479006C0193E3E92E00E058
:1020400020E040E060E080E00E94BF000E94AD011F
:10205000882309F049C080913001909131010E949C
:1020600079006C0183E0E82E20E040E060E080E051
:102070000E94BF000E94AD018823B1F5809130011C
:10208000909131010E9479006C01EE2420E040E043
:1020900060E080E00E94BF000E94AD01882321F52E
:1020A00080911C010E94581620910A0130910B0169
:1020B0008217930724F41092230110922201809139
:1020C0002201909123010196909323018093220194
:1020D00020912201309123018091340190913501AA
:1020E000281739070CF4F2CC80ED97E0909331017A
:1020F0008093300184E090E0909335018093340127
:1021000010922301109222015AC1809130019091C6
:1021100031010E9479006C01EE2400E020E040E0F3
:1021200060E080E00E94BF000E94AD01882309F0BA
:1021300052C180913001909131010E9479006C016F
:1021400023E040E060E080E00E94BF000E94AD011B
:10215000882309F040C180913001909131010E94A3
:1021600079006C0123E040E060E080E60E94BF005F
:102170000E94AD01882309F02EC180913001909119
:1021800031010E9479006C01B0E3EB2E23E040E0C6
:1021900060E080E60E94BF000E94AD01882309F044
:1021A0001AC180913001909131010E9479006C0137
:1021B00020E040EC60E080E60E94BF000E94AD019C
:1021C000882309F008C180913001909131010E946B
:1021D00079006C0100E320E040EC60E080E00E94C8
:1021E000BF000E94AD01882309F0F5C08091300145
:1021F000909131010E9479006C01EE2420E040ECC6
:1022000060E086E00E94BF000E94AD01882309F0D3
:10221000E2C080913001909131010E9479006C01FF
:10222000ACE0EA2E20E040E060E086E00E94BF00E3
:102230000E94AD01882309F0CEC0809130019091B9
:1022400031010E9479006C0100E020E040E360E091
:1022500086E00E94BF000E94AD01882309F0BBC048
:1022600080913001909131010E9479006C0128E148
:1022700040E360E080E00E94BF000E94AD0188233F
:1022800009F0A9C080913001909131010E9479003C
:102290006C01F3E0EF2E28E140E360E080E00E9473
:1022A000BF000E94AD01882309F095C080913001E4
:1022B000909131010E9479006C0128E140E060E6D4
:1022C00080E00E94BF000E94AD01882309F083C016
:1022D00080913001909131010E9479006C01E3EC12
:1022E000EE2E20E040E060E680E00E94BF000E9409
:1022F000AD01882309F06FC08091300190913101C8
:102300000E9479006C0170ECE72E00E821E040E0CB
:1023100060E680E00E94BF000E94AD01882309F0C2
:102320005AC080913001909131010E9479006C0176
:1023300021E040E060E080E00E94BF000E94AD012B
:10234000882309F048C080913001909131010E94AA
:1023500079006C01EE2421E040E060E080E00E9422
:10236000BF000E94AD018823B1F5809130019091AA
:1023700031010E9479006C0100E020E040E060E063
:1023800080E00E94BF000E94AD01882321F580916A
:102390001C010E94581620910A0130910B018217EE
:1023A000930724F4109223011092220180912201BC
:1023B0009091230101969093230180932201209113
:1023C0002201309123018091340190913501281729
:1023D00039070CF49ACE82E390E090933101809318
:1023E00030018AE090E0909335018093340110929F
:1023F00023011092220144C3809130019091310158
:102400000E9479006C01EE2400E020E040E060E0F2
:1024100080E00E94BF000E94AD01882309F03CC308
:1024200080913001909131010E9479006C0120E28D
:1024300040E060E080E00E94BF000E94AD01882380
:1024400009F02AC380913001909131010E947900F6
:102450006C0120E340E060E080E00E94BF000E9449
:10246000AD01882309F018C38091300190913101AA
:102470000E9479006C0128E140E060E080E00E9469
:10248000BF000E94AD01882309F006C3809130018E
:10249000909131010E9479006C012CE040E060E0F5
:1024A00080E00E94BF000E94AD01882309F0F4C2C1
:1024B00080913001909131010E9479006C0126E0F9
:1024C00040E060E080E00E94BF000E94AD018823F0
:1024D00009F0E2C280913001909131010E947900AF
:1024E0006C0123E040E160E080E00E94BF000E94B8
:1024F000AD01882309F0D0C2809130019091310163
:102500000E9479006C0100E821E040E360E080E097
:102510000E94BF000E94AD01882309F0BDC28091D6
:102520003001909131010E9479006C0120E040E679
:1025300060E080E00E94BF000E94AD01882309F0A6
:10254000ABC280913001909131010E9479006C0101
:1025500000E020E040EC60E080E00E94BF000E94CC
:10256000AD01882309F098C280913001909131012A
:102570000E9479006C0120E040E861E080E00E9468
:10258000BF000E94AD01882309F086C2809130010E
:10259000909131010E9479006C0120E040E063E0FD
:1025A00080E00E94BF000E94AD01882309F074C240
:1025B00080913001909131010E9479006C0120E0FE
:1025C00040E066E080E00E94BF000E94AD018823E9
:1025D00009F062C280913001909131010E9479002E
:1025E0006C0120E040E064E080E00E94BF000E94B7
:1025F000AD01882309F050C28091300190913101E2
:102600000E9479006C0120E040E060E080E80E94D8
:10261000BF000E94AD01882309F03EC280913001C5
:10262000909131010E9479006C0120E040E060E06F
:1026300080EC0E94BF000E94AD01882309F02CC2EB
:1026400080913001909131010E9479006C0120E06D
:1026500040E060E080EE0E94BF000E94AD01882350
:1026600009F01AC280913001909131010E947900E5
:102670006C0120E040E060E080E70E94BF000E9423
:10268000AD01882309F008C2809130019091310199
:102690000E9479006C0120E040E060E088E30E9445
:1026A000BF000E94AD01882309F0F6C1809130017E
:1026B000909131010E9479006C0120E040E060E0DF
:1026C0008CE10E94BF000E94AD01882309F0E4C1A3
:1026D00080913001909131010E9479006C0120E0DD
:1026E00040E060E08EE00E94BF000E94AD018823C0
:1026F00009F0D2C180913001909131010E9479009E
:102700006C0120E040E060E086E00E94BF000E9493
:10271000AD01882309F0C0C1809130019091310151
:102720000E9479006C0120E040E060E082E00E94BD
:10273000BF000E94AD01882309F0AEC18091300135
:10274000909131010E9479006C0102E020E040E0AC
:1027500060E080E00E94BF000E94AD01882309F084
:102760009BC180913001909131010E9479006C01F0
:1027700004E020E040E060E080E00E94BF000E94B2
:10278000AD01882309F088C1809130019091310119
:102790000E9479006C0108E020E040E060E080E009
:1027A0000E94BF000E94AD01882309F075C180918D
:1027B0003001909131010E9479006C0100E120E02C
:1027C00040E060E080E00E94BF000E94AD018823ED
:1027D00009F062C180913001909131010E9479002D
:1027E0006C0100E220E040E060E080E00E94BF0079
:1027F0000E94AD01882309F04FC180913001909172
:1028000031010E9479006C0100E420E040E060E0CA
:1028100080E00E94BF000E94AD01882309F03CC106
:1028200080913001909131010E9479006C0100E0AB
:1028300020E048E060E080E00E94BF000E94AD011F
:10284000882309F029C180913001909131010E94C3
:1028500079006C0120E04CE060E080E00E94BF0065
:102860000E94AD01882309F017C180913001909139
:1028700031010E9479006C0120E046E060E080E0D8
:102880000E94BF000E94AD01882309F005C180911C
:102890003001909131010E9479006C0120E043E009
:1028A00060E080E00E94BF000E94AD01882309F033
:1028B000F3C080913001909131010E9479006C0148
:1028C00020E841E060E080E00E94BF000E94AD018E
:1028D000882309F0E1C080913001909131010E947C
:1028E00079006C0120EC40E068E080E00E94BF00CD
:1028F0000E94AD01882309F0CFC0809130019091F2
:1029000031010E9479006C0120E440E068E180E040
:102910000E94BF000E94AD01882309F0BDC08091D4
:102920003001909131010E9479006C0120E040E07B
:1029300068E380E00E94BF000E94AD01882309F097
:10294000ABC080913001909131010E9479006C01FF
:1029500020E040E060E780E00E94BF000E94AD01FF
:10296000882309F099C080913001909131010E9433
:1029700079006C0101E020E040E060EE80E00E9420
:10298000BF000E94AD01882309F086C0809130010C
:10299000909131010E9479006C0160E8E62E00E020
:1029A00020E040E060EC81E00E94BF000E94AD01A9
:1029B000882309F071C080913001909131010E940B
:1029C00079006C0150E4E52E20E040E060E881E011
:1029D0000E94BF000E94AD01882309F05DC0809174
:1029E0003001909131010E9479006C0144E0E42EA5
:1029F00020E040E060E081E00E94BF000E94AD0165
:102A0000882309F049C080913001909131010E94E2
:102A100079006C0138E0E32E20E040E060E080E0E7
:102A20000E94BF000E94AD018823B1F58091300162
:102A3000909131010E9479006C01EE2420E040E089
:102A400060E080E00E94BF000E94AD01882321F574
:102A500080911C010E94581620910A0130910B01AF
:102A60008217930724F4109223011092220180917F
:102A700022019091230101969093230180932201DA
:102A800020912201309123018091340190913501F0
:102A9000281739070CF4B0CC0F91EF90DF90CF904E
:102AA000089560E875E280E090E00E947F1761E0A1
:102AB000809100010E94CA1661E0809104010E9489
:102AC000CA1661E0809102010E94CA1661E08091FD
:102AD00006010E94CA1660E0809108010E94CA1691
:102AE00008950E941B160E9451150E94E801FDCF17
:102AF0001F920F920FB60F9211242F938F939F93D3
:102B0000AF93BF938091360190913701A091380126
:102B1000B09139018050904CAF4FBF4F8093360138
:102B200090933701A0933801B093390127C0809169
:102B3000360190913701A0913801B091390180544C
:102B40009F41A040B0408093360190933701A093FD
:102B50003801B093390180913A0190913B01A091E5
:102B60003C01B0913D010196A11DB11D80933A0138
:102B700090933B01A0933C01B0933D0180913601BD
:102B800090913701A0913801B091390181549F4152
:102B9000A040B04060F6BF91AF919F918F912F916F
:102BA0000F900FBE0F901F9018958FB7F89420913B
:102BB0003A0130913B0140913C0150913D018FBF62
:102BC000B901CA010895EF92FF920F931F937B0101
:102BD0008C018FB7F89440913A0150913B0160917C
:102BE0003C0170913D018FBF2FB7F89480913A015D
:102BF00090913B01A0913C01B0913D012FBF841BFE
:102C0000950BA60BB70B8E159F05A007B10760F3B8
:102C10001F910F91FF90EF900895019759F0019740
:102C200049F0FC01EE0FFF1F31978FB7F8943197F1
:102C3000F1F78FBF0895789484B5826084BD84B520
:102C4000816084BD85B5826085BD85B5816085BDA7
:102C5000EEE6F0E0808181608083E1E8F0E0808151
:102C600082608083808181608083E0E8F0E0808101
:102C700081608083E1EBF0E0808184608083E0EB21
:102C8000F0E0808181608083EAE7F0E08081846009
:102C90008083808182608083808181608083808165
:102CA000806880831092C100089580931A0108956E
:102CB0008F7090911A019295990F990F907C982B93
:102CC00090937C0080917A00806480937A00809158
:102CD0007A0086FDFCCF2091780040917900942FF6
:102CE00080E030E0282B392BC90108951F93CF9342
:102CF000DF93182FEB0161E00E94CA16E12FF0E08C
:102D0000E156FF4F8491833051F4809180008068B8
:102D100080938000D0938900C093880037C08430AE
:102D200051F480918000806280938000D0938B006A
:102D3000C0938A002BC0813029F484B5806884BD9B
:102D4000C7BD24C0823029F484B5806284BDC8BD6B
:102D50001DC0863041F48091B00080688093B0003F
:102D6000C093B30013C0873041F48091B0008062FB
:102D70008093B000C093B40009C0C038D10514F4EA
:102D800060E001C061E0812F0E94E816DF91CF91E1
:102D90001F910895282F30E0C90185579F4FFC01EE
:102DA000949129583F4FF9018491882381F0E82FAD
:102DB000F0E0E859FF4FE491F0E0662329F48081C8
:102DC00090958923808308958081892B808308953D
:102DD000482F50E0CA0181569F4FFC012491CA013F
:102DE00085579F4FFC01949149585F4FFA013491E8
:102DF0003323C1F1222331F1233021F4809180006B
:102E00008F7705C0243031F4809180008F7D8093CE
:102E1000800018C0213019F484B58F7704C02230A7
:102E200021F484B58F7D84BD0DC0263021F48091BE
:102E3000B0008F7705C0273029F48091B0008F7DD6
:102E40008093B000E32FF0E0E359FF4FE491F0E00E
:102E5000662329F480819095892380830895808159
:102E6000892B80830895482F50E0CA0181569F4FD7
:102E7000FC012491CA0185579F4FFC019491495848
:102E80005F4FFA013491332319F420E030E035C06C
:102E9000222331F1233021F4809180008F7705C007
:102EA000243031F4809180008F7D8093800018C0A1
:102EB000213019F484B58F7704C0223021F484B511
:102EC0008F7D84BD0DC0263021F48091B0008F77B6
:102ED00005C0273029F48091B0008F7D8093B00029
:102EE000E32FF0E0EE58FF4FE491F0E0808120E026
:102EF00030E0892311F021E030E0C9010895EF921C
:102F0000FF920F931F937B018C0122E030E040E0A1
:102F100050E00E944918205E3E45484F5F4FCA016D
:102F2000B901A80197010E944918C901DA01019766
:102F3000A109B109292F3A2F4B2F552747FD5A9543
:102F40000196A11DB11D2093C50081508093C4003E
:102F5000E1ECF0E080818061808380818860808303
:102F60008081806880831F910F91FF90EF9008957A
:102F7000982F8091C00085FFFCCF9093C6000895E4
:102F800080913E0190913F0180589F4F20914001D8
:102F900030914101821B930B60E870E00E9436186B
:102FA0000895409140015091410180913E019091DE
:102FB0003F018417950719F42FEF3FEF0FC0FA0177
:102FC000EE5BFE4F2081CA01019660E870E00E942E
:102FD0003618909341018093400130E0C901089573
:102FE000809140019091410190933F0180933E0177
:102FF00008951F920F920FB60F9211242F933F93B3
:103000004F935F936F937F938F939F93AF93BF93F0
:10301000EF93FF934091C600E0913E01F0913F0194
:10302000CF01019660E870E00E9436189C01809103
:103030004001909141012817390739F0EE5BFE4FAE
:10304000408330933F0120933E01FF91EF91BF9168
:10305000AF919F918F917F916F915F914F913F9130
:103060002F910F900FBE0F901F90189597FB092E70
:1030700007260AD077FD04D027D006D000201AF406
:10308000709561957F4F0895F6F7909581959F4FC4
:10309000089597FB092E05260ED057FD04D028D0A1
:1030A0000AD0001C38F450954095309521953F4F3B
:1030B0004F4F5F4F0895F6F7909580957095619505
:1030C0007F4F8F4F9F4F0895AA1BBB1B51E107C035
:1030D000AA1FBB1FA617B70710F0A61BB70B881FA8
:1030E000991F5A95A9F780959095BC01CD01089537
:1030F000A1E21A2EAA1BBB1BFD010DC0AA1FBB1FFC
:10310000EE1FFF1FA217B307E407F50720F0A21B6D
:10311000B30BE40BF50B661F771F881F991F1A94DA
:1031200069F760957095809590959B01AC01BD0104
:08313000CF010895F894FFCFD0
:10313800090008000A000B000700FF0364000000F4
:0C314800140014001400140030000100FA
:00000001FF
