:100000000C945A000C9477000C9477000C947700B1
:100010000C9477000C9477000C9477000C94770084
:100020000C9477000C9477000C9477000C94770074
:100030000C9477000C9477000C9477000C94770064
:100040000C94710B0C9477000C94F20D0C947700C7
:100050000C9477000C9477000C9477000C94770044
:100060000C9477000C947700000024272A000025C8
:10007000282B000023262904040404040404040299
:100080000202020202030303030303010204081035
:100090002040800102040810200102040810200002
:1000A0000000070002010000030406000000000039
:1000B0000000000011241FBECFEFD4E0DEBFCDBF93
:1000C00011E0A0E0B1E0EAE2FDE102C005900D928E
:1000D000A631B107D9F711E0A6E1B1E001C01D9248
:1000E000A73BB107E1F70E946A0B0C94930E0C94A6
:1000F0000000809116010E94510C20910A0130915C
:100100000B01821793072CF080911001909111013F
:100110000895809116010E94510C089560E080912D
:1001200004010E94E10C88E290E00E94060C61E06C
:10013000809104010E94E10C80E991E00E94060C8C
:1001400060E0809104010E94E10C08959F92AF92BB
:10015000BF92CF92DF92EF92FF920F931F93982E50
:10016000A62EB42EF22E1E2D10921B0110921A01F3
:1001700017C0612F6170809100010E94E10C1695FB
:100180000E948E0061E0809106010E94E10C809146
:100190001A0190911B01019690931B0180931A0103
:1001A00080911A0190911B0108971CF310921B017A
:1001B00010921A0117C0602F6170809100010E9497
:1001C000E10C06950E948E0061E0809106010E947C
:1001D000E10C80911A0190911B01019690931B01F3
:1001E00080931A0180911A0190911B0108971CF3CA
:1001F00010921B0110921A0117C06F2D617080912F
:1002000000010E94E10CF6940E948E0061E0809152
:1002100006010E94E10C80911A0190911B01019648
:1002200090931B0180931A0180911A0190911B01F8
:1002300008971CF310921B0110921A0117C06B2D26
:100240006170809100010E94E10CB6940E948E00C2
:1002500061E0809106010E94E10C80911A01909169
:100260001B01019690931B0180931A0180911A0142
:1002700090911B0108971CF310921B0110921A0118
:1002800017C06A2D6170809100010E94E10CA69454
:100290000E948E0061E0809106010E94E10C809135
:1002A0001A0190911B01019690931B0180931A01F2
:1002B00080911A0190911B0108971CF310921B0169
:1002C00010921A0133C0692D6170809100010E9463
:1002D000E10C80911A0190911B010797B1F480E91C
:1002E00091E00E94060C60E0809106010E94E10C02
:1002F00080E991E00E94060C61E0809102010E9479
:10030000E10C80E991E00E94060C96940E948E0018
:1003100061E0809106010E94E10C80911A019091A8
:100320001B01019690931B0180931A0180911A0181
:1003300090911B0108973CF288E290E00E94060C25
:1003400060E0809102010E94E10CB601882777FDF0
:100350008095982F0E94DC0B1F910F91FF90EF90DA
:10036000DF90CF90BF90AF909F9008951F938091A2
:1003700008010E942C0D182F80931E01813009F076
:1003800042C080911F018823F1F50E94CE0B20917D
:100390002101309122014091230150912401621BDF
:1003A000730B840B950B20910C0130910D01409142
:1003B0000E0150910F01261737074807590718F506
:1003C00010921E010E94CE0B6093210170932201B6
:1003D0008093230190932401809116010E94510C77
:1003E00020910A0130910B01821793074CF0809104
:1003F0002001882319F41093200102C010922001DB
:1004000081E01F91089580911E0180931F0180E07B
:10041000F8CFCF92DF92EF920F9310921D011092BE
:100420001C01D6C2809116010E94510C20910A0134
:1004300030910B018217930714F40C94010B8091F7
:100440002001813011F00C94010BCAC20E94790086
:100450006C01EE2400E020E040E060E080E40E94D7
:10046000A6000E94B601882309F0BAC20E94790052
:100470006C0120E040E060E080E20E94A6000E9463
:10048000B601882309F0ACC20E9479006C0120E01B
:1004900040E060E080E10E94A6000E94B60188234F
:1004A00009F09EC20E9479006C0120E040E060E00B
:1004B00088E00E94A6000E94B601882309F090C23D
:1004C0000E9479006C0120E040E060E084E00E943E
:1004D000A6000E94B601882309F082C20E9479001A
:1004E0006C0120E040E060E082E00E94A6000E94F3
:1004F000B601882309F074C20E9479006C0120E0E3
:1005000040E060E081E00E94A6000E94B6018823DE
:1005100009F066C20E9479006C0120E040E060E8CA
:1005200080E00E94A6000E94B601882309F058C20C
:100530000E9479006C0120E040E060E480E00E94CD
:10054000A6000E94B601882309F04AC20E947900E1
:100550006C0120E040E060E280E00E94A6000E9482
:10056000B601882309F03CC20E9479006C0120E0AA
:1005700040E060E180E00E94A6000E94B60188236E
:1005800009F02EC20E9479006C0120E040E068E092
:1005900080E00E94A6000E94B601882309F020C2D4
:1005A0000E9479006C0120E040E064E080E00E945D
:1005B000A6000E94B601882309F012C20E947900A9
:1005C0006C0120E040E062E080E00E94A6000E9412
:1005D000B601882309F004C20E9479006C0120E072
:1005E00040E061E080E00E94A6000E94B6018823FE
:1005F00009F0F6C10E9479006C0120E040E860E05B
:1006000080E00E94A6000E94B601882309F0E8C19C
:100610000E9479006C0120E040E460E080E00E94EC
:10062000A6000E94B601882309F0DAC10E94790071
:100630006C0120E040E260E080E00E94A6000E94A1
:10064000B601882309F0CCC10E9479006C0120E03A
:1006500040E160E080E00E94A6000E94B60188238D
:1006600009F0BEC10E9479006C0120E048E060E022
:1006700080E00E94A6000E94B601882309F0B0C164
:100680000E9479006C0120E044E060E080E00E947C
:10069000A6000E94B601882309F0A2C10E94790039
:1006A0006C0120E042E060E080E00E94A6000E9431
:1006B000B601882309F094C10E9479006C0120E002
:1006C00041E060E080E00E94A6000E94B60188231D
:1006D00009F086C10E9479006C0120E840E060E0EA
:1006E00080E00E94A6000E94B601882309F078C12C
:1006F0000E9479006C0120E440E060E080E00E940C
:10070000A6000E94B601882309F06AC10E94790000
:100710006C0120E240E060E080E00E94A6000E94C0
:10072000B601882309F05CC10E9479006C0120E1C8
:1007300040E060E080E00E94A6000E94B6018823AD
:1007400009F04EC10E9479006C0128E040E060E0B1
:1007500080E00E94A6000E94B601882309F040C1F3
:100760000E9479006C0124E040E060E080E00E949B
:10077000A6000E94B601882309F032C10E947900C8
:100780006C0122E040E060E080E00E94A6000E9450
:10079000B601882309F024C10E9479006C0121E090
:1007A00040E060E080E00E94A6000E94B60188233D
:1007B00009F016C10E9479006C0100E820E040E0D9
:1007C00060E080E00E94A6000E94B601882309F044
:1007D00007C10E9479006C0100E420E040E060E085
:1007E00080E00E94A6000E94B601882309F0F8C0AC
:1007F0000E9479006C0100E220E040E060E080E0CF
:100800000E94A6000E94B601882309F0E9C00E9458
:1008100079006C0100E120E040E060E080E00E94AF
:10082000A6000E94B601882309F0DAC00E94790070
:100830006C0108E020E040E060E080E00E94A6005B
:100840000E94B601882309F0CBC00E9479006C0198
:1008500004E020E040E060E080E00E94A6000E940A
:10086000B601882309F0BCC00E9479006C0102E047
:1008700020E040E060E080E00E94A6000E94B60117
:10088000882309F0ADC00E9479006C0101E020E0EE
:1008900040E060E080E00E94A6000E94B60188234C
:1008A00009F09EC00E9479006C0100E8E02E00E093
:1008B00020E040E060E080E00E94A6000E94B601D7
:1008C000882309F08DC00E9479006C01B0E4EB2E02
:1008D00020E040E060E080E00E94A6000E94B601B7
:1008E000882309F07DC00E9479006C01A0E2EA2E05
:1008F00020E040E060E080E00E94A6000E94B60197
:10090000882309F06DC00E9479006C01F0E1EF2EA0
:1009100020E040E060E080E00E94A6000E94B60176
:10092000882309F05DC00E9479006C01E8E0EE2E9A
:1009300020E040E060E080E00E94A6000E94B60156
:10094000882309F04DC00E9479006C0174E0E72E05
:1009500020E040E060E080E00E94A6000E94B60136
:100960008823F1F50E9479006C0162E0E62E20E018
:1009700040E060E080E00E94A6000E94B60188236B
:1009800079F50E9479006C01EE24E39420E040E0C8
:1009900060E080E00E94A6000E94B601882301F575
:1009A000809116010E94510C20910A0130910B0197
:1009B0008217930724F410921D0110921C0180915C
:1009C0001C0190911D01019690931D0180931C01C3
:1009D00080911C0190911D01181619060CF022CD72
:1009E00010921D0110921C01A4C0809116010E945A
:1009F000510C20910A0130910B01821793070CF4DE
:100A000012C680912001813009F00DC699C00E9464
:100A100079006C01EE2400E020E040E068EF81E026
:100A20000E94A6000E94B601882309F089C00E9496
:100A300079006C0120E040EF67E080E00E94A600B2
:100A40000E94B601882309F07BC00E9479006C01E6
:100A500020EC4FE060E080E00E94A6000E94B6011A
:100A6000882309F06DC00E9479006C0100E82FE333
:100A700040E060E080E00E94A6000E94B60188236A
:100A800009F05EC00E9479006C010EE720E040E0B2
:100A900060E080E00E94A6000E94B601882309F071
:100AA0004FC00E9479006C0150EFE52E01E020E07C
:100AB00040E060E080E00E94A6000E94B60188232A
:100AC00009F03EC00E9479006C014CE0E42E00E089
:100AD00020E040E060E080E00E94A6000E94B601B5
:100AE000882371F50E9479006C0133E0E32E20E049
:100AF00040E060E080E00E94A6000E94B6018823EA
:100B0000F9F4809116010E94510C20910A01309154
:100B10000B018217930724F410921D0110921C01FF
:100B200080911C0190911D01019690931D0180936D
:100B30001C0180911C0190911D010A970CF455CF66
:100B400010921D0110921C01E1C2809116010E94B9
:100B5000510C20910A0130910B01821793070CF47C
:100B600073C580912001813009F06EC5D7C20E9403
:100B700079006C01EE2400E020E040E060E280E0DB
:100B80000E94A6000E94B601882309F0C7C20E94F5
:100B900079006C0128E0E22E20E040E060E280E095
:100BA0000E94A6000E94B601882309F0B7C20E94E5
:100BB00079006C019AE0E92E20E040E060E280E0FC
:100BC0000E94A6000E94B601882309F0A7C20E94D5
:100BD00079006C0120E044E060E280E00E94A60021
:100BE0000E94B601882309F099C20E9479006C0125
:100BF00020E044E060E281E00E94A6000E94B6018D
:100C0000882309F08BC20E9479006C0120E444E043
:100C100060E281E00E94A6000E94B601882309F0EC
:100C20007DC20E9479006C0124E444E060E281E02E
:100C30000E94A6000E94B601882309F06FC20E949C
:100C400079006C0124E444E060E281E40E94A600A3
:100C50000E94B601882309F061C20E9479006C01EC
:100C600024E444E060E283E40E94A6000E94B6010E
:100C7000882309F053C20E9479006C0100E424E447
:100C800044E060E283E40E94A6000E94B60188234B
:100C900009F044C20E9479006C0124E444E860E257
:100CA00083E40E94A6000E94B601882309F036C2A0
:100CB0000E9479006C0108E424E444E860E283E4E3
:100CC0000E94A6000E94B601882309F027C20E9454
:100CD00079006C0124E44CE860E283E40E94A60001
:100CE0000E94B601882309F019C20E9479006C01A4
:100CF00024E44CE864E283E40E94A6000E94B6016A
:100D0000882309F00BC20E9479006C0124E44CE8AE
:100D10006CE283E40E94A6000E94B601882309F0D9
:100D2000FDC10E9479006C0124E54CE86CE283E48B
:100D30000E94A6000E94B601882309F0EFC10E941C
:100D400079006C018AE2E82E24E54CE86CE283E449
:100D50000E94A6000E94B601882309F0DFC10E940C
:100D600079006C0124E54CE86CE283E50E94A60062
:100D70000E94B601882309F0D1C10E9479006C015C
:100D800024E54CEA6CE283E50E94A6000E94B601CD
:100D9000882309F0C3C10E9479006C0124ED4CEA5C
:100DA0006CE283E50E94A6000E94B601882309F048
:100DB000B5C10E9479006C01BAEAEB2E24ED4CEA31
:100DC0006CE283E50E94A6000E94B601882309F028
:100DD000A5C10E9479006C0124ED4CEA6CE283ED20
:100DE0000E94A6000E94B601882309F097C10E94C4
:100DF00079006C0124ED4CEE6CE283ED0E94A600BC
:100E00000E94B601882309F089C10E9479006C0113
:100E1000AAEBEA2E24ED4CEE6CE283ED0E94A600D4
:100E20000E94B601882309F079C10E9479006C0103
:100E300024ED4CEF6CE283ED0E94A6000E94B60107
:100E4000882309F06BC10E9479006C0108EC24ED45
:100E50004CEF6CE283ED0E94A6000E94B60188234D
:100E600009F05CC10E9479006C0108ED24ED4CEFA3
:100E70006CE283ED0E94A6000E94B601882309F06F
:100E80004DC10E9479006C0109ED24ED4CEF6CE23C
:100E900083ED0E94A6000E94B601882309F03EC19E
:100EA0000E9479006C0124ED4CEF6EE283ED0E940C
:100EB000A6000E94B601882309F030C10E94790083
:100EC0006C0124EF4CEF6EE283ED0E94A6000E94BD
:100ED000B601882309F022C10E9479006C0124EF39
:100EE0004CEF6EEA83ED0E94A6000E94B6018823B3
:100EF00009F014C10E9479006C010DED24EF4CEF54
:100F00006EEA83ED0E94A6000E94B601882309F0D4
:100F100005C10E9479006C01FAEFEF2E24EF4CEF2F
:100F20006EEA83ED0E94A6000E94B601882309F0B4
:100F3000F5C00E9479006C0124EF4CEF6EEA8BED56
:100F40000E94A6000E94B601882309F0E7C00E9413
:100F500079006C0124EF4CEF6EEA8BEF0E94A60043
:100F60000E94B601882309F0D9C00E9479006C0163
:100F700024EF4EEF6EEA8BEF0E94A6000E94B601AE
:100F8000882309F0CBC00E9479006C010FED24EF9B
:100F90004EEF6EEA8BEF0E94A6000E94B6018823F6
:100FA00009F0BCC00E9479006C0126EF4EEF6EEA9A
:100FB0008BEF0E94A6000E94B601882309F0AEC004
:100FC0000E9479006C0126EF4EEF6EEB8BEF0E94D2
:100FD000A6000E94B601882309F0A0C00E947900F3
:100FE0006C012EEF4EEF6EEB8BEF0E94A6000E947D
:100FF000B601882309F092C00E9479006C012FEF9E
:101000004EEF6EEB8BEF0E94A6000E94B601882384
:1010100009F084C00E9479006C01EBEFEE2E2FEFF7
:101020004EEF6EEB8BEF0E94A6000E94B601882364
:1010300009F074C00E9479006C012FEF4EEF6FEB46
:101040008BEF0E94A6000E94B601882309F066C0BB
:101050000E9479006C012FEF4EEF6FEB8FEF0E9433
:10106000A6000E94B601882309F058C00E947900AA
:101070006C010FEF2FEF4EEF6FEB8FEF0E94A6008A
:101080000E94B601882309F049C00E9479006C01D2
:10109000EE24EA942FEF4EEF6FEB8FEF0E94A60045
:1010A0000E94B6018823D1F50E9479006C012FEFD0
:1010B0004EEF6FEF8FEF0E94A6000E94B6018823CB
:1010C00069F50E9479006C012FEF4FEF6FEF8FEF02
:1010D0000E94A6000E94B601882301F580911601A6
:1010E0000E94510C20910A0130910B018217930745
:1010F00024F410921D0110921C0180911C0190910A
:101100001D01019690931D0180931C0180911C018B
:1011100090911D01181619060CF017CD10921D01A3
:1011200010921C0121C10E9479006C01EE24EA9406
:101130000FEF2FEF4FEF6FEF8FEF0E94A6000E948F
:10114000B601882309F017C10E9479006C017DEF78
:10115000E72E2FEF4FEF6FEF8FEF0E94A6000E9458
:10116000B601882309F007C10E9479006C01EE24C2
:10117000EA942FEF4FEF6FEF8FEB0E94A6000E94D3
:10118000B601882309F0F7C00E9479006C010EEFC8
:101190002FEF4FEF6FEF8FEF0E94A6000E94B60176
:1011A000882309F0E8C00E9479006C010FEF2FEF4F
:1011B0004FEB6FEF8FEF0E94A6000E94B6018823CD
:1011C00009F0D9C00E9479006C016BEFE62E2FEF79
:1011D0004FEF6FEF8FEF0E94A6000E94B6018823A9
:1011E00009F0C9C00E9479006C01EE24EA942FEE48
:1011F0004FEF6FEF8FEF0E94A6000E94B601882389
:1012000009F0B9C00E9479006C012FEF4FEF6FED2C
:101210008FEF0E94A6000E94B601882309F0ABC0A0
:101220000E9479006C015EEFE52E2FEF4FEF6FEF1C
:101230008FEF0E94A6000E94B601882309F09BC090
:101240000E9479006C01EE24EA942FEF4DEF6FEFCE
:101250008FEF0E94A6000E94B601882309F08BC080
:101260000E9479006C012BEF4FEF6EEF8FEF0E9421
:10127000A6000E94B601882309F07DC00E94790073
:101280006C014FEBE42E2FEF4FEF6FEF8FEF0E94CB
:10129000A6000E94B601882309F06DC00E94790063
:1012A0006C01EE24EA942FEF4FEF6FEF8FEF0E9467
:1012B000A6000E94B601882309F05DC00E94790053
:1012C0006C0107EF2FEF4FEF6FEF8FEF0E94A6003B
:1012D0000E94B601882309F04EC00E9479006C017B
:1012E0000FEF2FEF4FEF6FEF8FEE0E94A6000E94DF
:1012F000B601882309F03FC00E9479006C012FEFEE
:101300004DEF6FEF8FEF0E94A6000E94B601882379
:1013100091F5809116010E94510C20910A013091A3
:101320000B018217930724F410921D0110921C01E7
:10133000809116010E94510C20910A0130910B01FD
:101340008217930744F080912001813021F410929C
:101350001D0110921C0180911C0190911D010196AC
:1013600090931D0180931C0180911C0190911D019F
:1013700004970CF4D8CE10921D0110921C0139C1B3
:10138000809116010E94510C20910A0130910B01AD
:10139000821793070CF469C180912001813009F014
:1013A00064C173C10E9479006C01EE2400E020E06A
:1013B00040E060E08EEF0E94A6000E94B601882304
:1013C00009F063C10E9479006C0120E040E068EF01
:1013D0008FEF0E94A6000E94B601882309F055C134
:1013E0000E9479006C0120E040EF6FEF8FEF0E94C8
:1013F000A6000E94B601882309F047C10E94790027
:101400006C0120EC4FEF6FEF8FEF0E94A6000E945F
:10141000B601882309F039C10E9479006C0100E807
:101420002FEF4FEF6FEF8FEF0E94A6000E94B601E3
:10143000882309F02AC10E9479006C010EEF2FEF7A
:101440004FEF6FEF8FEF0E94A6000E94B601882336
:1014500009F01BC10E9479006C0130EFE32E0FEF01
:101460002FEF4FEF6FEF8FEF0E94A6000E94B601A3
:10147000882309F00AC10E9479006C012CEFE22E4A
:101480002FEF4FEF6FEF8FEF0E94A6000E94B60183
:10149000882309F0FAC00E9479006C01EE24EA94D6
:1014A0002FEF4FEF6FEF8FEF0E94A6000E94B60163
:1014B000882309F0EAC00E9479006C019CEFE92EB4
:1014C0002FEF4FEF6FEF8FEF0E94A6000E94B60143
:1014D000882309F0DAC00E9479006C0180EFE82EC1
:1014E0002FEF4FEF6FEF8FEF0E94A6000E94B60123
:1014F000882309F0CAC00E9479006C01EE240EEF27
:101500002FEF4FEF6FEF8FEF0E94A6000E94B60102
:10151000882309F0BAC00E9479006C0100E82FEF1F
:101520004FEF6FEF8FEF0E94A6000E94B601882355
:1015300009F0ABC00E9479006C0100E020EC4FEF95
:101540006FEF8FEF0E94A6000E94B601882309F07A
:101550009CC00E9479006C0120E040EF6FEF8FEF9C
:101560000E94A6000E94B601882309F08EC00E9446
:1015700079006C0120E040E068EF8FEF0E94A60048
:101580000E94B601882309F080C00E9479006C0196
:1015900020E040E060E08EEF0E94A6000E94B601CD
:1015A000882309F072C00E9479006C0120E040E0BD
:1015B00060E080E00E94A6000E94B601882309F046
:1015C00064C0809116010E94510C20910A01309153
:1015D0000B018217930724F410921D0110921C0135
:1015E00080911C0190911D01019690931D018093A3
:1015F0001C0180911C0190911D0103970CF4C0CE39
:1016000044C00E9479006C01EE2400E020E040E03C
:1016100060E080E80E94A6000E94B601882311F4D1
:101620000C942602DDC90E9479006C01EE2400E0D2
:1016300020E040E060E08EEF0E94A6000E94B6012C
:10164000882309F4E4C97CCA0E9479006C01EE2465
:1016500000E020E040E060E080E00E94A6000E9400
:10166000B601882309F483CA59CD0E9479006C0120
:10167000EE2400E020E040E060E080E00E94A60070
:101680000E94B601882309F48DCE0F91EF90DF9070
:10169000CF90089560E875E280E090E00E94780DB8
:1016A00061E0809100010E94C30C61E0809104011F
:1016B0000E94C30C61E0809102010E94C30C61E0B2
:1016C000809106010E94C30C60E0809108010E9495
:1016D000C30C08950E94140C0E944A0B0E94090238
:1016E000FDCF1F920F920FB60F9211242F938F935D
:1016F0009F93AF93BF9380912B0190912C01A09168
:101700002D01B0912E018050904CAF4FBF4F809370
:101710002B0190932C01A0932D01B0932E0127C093
:1017200080912B0190912C01A0912D01B0912E015F
:1017300080589E43A040B04080932B0190932C0191
:10174000A0932D01B0932E0180912F019091300133
:10175000A0913101B09132010196A11DB11D80937C
:101760002F0190933001A0933101B0933201809109
:101770002B0190912C01A0912D01B0912E01815847
:101780009E43A040B04060F6BF91AF919F918F9172
:101790002F910F900FBE0F901F9018958FB7F89450
:1017A00020912F013091300140913101509132014F
:1017B0008FBFB901CA010895EF92FF920F931F9353
:1017C0007B018C018FB7F89440912F01509130012B
:1017D00060913101709132018FBF2FB7F8948091E1
:1017E0002F0190913001A0913101B09132012FBFB2
:1017F000841B950BA60BB70B8E159F05A007B10791
:1018000060F31F910F91FF90EF900895019759F0A9
:10181000FC01EE0FFF1FEE0FFF1F32978FB7F894FA
:101820003197F1F78FBF0895789484B5826084BDB5
:1018300084B5816084BD85B5826085BD85B58160D4
:1018400085BDEEE6F0E0808181608083E1E8F0E034
:10185000808182608083808181608083E0E8F0E025
:10186000808181608083E1EBF0E08081846080830F
:10187000E0EBF0E0808181608083EAE7F0E0808146
:1018800084608083808182608083808181608083A6
:101890008081806880831092C10008958093140134
:1018A00008958F70909114019295990F990F907CE3
:1018B000982B90937C0080917A00806480937A00CA
:1018C00080917A0086FDFCCF2091780040917900CC
:1018D000942F80E030E0282B392BC90108951F9305
:1018E000CF93DF93182FEB0161E00E94C30CE12F2F
:1018F000F0E0E156FF4F8491833051F480918000F5
:10190000806880938000D0938900C093880037C09E
:10191000843051F480918000806280938000D09365
:101920008B00C0938A002BC0813029F484B5806875
:1019300084BDC7BD24C0823029F484B5806284BDD3
:10194000C8BD1DC0863041F48091B000806880938E
:10195000B000C093B30013C0873041F48091B00051
:1019600080628093B000C093B40009C0C038D10534
:1019700014F460E001C061E0812F0E94E10CDF916E
:10198000CF911F910895282F30E0C90185579F4FAF
:10199000FC01949129583F4FF9018491882381F0EB
:1019A000E82FF0E0E859FF4FE491F0E0662329F4D6
:1019B000808190958923808308958081892B8083FD
:1019C0000895482F50E0CA0181569F4FFC01249191
:1019D000CA0185579F4FFC01949149585F4FFA0106
:1019E00034913323C1F1222331F1233021F480914A
:1019F00080008F7705C0243031F4809180008F7D86
:101A00008093800018C0213019F484B58F7704C00A
:101A1000223021F484B58F7D84BD0DC0263021F4A1
:101A20008091B0008F7705C0273029F48091B000F5
:101A30008F7D8093B000E32FF0E0E359FF4FE491F6
:101A4000F0E0662329F480819095892380830895AE
:101A50008081892B80830895482F50E0CA018156E8
:101A60009F4FFC012491CA0185579F4FFC0194911F
:101A700049585F4FFA013491332319F420E030E0E4
:101A800035C0222331F1233021F4809180008F77FB
:101A900005C0243031F4809180008F7D80938000D8
:101AA00018C0213019F484B58F7704C0223021F496
:101AB00084B58F7D84BD0DC0263021F48091B000A7
:101AC0008F7705C0273029F48091B0008F7D8093F7
:101AD000B000E32FF0E0EE58FF4FE491F0E080819A
:101AE00020E030E0892311F021E030E0C9010895C1
:101AF000EF92FF920F931F937B018C0122E030E065
:101B000040E050E00E94420E205C3D4B404F5F4F52
:101B1000CA01B901A80197010E94420EC901DA0168
:101B20000197A109B109292F3A2F4B2F552747FDBE
:101B30005A950196A11DB11D2093C5008150809337
:101B4000C400E1ECF0E08081806180838081886066
:101B500080838081806880831F910F91FF90EF9038
:101B60000895982F8091C00085FFFCCF9093C60008
:101B70000895809133019091340180589F4F2091B6
:101B8000350130913601821B930B60E870E00E94B2
:101B90002F0E089540913501509136018091330107
:101BA000909134018417950719F42FEF3FEF0FC080
:101BB000FA01E95CFE4F2081CA01019660E870E0FD
:101BC0000E942F0E909336018093350130E0C901B9
:101BD000089580913501909136019093340180935E
:101BE000330108951F920F920FB60F9211242F9375
:101BF0003F934F935F936F937F938F939F93AF9395
:101C0000BF93EF93FF934091C600E0913301F091B1
:101C10003401CF01019660E870E00E942F0E9C0114
:101C200080913501909136012817390739F0E95C28
:101C3000FE4F40833093340120933301FF91EF91A5
:101C4000BF91AF919F918F917F916F915F914F91D4
:101C50003F912F910F900FBE0F901F90189597FBFB
:101C6000092E07260AD077FD04D027D006D0002001
:101C70001AF4709561957F4F0895F6F790958195C8
:101C80009F4F089597FB092E05260ED057FD04D0CF
:101C900028D00AD0001C38F45095409530952195F5
:101CA0003F4F4F4F5F4F0895F6F790958095709591
:101CB00061957F4F8F4F9F4F0895AA1BBB1B51E12A
:101CC00007C0AA1FBB1FA617B70710F0A61BB70BAC
:101CD000881F991F5A95A9F780959095BC01CD0151
:101CE0000895A1E21A2EAA1BBB1BFD010DC0AA1F5D
:101CF000BB1FEE1FFF1FA217B307E407F50720F075
:101D0000A21BB30BE40BF50B661F771F881F991FEF
:101D10001A9469F760957095809590959B01AC0138
:0A1D2000BD01CF010895F894FFCF34
:101D2A00090008000A000B000700FF03F401000085
:061D3A00C80030000100AA
:00000001FF
