:100000000C945A000C9477000C9477000C947700B1
:100010000C9477000C9477000C9477000C94770084
:100020000C9477000C9477000C9477000C94770074
:100030000C9477000C9477000C9477000C94770064
:100040000C94D1030C9477000C9477000C947700F7
:100050000C9477000C9477000C9477000C94770044
:100060000C9477000C947700000024272A000025C8
:10007000282B000023262904040404040404040299
:100080000202020202030303030303010204081035
:100090002040800102040810200102040810200002
:1000A0000000070002010000030406000000000039
:1000B0000000000011241FBECFEFD4E0DEBFCDBF93
:1000C00011E0A0E0B1E0EAECFAE002C005900D9288
:1000D000A230B107D9F711E0A2E0B1E001C01D9252
:1000E000A231B107E1F70E94CA030C9463050C9496
:1000F0000000DF92EF92FF920F931F93CF93DF9355
:10010000082FEA011092050110920401DD24D39416
:1001100020C0E62EFF24B701617070706D250E942B
:10012000CC0410E0B801617070706D2580910401FD
:10013000895F0E94CC04F594E7946E2D1595079580
:10014000809104019091050101969093050180939F
:100150000401809104019091050187309105CCF252
:10016000BE01882777FD8095982F0E943C04DF917F
:10017000CF911F910F91FF90EF90DF900895CF9353
:10018000DF93109203011092020133C040E157E265
:1001900061E081E00E94790040E157E263E083E0A2
:1001A0000E94790040E157E267E087E00E94790011
:1001B00040E157E26FE08FE00E94790040E157E2B2
:1001C0006FE18FE10E94790040E157E26FE38FE336
:1001D0000E94790040E157E26FE78FE70E947900C3
:1001E0008091020190910301019690930301809305
:1001F000020180910201909103011816190634F64C
:100200001092030110920201C6EFDFEF8DC08C9FA8
:10021000A0018D9F500D9C9F500D112448535F4F9E
:1002200060E080E00E9479008091020190910301DA
:100230008C9FA0018D9F500D9C9F500D1124485301
:100240005F4F61E081E00E9479008091020190910E
:1002500003018C9FA0018D9F500D9C9F500D112478
:1002600048535F4F63E083E00E9479008091020170
:10027000909103018C9FA0018D9F500D9C9F500D6C
:10028000112448535F4F67E087E00E947900809116
:100290000201909103018C9FA0018D9F500D9C9FA6
:1002A000500D112448535F4F6FE08FE00E9479009A
:1002B00080910201909103018C9FA0018D9F500DB0
:1002C0009C9F500D112448535F4F6FE18FE10E94B6
:1002D000790080910201909103018C9FA0018D9F74
:1002E000500D9C9F500D112448535F4F6FE38FE3D7
:1002F0000E94790080910201909103018C9FA001DE
:100300008D9F500D9C9F500D112448535F4F6FE7F8
:100310008FE70E947900809102019091030101967C
:100320009093030180930201809102019091030157
:10033000853191050CF46BCF1092030110920201EC
:10034000C6E0D0E0A1C1D0930701C093060140E60A
:1003500050E061E080E00E94790080910601909178
:100360000701880F991FAC01E3E0440F551FEA9580
:10037000E1F7481B590B62E080E00E947900809110
:10038000060190910701AC01440F551F480F591FFA
:10039000440F551F440F551F64E080E00E94790010
:1003A0008091060190910701AC0133E0440F551F85
:1003B0003A95E1F7880F991F480F591F68E080E0D0
:1003C0000E947900409106015091070183E0440F9B
:1003D000551F8A95E1F760E180E00E9479008091E5
:1003E000060190910701AC01440F551F480F591F9A
:1003F000440F551F60E280E00E94790040910601A1
:1004000050910701440F551F440F551F60E480E0D1
:100410000E9479004091060150910701440F551F39
:10042000440F551F60E080E40E947900809106012E
:1004300090910701AC01440F551F480F591F440FFD
:10044000551F60E080E20E947900409106015091C2
:10045000070133E0440F551F3A95E1F760E080E172
:100460000E9479008091060190910701AC0123E080
:10047000440F551F2A95E1F7880F991F480F591F00
:1004800060E088E00E947900809106019091070168
:10049000AC01440F551F480F591F440F551F440FFF
:1004A000551F60E084E00E947900809106019091E0
:1004B0000701880F991FAC0173E0440F551F7A950F
:1004C000E1F7481B590B60E082E00E9479004091FF
:1004D00006015091070164E0440F551F6A95E1F74A
:1004E00060E081E00E94790080910601909107010F
:1004F000880F991FAC0133E0440F551F3A95E1F77F
:10050000481B590B60E082E00E947900809106014F
:1005100090910701AC01440F551F480F591F440F1C
:10052000551F440F551F60E084E00E9479008091C0
:10053000060190910701AC01B3E0440F551FBA9535
:10054000E1F7880F991F480F591F60E088E00E946B
:1005500079004091060150910701F3E0440F551FC7
:10056000FA95E1F760E080E10E9479008091060150
:1005700090910701AC01440F551F480F591F440FBC
:10058000551F60E080E20E94790040910601509181
:100590000701440F551F440F551F60E080E40E947F
:1005A00079004091060150910701440F551F440FF7
:1005B000551F60E480E00E947900809106019091CF
:1005C0000701AC01440F551F480F591F440F551F19
:1005D00060E280E00E94790040910601509107019D
:1005E000A3E0440F551FAA95E1F760E180E00E9467
:1005F00079008091060190910701AC01F3E0440F6E
:10060000551FFA95E1F7880F991F480F591F68E0A9
:1006100080E00E9479008091060190910701AC0171
:10062000440F551F480F591F440F551F440F551FA6
:1006300064E080E00E9479008091060190910701BA
:10064000880F991FAC0133E0440F551F3A95E1F72D
:10065000481B590B62E080E00E947900409106013E
:100660005091070124E0440F551F2A95E1F761E0FE
:1006700080E00E947900809102019091030101962F
:1006800090930301809302018091020190910301F4
:1006900044970CF458CE4CEB52E061E080E00E94AD
:1006A0007900109203011092020115C04AEF50E048
:1006B0006AE285E50E9479004AEF50E065E58AE24A
:1006C0000E9479008091020190910301019690931C
:1006D00003018093020180910201909103014497EC
:1006E0002CF310920301109202012DC044E650E059
:1006F00061E481E40E94790044E650E062E282E233
:100700000E94790044E650E064E184E10E947900AF
:1007100044E650E068E088E00E94790044E650E05A
:1007200064E184E10E94790044E650E062E282E202
:100730000E947900809102019091030101969093AB
:10074000030180930201809102019091030144977B
:100750006CF2DF91CF910895109203011092020183
:100760000DC061E0822F0E94AE0480910201909141
:1007700003010196909303018093020120910201ED
:1007800030910301809100019091010128173907F0
:1007900044F308950E9474040E94AC030E94BF00B9
:1007A000FDCF1F920F920FB60F9211242F938F93AC
:1007B0009F93AF93BF9380910A0190910B01A091F9
:1007C0000C01B0910D018050904CAF4FBF4F809302
:1007D0000A0190930B01A0930C01B0930D0127C067
:1007E00080910A0190910B01A0910C01B0910D0133
:1007F00080549F41A040B04080930A0190930B0128
:10080000A0930C01B0930D0180910E0190910F0106
:10081000A0911001B09111010196A11DB11D80930D
:100820000E0190930F01A0931001B09311018091DC
:100830000A0190910B01A0910C01B0910D0181541E
:100840009F41A040B04060F6BF91AF919F918F91C2
:100850002F910F900FBE0F901F9018958FB7F8949F
:1008600020910E0130910F01409110015091110122
:100870008FBFB901CA010895EF92FF920F931F93A2
:100880007B018C018FB7F89440910E0150910F01BC
:1008900060911001709111018FBF2FB7F894809172
:1008A0000E0190910F01A0911001B09111012FBF85
:1008B000841B950BA60BB70B8E159F05A007B107E0
:1008C00060F31F910F91FF90EF900895019759F0F9
:1008D000019749F0FC01EE0FFF1F31978FB7F89495
:1008E0003197F1F78FBF0895789484B5826084BD05
:1008F00084B5816084BD85B5826085BD85B5816024
:1009000085BDEEE6F0E0808181608083E1E8F0E083
:10091000808182608083808181608083E0E8F0E074
:10092000808181608083E1EBF0E08081846080835E
:10093000E0EBF0E0808181608083EAE7F0E0808195
:1009400084608083808182608083808181608083F5
:100950008081806880831092C1000895282F30E044
:10096000C90185579F4FFC01949129583F4FF901C8
:100970008491882381F0E82FF0E0E859FF4FE4915B
:10098000F0E0662329F4808190958923808308957F
:100990008081892B80830895482F50E0CA018156B9
:1009A0009F4FFC012491CA0185579F4FFC019491F0
:1009B00049585F4FFA0134913323C1F1222331F1B9
:1009C000233021F4809180008F7705C0243031F4EA
:1009D000809180008F7D8093800018C0213019F4B1
:1009E00084B58F7704C0223021F484B58F7D84BD17
:1009F0000DC0263021F48091B0008F7705C02730DC
:100A000029F48091B0008F7D8093B000E32FF0E057
:100A1000E359FF4FE491F0E0662329F4808190953B
:100A20008923808308958081892B80830895482FAE
:100A300050E0CA0181569F4FFC012491CA0185579D
:100A40009F4FFC01949149585F4FFA013491332331
:100A500019F420E030E035C0222331F1233021F4B5
:100A6000809180008F7705C0243031F48091800020
:100A70008F7D8093800018C0213019F484B58F7762
:100A800004C0223021F484B58F7D84BD0DC0263092
:100A900021F48091B0008F7705C0273029F4809130
:100AA000B0008F7D8093B000E32FF0E0EE58FF4F51
:100AB000E491F0E0808120E030E0892311F021E032
:0A0AC00030E0C9010895F894FFCF5B
:020ACA000E001C
:00000001FF
