:100000000C945A000C9477000C9477000C947700B1
:100010000C9477000C9477000C9477000C94770084
:100020000C9477000C9477000C9477000C94770074
:100030000C9477000C9477000C9477000C94770064
:100040000C94A3140C9477000C9424170C94770050
:100050000C9477000C9477000C9477000C94770044
:100060000C9477000C947700000024272A000025C8
:10007000282B000023262904040404040404040299
:100080000202020202030303030303010204081035
:100090002040800102040810200102040810200002
:1000A0000000070002010000030406000000000039
:1000B0000000000011241FBECFEFD4E0DEBFCDBF93
:1000C00011E0A0E0B1E0EEE8FFE202C005900D9281
:1000D000AE31B107D9F711E0AEE1B1E001C01D9238
:1000E000A13CB107E1F70E949C140C94C5170C9435
:1000F000000080911E010E94831520910A01309119
:100100000B01821793072CF080911801909119012F
:10011000089580911E010E948315089560E08091EA
:1001200004010E94131680911601909117010E94FC
:10013000381561E0809104010E9413168091160128
:1001400090911701880F991F0E94381560E08091E7
:1001500004010E94131680911601909117010E94CC
:10016000381561E0809106010E94131680911401F8
:10017000909115010E94381508959F92AF92BF92F9
:10018000CF92DF92EF92FF920F931F93982EA62E9D
:10019000B42EF22E1E2D109223011092220112C0B5
:1001A000612F6170809100010E94131616950E94C4
:1001B0008E0080912201909123010196909323015A
:1001C000809322018091220190912301089744F3AA
:1001D000109223011092220112C0602F6170809151
:1001E00000010E94131606950E948E008091220144
:1001F0009091230101969093230180932201809195
:10020000220190912301089744F310922301109248
:10021000220112C06F2D6170809100010E9413169F
:10022000F6940E948E008091220190912301019604
:1002300090932301809322018091220190912301C8
:10024000089744F3109223011092220112C06B2DE3
:100250006170809100010E941316B6940E948E0076
:100260008091220190912301019690932301809324
:1002700022018091220190912301089744F310926A
:1002800023011092220112C06A2D61708091000139
:100290000E941316A6940E948E00809122019091D4
:1002A00023010196909323018093220180912201E2
:1002B00090912301089744F3109223011092220198
:1002C00028C0692D6170809100010E9413168091F1
:1002D000220190912301079781F460E0809106014B
:1002E0000E94131680911001909111010E943815FF
:1002F00061E0809102010E94131696940E948E0084
:100300008091220190912301019690932301809383
:1003100022018091220190912301089794F280910B
:100320001201909113010E94381560E08091020142
:100330000E941316B601882777FD8095982F0E949A
:100340000E151F910F91FF90EF90DF90CF90BF900F
:10035000AF909F9008951F93809108010E945E16B0
:10036000182F80932601813009F042C08091270127
:100370008823F1F50E9400152091290130912A016E
:1003800040912B0150912C01621B730B840B950B38
:1003900020910C0130910D0140910E0150910F01FF
:1003A000261737074807590718F5109226010E94AB
:1003B00000156093290170932A0180932B0190937B
:1003C0002C0180911E010E94831520910A01309119
:1003D0000B01821793074CF080912801882319F4B0
:1003E0001093280102C01092280181E01F91089506
:1003F000809126018093270180E0F8CFCF92DF9291
:10040000EF920F93CF93DF93109225011092240166
:10041000CFEFDFEF5AC080911E010E94831520911B
:100420000A0130910B018217930714F40C94E41322
:1004300080912801813011F00C94E4134EC00E9489
:1004400079006C01EE24E39400E020E040E060E0FD
:1004500080E00E94BD000E94AB018823F1F50E945C
:1004600079006C0163E0E62E20E040E060E080E08F
:100470000E94BD000E94AB01882379F50E9479009B
:100480006C0152E0E52E20E040E060E080E00E9458
:10049000BD000E94AB01882301F580911E010E94DE
:1004A000831520910A0130910B018217930724F4E0
:1004B000D0932501C09324018091240190912501BE
:1004C00001969093250180932401809124019091BD
:1004D0002501181619060CF09ECF109225011092D6
:1004E0002401CFEFDFEFD6C280911E010E94831559
:1004F00020910A0130910B018217930714F40C9498
:10050000F81380912801813011F00C94F813CAC2BD
:100510000E9479006C01EE2400E020E040E060E001
:1005200080E40E94BD000E94AB01882309F0BAC29A
:100530000E9479006C0120E040E060E080E20E94CF
:10054000BD000E94AB01882309F0ACC20E94790073
:100550006C0120E040E060E080E10E94BD000E946C
:10056000AB01882309F09EC20E9479006C0120E053
:1005700040E060E088E00E94BD000E94AB0188235B
:1005800009F090C20E9479006C0120E040E060E038
:1005900084E00E94BD000E94AB01882309F082C262
:1005A0000E9479006C0120E040E060E082E00E945F
:1005B000BD000E94AB01882309F074C20E9479003B
:1005C0006C0120E040E060E081E00E94BD000E94FC
:1005D000AB01882309F066C20E9479006C0120E01B
:1005E00040E060E880E00E94BD000E94AB018823EB
:1005F00009F058C20E9479006C0120E040E060E4FC
:1006000080E00E94BD000E94AB01882309F04AC22D
:100610000E9479006C0120E040E060E280E00E94EE
:10062000BD000E94AB01882309F03CC20E94790002
:100630006C0120E040E060E180E00E94BD000E948B
:10064000AB01882309F02EC20E9479006C0120E0E2
:1006500040E068E080E00E94BD000E94AB0188237A
:1006600009F020C20E9479006C0120E040E064E0C3
:1006700080E00E94BD000E94AB01882309F012C2F5
:100680000E9479006C0120E040E062E080E00E947E
:10069000BD000E94AB01882309F004C20E947900CA
:1006A0006C0120E040E061E080E00E94BD000E941B
:1006B000AB01882309F0F6C10E9479006C0120E0AB
:1006C00040E860E080E00E94BD000E94AB0188230A
:1006D00009F0E8C10E9479006C0120E040E460E08C
:1006E00080E00E94BD000E94AB01882309F0DAC1BE
:1006F0000E9479006C0120E040E260E080E00E940E
:10070000BD000E94AB01882309F0CCC10E94790092
:100710006C0120E040E160E080E00E94BD000E94AA
:10072000AB01882309F0BEC10E9479006C0120E072
:1007300048E060E080E00E94BD000E94AB01882399
:1007400009F0B0C10E9479006C0120E044E060E053
:1007500080E00E94BD000E94AB01882309F0A2C185
:100760000E9479006C0120E042E060E080E00E949D
:10077000BD000E94AB01882309F094C10E9479005A
:100780006C0120E041E060E080E00E94BD000E943A
:10079000AB01882309F086C10E9479006C0120E832
:1007A00040E060E080E00E94BD000E94AB01882331
:1007B00009F078C10E9479006C0120E440E060E01B
:1007C00080E00E94BD000E94AB01882309F06AC14D
:1007D0000E9479006C0120E240E060E080E00E942D
:1007E000BD000E94AB01882309F05CC10E94790022
:1007F0006C0120E140E060E080E00E94BD000E94CA
:10080000AB01882309F04EC10E9479006C0128E0F9
:1008100040E060E080E00E94BD000E94AB018823C0
:1008200009F040C10E9479006C0124E040E060E0E2
:1008300080E00E94BD000E94AB01882309F032C114
:100840000E9479006C0122E040E060E080E00E94BC
:10085000BD000E94AB01882309F024C10E947900E9
:100860006C0121E040E060E080E00E94BD000E9459
:10087000AB01882309F016C10E9479006C0100E8E1
:1008800020E040E060E080E00E94BD000E94AB01FB
:10089000882309F007C10E9479006C0100E420E080
:1008A00040E060E080E00E94BD000E94AB01882330
:1008B00009F0F8C00E9479006C0100E220E040E0FD
:1008C00060E080E00E94BD000E94AB01882309F037
:1008D000E9C00E9479006C0100E120E040E060E0A6
:1008E00080E00E94BD000E94AB01882309F0DAC0BD
:1008F0000E9479006C0108E020E040E060E080E0C8
:100900000E94BD000E94AB01882309F0CBC00E9469
:1009100079006C0104E020E040E060E080E00E94AB
:10092000BD000E94AB01882309F0BCC00E94790081
:100930006C0102E020E040E060E080E00E94BD0049
:100940000E94AB01882309F0ADC00E9479006C01C0
:1009500001E020E040E060E080E00E94BD000E94F5
:10096000AB01882309F09EC00E9479006C0140E829
:10097000E42E00E020E040E060E080E00E94BD0066
:100980000E94AB01882309F08DC00E9479006C01A0
:1009900030E4E32E20E040E060E080E00E94BD0013
:1009A0000E94AB01882309F07DC00E9479006C0190
:1009B00020E2E22E20E040E060E080E00E94BD0006
:1009C0000E94AB01882309F06DC00E9479006C0180
:1009D00090E1E92E20E040E060E080E00E94BD0070
:1009E0000E94AB01882309F05DC00E9479006C0170
:1009F00088E0E82E20E040E060E080E00E94BD005A
:100A00000E94AB01882309F04DC00E9479006C015F
:100A1000B4E0EB2E20E040E060E080E00E94BD000A
:100A20000E94AB018823F1F50E9479006C01A2E0DD
:100A3000EA2E20E040E060E080E00E94BD000E94DD
:100A4000AB01882379F50E9479006C01EE24E394D0
:100A500020E040E060E080E00E94BD000E94AB0129
:100A6000882301F580911E010E94831520910A01BF
:100A700030910B018217930724F4D0932501C09382
:100A800024018091240190912501019690932501E4
:100A90008093240180912401909125011816190654
:100AA0000CF022CD1092250110922401CFEFDFEF40
:100AB000A6C080911E010E94831520910A013091E9
:100AC0000B018217930714F40C940B1480912801E6
:100AD000813011F00C940B1499C00E9479006C01C4
:100AE000EE2400E020E040E068EF81E00E94BD00DD
:100AF0000E94AB01882309F089C00E9479006C0133
:100B000020E040EF67E080E00E94BD000E94AB0162
:100B1000882309F07BC00E9479006C0120EC4FE033
:100B200060E080E00E94BD000E94AB01882309F0D4
:100B30006DC00E9479006C0100E82FE340E060E0A6
:100B400080E00E94BD000E94AB01882309F05EC0D6
:100B50000E9479006C010EE720E040E060E080E058
:100B60000E94BD000E94AB01882309F04FC00E9483
:100B700079006C01FCECEF2E01E020E040E060E049
:100B800080E00E94BD000E94AB01882309F03EC0B6
:100B90000E9479006C01E0E3EE2E00E020E040E0EE
:100BA00060E080E00E94BD000E94AB01882371F5E7
:100BB0000E9479006C0173E0E72E20E040E060E0E5
:100BC00080E00E94BD000E94AB018823F9F480916F
:100BD0001E010E94831520910A0130910B0182179A
:100BE000930724F4D0932501C0932401809124011C
:100BF0009091250101969093250180932401809185
:100C00002401909125010A970CF453CF10922501ED
:100C100010922401CFEFDFEFAEC580911E010E943C
:100C2000831520910A0130910B018217930714F468
:100C30000C941E1480912801813011F00C941E1424
:100C4000A2C50E9479006C01EE2400E020E040E0A3
:100C500060E280E00E94BD000E94AB01882309F0A1
:100C600092C50E9479006C0168E0E62E20E040E029
:100C700060E280E00E94BD000E94AB01882309F081
:100C800082C50E9479006C015AE0E52E20E040E028
:100C900060E280E00E94BD000E94AB01882309F061
:100CA00072C50E9479006C0120E044E060E280E0BF
:100CB0000E94BD000E94AB01882309F064C50E9418
:100CC00079006C0120E044E060E281E00E94BD0018
:100CD0000E94AB01882309F056C50E9479006C017F
:100CE00020E444E060E281E00E94BD000E94AB018C
:100CF000882309F048C50E9479006C0124E444E08F
:100D000060E281E00E94BD000E94AB01882309F0EF
:100D10003AC50E9479006C0124E444E060E281E479
:100D20000E94BD000E94AB01882309F02CC50E94DF
:100D300079006C0124E444E060E283E40E94BD0099
:100D40000E94AB01882309F01EC50E9479006C0146
:100D500000E424E444E060E283E40E94BD000E94D9
:100D6000AB01882309F00FC50E9479006C0124E4CF
:100D700044E860E283E40E94BD000E94AB01882346
:100D800009F001C50E9479006C0108E424E444E8FC
:100D900060E283E40E94BD000E94AB01882309F059
:100DA000F2C40E9479006C0124E44CE860E283E420
:100DB0000E94BD000E94AB01882309F0E4C40E9498
:100DC00079006C0124E44CE864E283E40E94BD00F5
:100DD0000E94AB01882309F0D6C40E9479006C01FF
:100DE00024E44CE86CE283E40E94BD000E94AB0165
:100DF000882309F0C8C40E9479006C0124E54CE8FE
:100E00006CE283E40E94BD000E94AB01882309F0DC
:100E1000BAC40E9479006C014AE2E42E24E54CE851
:100E20006CE283E40E94BD000E94AB01882309F0BC
:100E3000AAC40E9479006C0124E54CE86CE283E5C9
:100E40000E94BD000E94AB01882309F09CC40E944F
:100E500079006C0124E54CEA6CE283E50E94BD0058
:100E60000E94AB01882309F08EC40E9479006C01B6
:100E700024ED4CEA6CE283E50E94BD000E94AB01C8
:100E8000882309F080C40E9479006C013AEAE32EBD
:100E900024ED4CEA6CE283E50E94BD000E94AB01A8
:100EA000882309F070C40E9479006C0124ED4CEA9B
:100EB0006CE283ED0E94BD000E94AB01882309F023
:100EC00062C40E9479006C0124ED4CEE6CE283ED6B
:100ED0000E94BD000E94AB01882309F054C40E9407
:100EE00079006C012AEBE22E24ED4CEE6CE283EDEE
:100EF0000E94BD000E94AB01882309F044C40E94F7
:100F000079006C0124ED4CEF6CE283ED0E94BD0092
:100F10000E94AB01882309F036C40E9479006C015D
:100F200008EC24ED4CEF6CE283ED0E94BD000E94C2
:100F3000AB01882309F027C40E9479006C0108EDF9
:100F400024ED4CEF6CE283ED0E94BD000E94AB01EA
:100F5000882309F018C40E9479006C0109ED24ED82
:100F60004CEF6CE283ED0E94BD000E94AB01882330
:100F700009F009C40E9479006C0124ED4CEF6EE287
:100F800083ED0E94BD000E94AB01882309F0FBC3E2
:100F90000E9479006C0124EF4CEF6EE283ED0E9419
:100FA000BD000E94AB01882309F0EDC30E947900C7
:100FB0006C0124EF4CEF6EEA83ED0E94BD000E94AD
:100FC000AB01882309F0DFC30E9479006C010DEDAD
:100FD00024EF4CEF6EEA83ED0E94BD000E94AB014E
:100FE000882309F0D0C30E9479006C019AEFE92EA2
:100FF00024EF4CEF6EEA83ED0E94BD000E94AB012E
:10100000882309F0C0C30E9479006C0124EF4CEFE3
:101010006EEA8BED0E94BD000E94AB01882309F0AF
:10102000B2C30E9479006C0124EF4CEF6EEA8BEFA3
:101030000E94BD000E94AB01882309F0A4C30E9456
:1010400079006C0124EF4EEF6EEA8BEF0E94BD0039
:101050000E94AB01882309F096C30E9479006C01BD
:101060000FED24EF4EEF6EEA8BEF0E94BD000E9461
:10107000AB01882309F087C30E9479006C0126EF39
:101080004EEF6EEA8BEF0E94BD000E94AB018823F9
:1010900009F079C30E9479006C0126EF4EEF6EEBE8
:1010A0008BEF0E94BD000E94AB01882309F06BC347
:1010B0000E9479006C012EEF4EEF6EEB8BEF0E94D9
:1010C000BD000E94AB01882309F05DC30E94790036
:1010D0006C012FEF4EEF6EEB8BEF0E94BD000E9474
:1010E000AB01882309F04FC30E9479006C018BEF9C
:1010F000E82E2FEF4EEF6EEB8BEF0E94BD000E94AB
:10110000AB01882309F03FC30E9479006C012FEFE7
:101110004EEF6FEB8BEF0E94BD000E94AB01882366
:1011200009F031C30E9479006C012FEF4EEF6FEB95
:101130008FEF0E94BD000E94AB01882309F023C3FA
:101140000E9479006C010FEF2FEF4EEF6FEB8FEFE6
:101150000E94BD000E94AB01882309F014C30E94C5
:1011600079006C01EE24EA942FEF4EEF6FEB8FEFD6
:101170000E94BD000E94AB01882309F004C30E94B5
:1011800079006C012FEF4EEF6FEF8FEF0E94BD00E3
:101190000E94AB01882309F0F6C20E9479006C011D
:1011A0002FEF4FEF6FEF8FEF0E94BD000E94AB015A
:1011B000882309F0E8C20E947900AA2797FDA0952C
:1011C000BA2FBC01CD010E940E150E947900AA27FA
:1011D00097FDA095BA2FBC01CD010E940E150E946B
:1011E00079006C012FEF4FEF6FEF8FEF0E94BD0082
:1011F0000E94AB01882309F0C6C20E9479006C01ED
:101200002FEF4FEF6FEB8FEF0E94BD000E94AB01FD
:10121000882309F0B8C20E9479006C010DEF2FEF0E
:101220004FEF6FEB8FEF0E94BD000E94AB01882350
:1012300009F0A9C20E9479006C012FEF4FEF6FEB0C
:101240008FE70E94BD000E94AB01882309F09BC27A
:101250000E9479006C0127EF4FEF6FEB8FE70E9440
:10126000BD000E94AB01882309F08DC20E94790065
:101270006C010CEF27EF4FEF6FEB8FE70E94BD0083
:101280000E94AB01882309F07EC20E9479006C01A4
:101290000CEB27EF4FEF6FEB8FE70E94BD000E9432
:1012A000AB01882309F06FC20E9479006C0127EF1F
:1012B0004FEF6DEB8FE70E94BD000E94AB018823CA
:1012C00009F061C20E9479006C01BDEFEB2E27EF9F
:1012D0004FEF6DEB8FE70E94BD000E94AB018823AA
:1012E00009F051C20E9479006C0127EF4FEF6DEBBE
:1012F00087E70E94BD000E94AB01882309F043C22A
:101300000E9479006C01ADEDEA2E27EF4FEF6DEBF7
:1013100087E70E94BD000E94AB01882309F033C219
:101320000E9479006C0127EF4FEF65EB87E70E9481
:10133000BD000E94AB01882309F025C20E947900FC
:101340006C0127EF4FEE65EB87E70E94BD000E941E
:10135000AB01882309F017C20E9479006C01FDE5FA
:10136000EF2E27EF4FEE65EB87E70E94BD000E944E
:10137000AB01882309F007C20E9479006C0127EFB6
:101380004FEE65EA87E70E94BD000E94AB0188230B
:1013900009F0F9C10E9479006C01E5E5EE2E27EF16
:1013A0004FEE65EA87E70E94BD000E94AB018823EB
:1013B00009F0E9C10E9479006C0127EF4FEC65EA62
:1013C00087E70E94BD000E94AB01882309F0DBC1C2
:1013D0000E9479006C0127EF4DEC65EA87E70E94D7
:1013E000BD000E94AB01882309F0CDC10E947900A5
:1013F0006C0127EB4DEC65EA87E70E94BD000E9477
:10140000AB01882309F0BFC10E9479006C0104EB95
:1014100027EB4DEC65EA87E70E94BD000E94AB0117
:10142000882309F0B0C10E9479006C0104EA27EB1F
:101430004DEC65EA87E70E94BD000E94AB0188235E
:1014400009F0A1C10E9479006C0127EB4DEC65EA1F
:1014500085E70E94BD000E94AB01882309F093C17B
:101460000E9479006C0123EB4DEC65EA85E70E9450
:10147000BD000E94AB01882309F085C10E9479005C
:101480006C0175E1E72E23EB4DEC65EA85E70E94E0
:10149000BD000E94AB01882309F075C10E9479004C
:1014A0006C0123EB4DE465EA85E70E94BD000E94D4
:1014B000AB01882309F067C10E9479006C0100EA42
:1014C00023EB4DE465EA85E70E94BD000E94AB0175
:1014D000882309F058C10E9479006C0123EB4DE488
:1014E00061EA85E70E94BD000E94AB01882309F0F4
:1014F0004AC10E9479006C0123EB45E461EA85E76B
:101500000E94BD000E94AB01882309F03CC10E94EB
:1015100079006C0123EA45E461EA85E70E94BD0099
:101520000E94AB01882309F02EC10E9479006C0152
:1015300023EA45E461EA85E50E94BD000E94AB0113
:10154000882309F020C10E9479006C0123EA45E458
:1015500061EA85E10E94BD000E94AB01882309F089
:1015600012C10E9479006C0100E823EA45E461EAB7
:1015700085E10E94BD000E94AB01882309F003C1F0
:101580000E9479006C0161E1E62E23EA45E461EAFC
:1015900085E10E94BD000E94AB01882309F0F3C0E1
:1015A0000E9479006C0150E1E52E23EA45E461EAEE
:1015B00085E10E94BD000E94AB01882309F0E3C0D1
:1015C0000E9479006C0123EA45E461E885E10E940C
:1015D000BD000E94AB01882309F0D5C00E947900AC
:1015E0006C0122EA45E461E885E10E94BD000E94A9
:1015F000AB01882309F0C7C00E9479006C0120EA82
:1016000045E461E885E10E94BD000E94AB018823AA
:1016100009F0B9C00E9479006C01EE2420EA45E48B
:1016200061E885E10E94BD000E94AB01882309F0BA
:10163000AAC00E9479006C0120EA45E461E881E1DA
:101640000E94BD000E94AB01882309F09CC00E944B
:1016500079006C0120EA45E061E881E10E94BD006B
:101660000E94AB01882309F08EC00E9479006C01B2
:1016700020E845E061E881E10E94BD000E94AB01E5
:10168000882309F080C00E9479006C0120E845E0C1
:1016900061E880E10E94BD000E94AB01882309F04F
:1016A00072C00E9479006C0120E845E061E880E0AA
:1016B0000E94BD000E94AB01882309F064C00E9413
:1016C00079006C0120E045E061E880E00E94BD0007
:1016D0000E94AB01882309F056C00E9479006C017A
:1016E00020E041E061E880E00E94BD000E94AB0183
:1016F000882309F048C00E9479006C0120E041E095
:1017000061E080E00E94BD000E94AB018823D9F512
:101710000E9479006C0100E020E040E061E080E0A0
:101720000E94BD000E94AB01882369F50E947900E8
:101730006C0120E040E060E080E00E94BD000E947B
:10174000AB01882301F580911E010E948315209131
:101750000A0130910B018217930724F4D0932501DD
:10176000C0932401809124019091250101969093CA
:101770002501809324018091240190912501181660
:1017800019060CF04ACA1092250110922401A8C033
:1017900080911E010E94831520910A0130910B0156
:1017A0008217930714F40C9431148091280181302E
:1017B00011F00C9431149BC00E9479006C01EE244E
:1017C00008E12AE043E060E080E00E94BD000E9462
:1017D000AB01882309F08BC00E9479006C0140E8BE
:1017E000E42E04E221E944E860E080E00E94BD00CC
:1017F0000E94AB01882309F07AC00E9479006C0135
:101800003CE4E32E03EC20E648E461E680E00E943D
:10181000BD000E94AB01882309F069C00E947900D5
:101820006C0120E3E22E00E020E040E262E980E18A
:101830000E94BD000E94AB01882309F058C00E949D
:1018400079006C01EE2420E040E16CE089E20E9426
:10185000BD000E94AB01882309F049C00E947900B5
:101860006C0193E0E92E20E040E060E084E40E9417
:10187000BD000E94AB018823D1F50E9479006C0164
:10188000EE2420E040E060E082E80E94BD000E947B
:10189000AB01882361F50E9479006C0120E240E0F1
:1018A00060E080E00E94BD000E94AB018823F9F453
:1018B00080911E010E94831520910A0130910B0135
:1018C0008217930724F4109225011092240180912D
:1018D0002401909125010196909325018093240184
:1018E000809124019091250106970CF451CF10921C
:1018F00025011092240121C10E9479006C01EE247F
:10190000EA940FEF2FEF4FEF6FEF8FEF0E94BD00C4
:101910000E94AB01882309F017C10E9479006C0175
:101920008DEFE82E2FEF4FEF6FEF8FEF0E94BD008E
:101930000E94AB01882309F007C10E9479006C0165
:10194000EE24EA942FEF4FEF6FEF8FEB0E94BD0074
:101950000E94AB01882309F0F7C00E9479006C0156
:101960000EEF2FEF4FEF6FEF8FEF0E94BD000E9441
:10197000AB01882309F0E8C00E9479006C010FEFE9
:101980002FEF4FEB6FEF8FEF0E94BD000E94AB0176
:10199000882309F0D9C00E9479006C01BBEFEB2EBF
:1019A0002FEF4FEF6FEF8FEF0E94BD000E94AB0152
:1019B000882309F0C9C00E9479006C01EE24EA94E2
:1019C0002FEE4FEF6FEF8FEF0E94BD000E94AB0133
:1019D000882309F0B9C00E9479006C012FEF4FEF06
:1019E0006FED8FEF0E94BD000E94AB01882309F0CC
:1019F000ABC00E9479006C01AEEFEA2E2FEF4FEFE3
:101A00006FEF8FEF0E94BD000E94AB01882309F0A9
:101A10009BC00E9479006C01EE24EA942FEF4DEFF9
:101A20006FEF8FEF0E94BD000E94AB01882309F089
:101A30008BC00E9479006C012BEF4FEF6EEF8FEFA0
:101A40000E94BD000E94AB01882309F07DC00E9466
:101A500079006C01FFEBEF2E2FEF4FEF6FEF8FEF61
:101A60000E94BD000E94AB01882309F06DC00E9456
:101A700079006C01EE24EA942FEF4FEF6FEF8FEFB8
:101A80000E94BD000E94AB01882309F05DC00E9446
:101A900079006C0107EF2FEF4FEF6FEF8FEF0E9490
:101AA000BD000E94AB01882309F04EC00E9479005E
:101AB0006C010FEF2FEF4FEF6FEF8FEE0E94BD0025
:101AC0000E94AB01882309F03FC00E9479006C019D
:101AD0002FEF4DEF6FEF8FEF0E94BD000E94AB0123
:101AE000882391F580911E010E94831520910A019F
:101AF00030910B018217930724F410922501109264
:101B0000240180911E010E94831520910A013091C9
:101B10000B018217930744F080912801813021F452
:101B200010922501109224018091240190912501A9
:101B30000196909325018093240180912401909136
:101B4000250104970CF4D8CE10922501109224019F
:101B500065C280911E010E94831520910A01309177
:101B60000B01821793070CF48EC6809128018130F7
:101B700009F089C65AC20E9479006C01EE2400E087
:101B800020E040E060E08EEF0E94BD000E94AB01CB
:101B9000882309F04AC20E9479006C0120E040E0ED
:101BA00068EF8FEF0E94BD000E94AB01882309F00F
:101BB0003CC20E9479006C0120E040EF6FEF8FEF94
:101BC0000E94BD000E94AB01882309F02EC20E9432
:101BD00079006C0120EC4FEF6FEF8FEF0E94BD009A
:101BE0000E94AB01882309F020C20E9479006C0199
:101BF00000E82FEF4FEF6FEF8FEF0E94BD000E94C4
:101C0000AB01882309F011C20E9479006C010EEF2C
:101C10002FEF4FEF6FEF8FEF0E94BD000E94AB01DF
:101C2000882309F002C20E9479006C01ECECEE2ED0
:101C30000FEF2FEF4FEF6FEF8FEF0E94BD000E946D
:101C4000AB01882309F0F1C10E9479006C017CEF9F
:101C5000E72E2FEF4FEF6FEF8FEF0E94BD000E9436
:101C6000AB01882309F0E1C10E9479006C01EE24E8
:101C7000EA942FEF4FEF6FEF8FEF0E94BD000E94AD
:101C8000AB01882309F0D1C10E9479006C016CEF8F
:101C9000E62E2FEF4FEF6FEF8FEF0E94BD000E94F7
:101CA000AB01882309F0C1C10E9479006C015CEC92
:101CB000E52E2FEF4FEF6FEF8FEF0E94BD000E94D8
:101CC000AB01882309F0B1C10E9479006C01EE24B8
:101CD0000EEF2FEF4FEF6FEF8FEF0E94BD000E94CE
:101CE000AB01882309F0A1C10E9479006C0100E8D2
:101CF0002FEF4FEF6FEF8FEF0E94BD000E94AB01FF
:101D0000882309F092C10E9479006C0100E020EC68
:101D10004FEF6FEF8FEF0E94BD000E94AB01882351
:101D200009F083C10E9479006C0120E040EF6FEF61
:101D30008FEF0E94BD000E94AB01882309F075C19E
:101D40000E9479006C0120E040E068EF8FEF0E9474
:101D5000BD000E94AB01882309F067C10E94790091
:101D60006C0120E040E060E08EEF0E94BD000E9428
:101D7000AB01882309F059C10E9479006C0120E071
:101D800040E060E080E00E94BD000E94AB0188233B
:101D900009F04BC10E947900AA2797FDA095BA2FA0
:101DA000BC01CD010E940E150E947900AA2797FD63
:101DB000A095BA2FBC01CD010E940E150E9479009A
:101DC0006C0120E040E060E080E00E94BD000E94E5
:101DD000AB01882309F029C10E9479006C0143E01E
:101DE000E42E20E040E060E080E00E94BD000E9420
:101DF000AB01882309F019C10E9479006C0133E31B
:101E0000E32E20E040E060E080E00E94BD000E9400
:101E1000AB01882309F009C10E9479006C01EE240E
:101E2000EA9401E020E040E060E080E00E94BD0034
:101E30000E94AB01882309F0F8C00E9479006C0170
:101E40000FE720E040E060E080E00E94BD000E94DB
:101E5000AB01882309F0E9C00E9479006C010FEF03
:101E60002FE340E060E080E00E94BD000E94AB01F3
:101E7000882309F0DAC00E9479006C012FEF4FE04F
:101E800060E080E00E94BD000E94AB01882309F061
:101E9000CCC00E9479006C012FEF4FEF67E080E02B
:101EA0000E94BD000E94AB01882309F0BEC00E94C1
:101EB00079006C012FEF4FEF6FEF81E00E94BD00C2
:101EC0000E94AB01882309F0B0C00E9479006C0128
:101ED0002FEF4FEF6FEF8FEF0E94BD000E94AB011D
:101EE000882309F0A2C00E9479006C012FEF4FEF08
:101EF0006FEF81E00E94BD000E94AB01882309F0D2
:101F000094C00E9479006C012FEF4FEF67E080E0F2
:101F10000E94BD000E94AB01882309F086C00E9488
:101F200079006C012FEF4FE060E080E00E94BD007F
:101F30000E94AB01882309F078C00E9479006C01EF
:101F40002FE340E060E080E00E94BD000E94AB0112
:101F5000882309F06AC00E9479006C010FE720E035
:101F600040E060E080E00E94BD000E94AB01882359
:101F700009F05BC00E9479006C0101E020E040E0C4
:101F800060E080E00E94BD000E94AB01882309F060
:101F90004CC00E9479006C0123E3E22E00E020E0B7
:101FA00040E060E080E00E94BD000E94AB01882319
:101FB000E1F50E9479006C0193E0E92E20E040E019
:101FC00060E080E00E94BD000E94AB01882369F5BB
:101FD0000E9479006C01EE2420E040E060E080E0A7
:101FE0000E94BD000E94AB018823F9F480911E017C
:101FF0000E94831520910A0130910B0182179307EB
:1020000024F41092250110922401809124019091D2
:10201000250101969093250180932401809124014C
:102020009091250103970CF494CD10922501109204
:10203000240119C180911E010E94831520910A017B
:1020400030910B01821793070CF42EC48091280164
:10205000813009F029C40EC10E9479006C01EE2480
:1020600000E023E040E060E080E00E94BD000E94CC
:10207000AB01882309F0FEC00E9479006C0123E0C7
:1020800040E060E080E60E94BD000E94AB01882332
:1020900009F0F0C00E9479006C0180E3E82E23E093
:1020A00040E060E080E60E94BD000E94AB01882312
:1020B00009F0E0C00E9479006C0120E040EC60E093
:1020C00080E60E94BD000E94AB01882309F0D2C0C7
:1020D0000E9479006C0100E320E040EC60E080E0C9
:1020E0000E94BD000E94AB01882309F0C3C00E947A
:1020F00079006C01EE2420E040EC60E086E00E9474
:10210000BD000E94AB01882309F0B4C00E94790091
:102110006C01BCE0EB2E20E040E060E086E00E9435
:10212000BD000E94AB01882309F0A4C00E94790081
:102130006C0100E020E040E360E086E00E94BD002A
:102140000E94AB01882309F095C00E9479006C01C0
:1021500028E140E360E080E00E94BD000E94AB0106
:10216000882309F087C00E9479006C01A3E0EA2E61
:1021700028E140E360E080E00E94BD000E94AB01E6
:10218000882309F077C00E9479006C0128E140E0C3
:1021900060E680E00E94BD000E94AB01882309F048
:1021A00069C00E9479006C01F3ECEF2E20E040E062
:1021B00060E680E00E94BD000E94AB01882309F028
:1021C00059C00E9479006C01E0ECEE2E00E821E09D
:1021D00040E060E680E00E94BD000E94AB018823E1
:1021E00009F048C00E9479006C0121E040E060E005
:1021F00080E00E94BD000E94AB018823D9F50E94B7
:1022000079006C01EE2421E040E060E080E00E9473
:10221000BD000E94AB01882369F50E9479006C0122
:1022200000E020E040E060E080E00E94BD000E940D
:10223000AB018823F9F480911E010E94831520913F
:102240000A0130910B018217930724F410922501A3
:102250001092240180912401909125010196909380
:1022600025018093240180912401909125010697F6
:102270000CF4E0CE1092250110922401CFEFDFEF95
:102280009AC280911E010E94831520910A0130910B
:102290000B01821793070CF418C380912801813039
:1022A00009F013C322C30E9479006C01EE2400E000
:1022B00020E240E060E080E00E94BD000E94AB01AF
:1022C000882309F012C30E9479006C0120E340E0EA
:1022D00060E080E00E94BD000E94AB01882309F00D
:1022E00004C30E9479006C0128E140E060E080E0D6
:1022F0000E94BD000E94AB01882309F0F6C20E9433
:1023000079006C012CE040E060E080E00E94BD00BC
:102310000E94AB01882309F0E8C20E9479006C0199
:1023200026E040E060E080E00E94BD000E94AB013A
:10233000882309F0DAC20E9479006C0123E040E1B1
:1023400060E080E00E94BD000E94AB01882309F09C
:10235000CCC20E9479006C0100E821E040E360E01B
:1023600080E00E94BD000E94AB01882309F0BDC23D
:102370000E9479006C0120E040E660E080E00E946D
:10238000BD000E94AB01882309F0AFC20E94790012
:102390006C0100E020E040EC60E080E00E94BD00C5
:1023A0000E94AB01882309F0A0C20E9479006C0151
:1023B00020E040E861E080E00E94BD000E94AB01A7
:1023C000882309F092C20E9479006C0120E040E06D
:1023D00063E080E00E94BD000E94AB01882309F009
:1023E00084C20E9479006C0120E040E066E080E059
:1023F0000E94BD000E94AB01882309F076C20E94B2
:1024000079006C0120E040E064E080E00E94BD00C3
:102410000E94AB01882309F068C20E9479006C0118
:1024200020E040E060E080E80E94BD000E94AB0137
:10243000882309F05AC20E9479006C0120E040E034
:1024400060E080EC0E94BD000E94AB01882309F08F
:102450004CC20E9479006C0120E040E060E080EE18
:102460000E94BD000E94AB01882309F03EC20E9479
:1024700079006C0120E040E060E080E70E94BD0050
:102480000E94AB01882309F030C20E9479006C01E0
:1024900020E040E060E088E30E94BD000E94AB01C4
:1024A000882309F022C20E9479006C0120E040E0FC
:1024B00060E08CE10E94BD000E94AB01882309F01E
:1024C00014C20E9479006C0120E040E060E08EE0E0
:1024D0000E94BD000E94AB01882309F006C20E9441
:1024E00079006C0120E040E060E086E00E94BD00E1
:1024F0000E94AB01882309F0F8C10E9479006C01A9
:1025000020E040E060E082E00E94BD000E94AB015C
:10251000882309F0EAC10E9479006C0102E020E002
:1025200040E060E080E00E94BD000E94AB01882393
:1025300009F0DBC10E9479006C0104E020E040E07A
:1025400060E080E00E94BD000E94AB01882309F09A
:10255000CCC10E9479006C0108E020E040E060E01E
:1025600080E00E94BD000E94AB01882309F0BDC13C
:102570000E9479006C0100E120E040E060E080E032
:102580000E94BD000E94AB01882309F0AEC10E94E9
:1025900079006C0100E220E040E060E080E00E9411
:1025A000BD000E94AB01882309F09FC10E94790001
:1025B0006C0100E420E040E060E080E00E94BD00AB
:1025C0000E94AB01882309F090C10E9479006C0140
:1025D00000E020E048E060E080E00E94BD000E9452
:1025E000AB01882309F081C10E9479006C0120E0D1
:1025F0004CE060E080E00E94BD000E94AB018823B7
:1026000009F073C10E9479006C0120E046E060E0AF
:1026100080E00E94BD000E94AB01882309F065C1E3
:102620000E9479006C0120E043E060E080E00E94BD
:10263000BD000E94AB01882309F057C10E947900B8
:102640006C0120E841E060E080E00E94BD000E9453
:10265000AB01882309F049C10E9479006C0120EC8C
:1026600040E068E080E00E94BD000E94AB0188234A
:1026700009F03BC10E9479006C0120E440E068E170
:1026800080E00E94BD000E94AB01882309F02DC1AB
:102690000E9479006C0120E040E068E380E00E9445
:1026A000BD000E94AB01882309F01FC10E94790080
:1026B0006C0120E040E060E780E00E94BD000E94E5
:1026C000AB01882309F011C10E9479006C0101E07F
:1026D00020E040E060EE80E00E94BD000E94AB017F
:1026E000882309F002C10E9479006C0170E8E72E8E
:1026F00000E020E040E060EC81E00E94BD000E942C
:10270000AB01882309F0F1C00E9479006C0160E4FC
:10271000E62E20E040E060E881E00E94BD000E94DB
:10272000AB01882309F0E1C00E9479006C0154E0FC
:10273000E52E20E040E060E081E00E94BD000E94C4
:10274000AB01882309F0D1C00E9479006C0148E0F8
:10275000E42E20E040E060E080E00E94BD000E94A6
:10276000AB01882309F0C1C00E9479006C01EE24FE
:1027700020E040E060E080E00E94BD000E94AB01EC
:10278000882309F0B2C080911E010E948315209118
:102790000A0130910B018217930724F4D09325018D
:1027A000C09324018091240190912501019690937A
:1027B0002501809324018091240190912501181610
:1027C00019060CF05ECD91C00E9479006C0133E0D7
:1027D000E32E00E020E040E060E080E00E94BD00E9
:1027E0000E94AB01882311F40C941F020C946D021B
:1027F0000E9479006C01EE2400E020E040E060E0FF
:1028000080E80E94BD000E94AB01882311F40C9463
:1028100088020C9452050E9479006C01EE2400E0BD
:1028200020E040E060E08EEF0E94BD000E94AB011E
:10283000882311F40C946D050C9406060E9479000F
:102840006C01EE2400E020E040E060E080E00E94C7
:10285000BD000E94AB01882311F40C9421060C9456
:10286000C30B0E9479006C01EE2400E024E040E0FC
:1028700060E080E00E94BD000E94AB01882311F45B
:102880000C94DC0B34C80E9479006C01EE2400E04B
:1028900020E040E060E080E00E94BD000E94AB01CB
:1028A000882309F468C9C1CB0E9479006C01EE2429
:1028B00000E020E040E060E080E00E94BD000E9477
:1028C000AB01882309F4C8CBD5CC0E9479006C01F8
:1028D000EE2400E020E040E060E080E00E94BD00E7
:1028E0000E94AB01882309F4DECCDF91CF910F91D8
:1028F000EF90DF90CF90089560E875E280E090E07F
:102900000E94AA1661E0809100010E94F51561E025
:10291000809104010E94F51561E0809102010E94FE
:10292000F51561E0809106010E94F51560E0809147
:1029300008010E94F51508950E9446150E947C1416
:102940000E94FE01FDCF1F920F920FB60F9211242D
:102950002F938F939F93AF93BF9380913501909165
:102960003601A0913701B09138018050904CAF4FA3
:10297000BF4F8093350190933601A0933701B093F8
:10298000380127C08091350190913601A09137011F
:10299000B091380180589E43A040B04080933501EB
:1029A00090933601A0933701B0933801809139019B
:1029B00090913A01A0913B01B0913C010196A11D7B
:1029C000B11D8093390190933A01A0933B01B093DC
:1029D0003C018091350190913601A0913701B09171
:1029E000380181589E43A040B04060F6BF91AF913E
:1029F0009F918F912F910F900FBE0F901F90189560
:102A00008FB7F8942091390130913A0140913B0100
:102A100050913C018FBFB901CA010895EF92FF9216
:102A20000F931F937B018C018FB7F894409139016C
:102A300050913A0160913B0170913C018FBF2FB7DB
:102A4000F8948091390190913A01A0913B01B091A5
:102A50003C012FBF841B950BA60BB70B8E159F0552
:102A6000A007B10760F31F910F91FF90EF900895B9
:102A7000019759F0FC01EE0FFF1FEE0FFF1F329779
:102A80008FB7F8943197F1F78FBF0895789484B594
:102A9000826084BD84B5816084BD85B5826085BD5A
:102AA00085B5816085BDEEE6F0E080818160808340
:102AB000E1E8F0E0808182608083808181608083B2
:102AC000E0E8F0E0808181608083E1EBF0E08081EC
:102AD00084608083E0EBF0E0808181608083EAE7BE
:102AE000F0E0808184608083808182608083808147
:102AF000816080838081806880831092C100089506
:102B000080931C0108958F7090911C019295990FEC
:102B1000990F907C982B90937C0080917A00806430
:102B200080937A0080917A0086FDFCCF2091780016
:102B300040917900942F80E030E0282B392BC90197
:102B400008951F93CF93DF93182FEB0161E00E944C
:102B5000F515E12FF0E0E156FF4F8491833051F4F9
:102B600080918000806880938000D0938900C0931A
:102B7000880037C0843051F4809180008062809357
:102B80008000D0938B00C0938A002BC0813029F441
:102B900084B5806884BDC7BD24C0823029F484B563
:102BA000806284BDC8BD1DC0863041F48091B000F4
:102BB00080688093B000C093B30013C0873041F4A5
:102BC0008091B00080628093B000C093B40009C0CF
:102BD000C038D10514F460E001C061E0812F0E948B
:102BE0001316DF91CF911F910895282F30E0C9016E
:102BF00085579F4FFC01949129583F4FF9018491CB
:102C0000882381F0E82FF0E0E859FF4FE491F0E0ED
:102C1000662329F48081909589238083089580819B
:102C2000892B80830895482F50E0CA0181569F4F19
:102C3000FC012491CA0185579F4FFC01949149588A
:102C40005F4FFA0134913323C1F1222331F1233054
:102C500021F4809180008F7705C0243031F4809179
:102C600080008F7D8093800018C0213019F484B5D6
:102C70008F7704C0223021F484B58F7D84BD0DC0D0
:102C8000263021F48091B0008F7705C0273029F4D9
:102C90008091B0008F7D8093B000E32FF0E0E35986
:102CA000FF4FE491F0E0662329F480819095892319
:102CB000808308958081892B80830895482F50E078
:102CC000CA0181569F4FFC012491CA0185579F4F2D
:102CD000FC01949149585F4FFA013491332319F460
:102CE00020E030E035C0222331F1233021F48091FF
:102CF00080008F7705C0243031F4809180008F7D73
:102D00008093800018C0213019F484B58F7704C0F7
:102D1000223021F484B58F7D84BD0DC0263021F48E
:102D20008091B0008F7705C0273029F48091B000E2
:102D30008F7D8093B000E32FF0E0EE58FF4FE491D9
:102D4000F0E0808120E030E0892311F021E030E0E4
:102D5000C9010895EF92FF920F931F937B018C019D
:102D600022E030E040E050E00E947417205C3D4BD0
:102D7000404F5F4FCA01B901A80197010E94741723
:102D8000C901DA010197A109B109292F3A2F4B2F67
:102D9000552747FD5A950196A11DB11D2093C500E9
:102DA00081508093C400E1ECF0E0808180618083F9
:102DB0008081886080838081806880831F910F91EB
:102DC000FF90EF900895982F8091C00085FFFCCF71
:102DD0009093C600089580913D0190913E018058E6
:102DE0009F4F20913F0130914001821B930B60E87F
:102DF00070E00E946117089540913F015091400199
:102E000080913D0190913E018417950719F42FEFB1
:102E10003FEF0FC0FA01EF5BFE4F2081CA01019620
:102E200060E870E00E9461179093400180933F0139
:102E300030E0C901089580913F0190914001909345
:102E40003E0180933D0108951F920F920FB60F929D
:102E500011242F933F934F935F936F937F938F939F
:102E60009F93AF93BF93EF93FF934091C600E09180
:102E70003D01F0913E01CF01019660E870E00E94B3
:102E800061179C0180913F019091400128173907FB
:102E900039F0EF5BFE4F408330933E0120933D01BC
:102EA000FF91EF91BF91AF919F918F917F916F9122
:102EB0005F914F913F912F910F900FBE0F901F90F8
:102EC000189597FB092E07260AD077FD04D027D046
:102ED00006D000201AF4709561957F4F0895F6F79B
:102EE000909581959F4F089597FB092E05260ED04A
:102EF00057FD04D028D00AD0001C38F450954095D6
:102F0000309521953F4F4F4F5F4F0895F6F79095BD
:102F10008095709561957F4F8F4F9F4F0895AA1BA5
:102F2000BB1B51E107C0AA1FBB1FA617B70710F0B4
:102F3000A61BB70B881F991F5A95A9F780959095E6
:102F4000BC01CD010895A1E21A2EAA1BBB1BFD01F5
:102F50000DC0AA1FBB1FEE1FFF1FA217B307E40778
:102F6000F50720F0A21BB30BE40BF50B661F771FD0
:102F7000881F991F1A9469F76095709580959095B0
:0E2F80009B01AC01BD01CF010895F894FFCF75
:102F8E00090008000A000B000700FF0364000000A0
:0E2F9E001400140014001400C80030000100DC
:00000001FF
