:100000000C945A000C9477000C9477000C947700B1
:100010000C9477000C9477000C9477000C94770084
:100020000C9477000C9477000C9477000C94770074
:100030000C9477000C9477000C9477000C94770064
:100040000C945F060C9477000C9477000C94770066
:100050000C9477000C9477000C9477000C94770044
:100060000C9477000C947700000024272A000025C8
:10007000282B000023262904040404040404040299
:100080000202020202030303030303010204081035
:100090002040800102040810200102040810200002
:1000A0000000070002010000030406000000000039
:1000B0000000000011241FBECFEFD4E0DEBFCDBF93
:1000C00011E0A0E0B1E0E6EEFFE002C005900D9285
:1000D000AC30B107D9F711E0ACE0B1E001C01D923E
:1000E000A432B107E1F70E9458060C94F1070C9472
:1000F0000000EF92FF920F931F93CF93DF93F82EA0
:10010000EA011092110110921001EE24E39415C03F
:10011000062F10E0B801617070706E258F5F0E942D
:100120005A0715950795602F809110019091110144
:10013000019690931101809310018091100190918C
:1001400011018830910524F31092110110921001D1
:10015000EE24E39415C00F2D10E0B80161707070AB
:100160006E25875F0E945A0715950795F02E80919E
:10017000100190911101019690931101809310014B
:1001800080911001909111018430910524F3BE01FA
:10019000882777FD8095982F0E94CA06DF91CF911E
:1001A0001F910F91FF90EF900895809100010E94A0
:1001B000A50780931401813009F044C08091150196
:1001C000882309F03FC00E94BC062091160130919F
:1001D00017014091180150911901621B730B840B98
:1001E000950B209104013091050140910601509139
:1001F0000701261737074807590720F51092140101
:100200000E94BC0660931601709317018093180139
:10021000909319018091120190911301019690938E
:1002200013018093120120910201309103012817DC
:10023000390714F081E00895109213011092120111
:1002400081E00895809114018093150180E0089564
:100250008091120190911301029730F448EE53E01F
:100260006FEF8FE00E94790080911201909113014D
:100270008230910511F0892B31F448EE53E060E0B3
:1002800080E00E94790080911201909113018330E7
:10029000910519F0892B09F044C184E690E0909310
:1002A00009018093080110920F0110920E0132C1D2
:1002B000409108015091090160E080E00E947900BE
:1002C0000E94D500882309F0D1C4409108015091C3
:1002D000090160E088E00E9479000E94D50088232F
:1002E00009F0C4C4409108015091090160E084E024
:1002F0000E9479000E94D500882309F0B7C440917C
:1003000008015091090160E082E00E9479000E949A
:10031000D500882309F0AAC4409108015091090131
:1003200060E081E00E9479000E94D500882309F0F6
:100330009DC4409108015091090160E80E94790034
:100340000E94D500882309F091C440910801509182
:10035000090160E40E9479000E94D500882309F019
:1003600085C4409108015091090160E20E94790022
:100370000E94D500882309F079C44091080150916A
:10038000090160E10E9479000E94D500882309F0EC
:100390006DC4409108015091090168E00E94790004
:1003A0000E94D500882309F061C440910801509152
:1003B000090164E00E9479000E94D500882309F0B9
:1003C00055C4409108015091090162E00E947900F2
:1003D0000E94D500882309F049C44091080150913A
:1003E000090161E00E9479000E94D500882309F08C
:1003F0003DC4409108015091090162E00E947900DA
:100400000E94D500882309F031C440910801509121
:10041000090164E00E9479000E94D500882309F058
:1004200025C4409108015091090168E00E947900BB
:100430000E94D500882309F019C440910801509109
:10044000090160E10E9479000E94D500882309F02B
:100450000DC4409108015091090160E20E947900A9
:100460000E94D500882309F001C4409108015091F1
:10047000090160E40E9479000E94D500882309F0F8
:10048000F5C3409108015091090160E80E9479008C
:100490000E94D500882309F0E9C3409108015091DA
:1004A000090160E081E00E9479000E94D500882364
:1004B00009F0DCC3409108015091090160E082E03D
:1004C0000E9479000E94D500882309F0CFC3409193
:1004D00008015091090160E084E00E9479000E94C7
:1004E000D500882309F0C2C3409108015091090149
:1004F00060E088E00E9479000E94D500882309F01E
:10050000B5C380910E0190910F01019690930F0158
:1005100080930E0180910E0190910F0105970CF4CC
:10052000C7CE80911201909113018430910519F08A
:10053000892B09F05FC182E390E0909309018093D9
:10054000080110920F0110920E014DC14091080157
:100550005091090160E080E00E9479000E94D5007E
:10056000882309F083C3409108015091090160E09C
:1005700088E00E9479000E94D500882309F076C3A4
:10058000409108015091090160E08CE00E947900DF
:100590000E94D500882309F069C340910801509159
:1005A000090160E08EE00E9479000E94D500882356
:1005B00009F05CC3409108015091090160E08FE0AF
:1005C0000E9479000E94D500882309F04FC3409112
:1005D00008015091090160E88FE00E9479000E94B3
:1005E000D500882309F042C34091080150910901C8
:1005F00060EC8FE00E9479000E94D500882309F00A
:1006000035C3409108015091090160EE8FE00E94CE
:1006100079000E94D500882309F028C34091080181
:100620005091090160EF8FE00E9479000E94D5008F
:10063000882309F01BC3409108015091090168EF1C
:100640008FE00E9479000E94D500882309F00EC334
:1006500040910801509109016CEF8FE00E947900F0
:100660000E94D500882309F001C3409108015091F0
:1006700009016EEF8FE00E9479000E94D500882367
:1006800009F0F4C240910801509109016FEF8FE029
:100690000E9479000E94D500882309F0E7C24091AA
:1006A0000801509109016EEF8FE00E9479000E94CD
:1006B000D500882309F0DAC2409108015091090160
:1006C0006CEF8FE00E9479000E94D500882309F02A
:1006D000CDC2409108015091090168EF8FE00E945E
:1006E00079000E94D500882309F0C0C2409108011A
:1006F0005091090160EF8FE00E9479000E94D500BF
:10070000882309F0B3C2409108015091090160EEBD
:100710008FE00E9479000E94D500882309F0A6C2CC
:10072000409108015091090160EC8FE00E9479002E
:100730000E94D500882309F099C240910801509188
:10074000090160E88FE00E9479000E94D5008823AB
:1007500009F08CC2409108015091090160E08FE0DE
:100760000E9479000E94D500882309F07FC2409141
:1007700008015091090160E08EE00E9479000E941A
:10078000D500882309F072C24091080150910901F7
:1007900060E08CE00E9479000E94D500882309F077
:1007A00065C2409108015091090160E088E00E9413
:1007B00079000E94D500882309F058C240910801B1
:1007C0005091090160E00E9479000E94D5008823C1
:1007D00009F04CC280910E0190910F010196909307
:1007E0000F0180930E0180910E0190910F010397EC
:1007F0000CF4ACCE809112019091130185309105DB
:1008000011F0892BA1F588EC90E090930901809379
:10081000080110920F0110920E0123C040910801AF
:100820005091090165E585E00E9479000E94D5009C
:10083000882309F01BC240910801509109016AEA1E
:100840008AE00E9479000E94D500882309F00EC238
:1008500080910E0190910F01019690930F0180936A
:100860000E0180910E0190910F010F97BCF28091C3
:100870001201909113018630910519F0892B09F02E
:100880007AC088EC90E0909309018093080110925F
:100890000F0110920E0168C04091080150910901AA
:1008A00060E680E00E9479000E94D500882309F06C
:1008B000DDC1409108015091090160E90E94790071
:1008C0000E94D500882309F0D1C1409108015091C0
:1008D000090168E081E00E9479000E94D500882328
:1008E00009F0C4C1409108015091090164E082E01F
:1008F0000E9479000E94D500882309F0B7C1409179
:1009000008015091090162E084E00E9479000E9490
:10091000D500882309F0AAC140910801509109012E
:1009200061E088E00E9479000E94D500882309F0E8
:100930009DC1409108015091090160E00E94790039
:100940000E94D500882309F091C168EE73E080E031
:1009500090E00E94CA0680910E0190910F010196CD
:1009600090930F0180930E0180910E0190910F01E1
:1009700003970CF491CF809112019091130187306D
:10098000910519F0892B09F071C184E690E09093EC
:1009900009018093080110920F0110920E015FC1AE
:1009A000409108015091090160E080E00E947900C7
:1009B0000E94D500882309F059C140910801509147
:1009C000090160E084E00E9479000E94D50088233C
:1009D00009F04CC1409108015091090162E084E0A6
:1009E0000E9479000E94D500882309F03FC1409100
:1009F00008015091090162E484E00E9479000E949C
:100A0000D500882309F032C14091080150910901B5
:100A100062E486E00E9479000E94D500882309F0F4
:100A200025C1409108015091090162E586E00E94CC
:100A300079000E94D500882309F018C1409108016F
:100A40005091090163E586E00E9479000E94D5007B
:100A5000882309F00BC1409108015091090163ED11
:100A600086E00E9479000E94D500882309F0FEC02C
:100A700040910801509109016BED86E00E947900D8
:100A80000E94D500882309F0F1C0409108015091DF
:100A900009016BED8EE00E9479000E94D500882349
:100AA00009F0E4C040910801509109016BEF8EE01C
:100AB0000E9479000E94D500882309F0D7C0409198
:100AC0000801509109016FEF8EE00E9479000E94A9
:100AD000D500882309F0CAC040910801509109014E
:100AE0006FEF8FE00E9479000E94D500882309F003
:100AF000BDC0409108015091090160E00E94790059
:100B00000E94D500882309F0B1C04091080150919E
:100B100009016FEF8FE00E9479000E94D5008823C1
:100B200009F0A4C040910801509109016DEF8FE0D8
:100B30000E9479000E94D500882309F097C0409157
:100B40000801509109016DEF8EE00E9479000E942A
:100B5000D500882309F08AC040910801509109010D
:100B60006DEE8EE00E9479000E94D500882309F086
:100B70007DC040910801509109016DEE8AE00E940C
:100B800079000E94D500882309F070C040910801C7
:100B9000509109016DE68AE00E9479000E94D5001B
:100BA000882309F063C040910801509109016CE667
:100BB0008AE00E9479000E94D500882309F056C07F
:100BC00040910801509109016CE682E00E94790091
:100BD0000E94D500882309F049C040910801509136
:100BE000090168E682E00E9479000E94D50088230E
:100BF000E9F5409108015091090168E282E00E9404
:100C000079000E94D500882389F540910801509110
:100C1000090168E20E9479000E94D500882331F51D
:100C2000409108015091090168E00E9479000E94FA
:100C3000D5008823D9F4409108015091090160E062
:100C40000E9479000E94D500882381F480910E01D2
:100C500090910F01019690930F0180930E01809166
:100C60000E0190910F0102970CF49ACE089581E045
:100C700090E009C061E0822F0E943C0780910C0146
:100C800090910D01019690930D0180930C0120919C
:100C90000C0130910D0180910A0190910B01821796
:100CA000930744F760E0809100010E943C0708959B
:100CB0000E9402070E9437060E942801FDCF1F9262
:100CC0000F920FB60F9211242F938F939F93AF9390
:100CD000BF9380911C0190911D01A0911E01B091C4
:100CE0001F018050904CAF4FBF4F80931C019093D9
:100CF0001D01A0931E01B0931F0127C080911C010C
:100D000090911D01A0911E01B0911F0180549F413F
:100D1000A040B04080931C0190931D01A0931E0140
:100D2000B0931F018091200190912101A091220197
:100D3000B09123010196A11DB11D809320019093D4
:100D40002101A0932201B093230180911C01909175
:100D50001D01A0911E01B0911F0181549F41A0402F
:100D6000B04060F6BF91AF919F918F912F910F90FE
:100D70000FBE0F901F9018958FB7F8942091200107
:100D80003091210140912201509123018FBFB9017F
:100D9000CA010895EF92FF920F931F937B018C017C
:100DA0008FB7F89440912001509121016091220168
:100DB000709123018FBF2FB7F894809120019091FB
:100DC0002101A0912201B09123012FBF841B950B1B
:100DD000A60BB70B8E159F05A007B10760F31F91F7
:100DE0000F91FF90EF900895019759F0019749F006
:100DF000FC01EE0FFF1F31978FB7F8943197F1F791
:100E00008FBF0895789484B5826084BD84B5816075
:100E100084BD85B5826085BD85B5816085BDEEE602
:100E2000F0E0808181608083E1E8F0E08081826091
:100E30008083808181608083E0E8F0E08081816050
:100E40008083E1EBF0E0808184608083E0EBF0E080
:100E5000808181608083EAE7F0E080818460808324
:100E600080818260808380818160808380818068CE
:100E700080831092C1000895282F30E0C901855762
:100E80009F4FFC01949129583F4FF9018491882389
:100E900081F0E82FF0E0E859FF4FE491F0E066239D
:100EA00029F4808190958923808308958081892BFE
:100EB00080830895482F50E0CA0181569F4FFC015E
:100EC0002491CA0185579F4FFC01949149585F4F67
:100ED000FA0134913323C1F1222331F1233021F47B
:100EE000809180008F7705C0243031F4809180009C
:100EF0008F7D8093800018C0213019F484B58F77DE
:100F000004C0223021F484B58F7D84BD0DC026300D
:100F100021F48091B0008F7705C0273029F48091AB
:100F2000B0008F7D8093B000E32FF0E0E359FF4FD6
:100F3000E491F0E0662329F48081909589238083F1
:100F400008958081892B80830895482F50E0CA013D
:100F500081569F4FFC012491CA0185579F4FFC0188
:100F6000949149585F4FFA013491332319F420E0EA
:100F700030E035C0222331F1233021F4809180000C
:100F80008F7705C0243031F4809180008F7D80936D
:100F9000800018C0213019F484B58F7704C0223046
:100FA00021F484B58F7D84BD0DC0263021F480915D
:100FB000B0008F7705C0273029F48091B0008F7D75
:100FC0008093B000E32FF0E0EE58FF4FE491F0E0A3
:100FD000808120E030E0892311F021E030E0C90178
:060FE0000895F894FFCF14
:0C0FE6000D00070032000000C8000C00E5
:00000001FF
