:100000000C945A000C9477000C9477000C947700B1
:100010000C9477000C9477000C9477000C94770084
:100020000C9477000C9477000C9477000C94770074
:100030000C9477000C9477000C9477000C94770064
:100040000C948F060C9477000C9477000C94770036
:100050000C9477000C9477000C9477000C94770044
:100060000C9477000C947700000024272A000025C8
:10007000282B000023262904040404040404040299
:100080000202020202030303030303010204081035
:100090002040800102040810200102040810200002
:1000A0000000070002010000030406000000000039
:1000B0000000000011241FBECFEFD4E0DEBFCDBF93
:1000C00011E0A0E0B1E0E6E4F0E102C005900D929D
:1000D000AE30B107D9F711E0AEE0B1E001C01D923A
:1000E000A532B107E1F70E9488060C9421080C9410
:1000F0000000EF92FF920F931F93CF93DF93F82EA0
:10010000EA011092130110921201EE24E39415C03B
:10011000062F10E0B801617070706E258F5F0E942D
:100120008A0715950795602F809112019091130110
:100130000196909313018093120180911201909186
:1001400013018830910524F31092130110921201CB
:10015000EE24E39415C00F2D10E0B80161707070AB
:100160006E25875F0E948A0715950795F02E80916E
:100170001201909113010196909313018093120143
:1001800080911201909113018430910524F3BE01F6
:10019000882777FD8095982F0E94FA06DF91CF91EE
:1001A0001F910F91FF90EF9008951F938091000190
:1001B0000E94D507809316018823E1F51091040170
:1001C0001130C1F50E94EC06209117013091180101
:1001D0004091190150911A01621B730B840B950B0E
:1001E00020910501309106014091070150910801CD
:1001F0002617370748075907E8F41093160110929D
:1002000004010E94EC06609317017093180180931B
:10021000190190931A0144E650E06FEF8FE00E94BD
:10022000790044E650E06AEA8AE00E94790081E0C1
:100230001F910895809116018093040180E0F8CF0A
:100240008091140190911501029758F448EE53E003
:100250006FEF8FE00E9479000E94D500882309F09B
:100260000CC580911401909115018230910511F017
:10027000892B59F448EE53E060E080E00E94790059
:100280000E94D500882309F0F8C480911401909150
:1002900015018330910519F0892B09F053C184E6CB
:1002A00090E090930A01809309011092110110923D
:1002B000100141C14091090150910A0160E080E0C4
:1002C0000E9479000E94D500882309F0D6C440918D
:1002D000090150910A0160E088E00E9479000E94C3
:1002E000D500882309F0C9C44091090150910A0141
:1002F00060E084E00E9479000E94D500882309F024
:10030000BCC44091090150910A0160E082E00E9462
:1003100079000E94D500882309F0AFC440910901FB
:1003200050910A0160E081E00E9479000E94D500AE
:10033000882309F0A2C44091090150910A0160E8A4
:1003400080E00E9479000E94D500882309F095C4BE
:100350004091090150910A0160E480E00E94790017
:100360000E94D500882309F088C44091090150916A
:100370000A0160E280E00E9479000E94D500882393
:1003800009F07BC44091090150910A0160E180E0CD
:100390000E9479000E94D500882309F06EC4409124
:1003A000090150910A0168E080E00E9479000E94F2
:1003B000D500882309F061C44091090150910A01D8
:1003C00064E080E00E9479000E94D500882309F053
:1003D00054C44091090150910A0162E080E00E94FA
:1003E00079000E94D500882309F047C44091090193
:1003F00050910A0161E080E00E9479000E94D500DE
:10040000882309F03AC44091090150910A0162E041
:1004100080E00E9479000E94D500882309F02DC455
:100420004091090150910A0164E080E00E94790046
:100430000E94D500882309F020C440910901509101
:100440000A0168E080E00E9479000E94D5008823BC
:1004500009F013C44091090150910A0160E180E064
:100460000E9479000E94D500882309F006C44091BB
:10047000090150910A0160E280E00E9479000E9427
:10048000D500882309F0F9C34091090150910A0170
:1004900060E480E00E9479000E94D500882309F082
:1004A000ECC34091090150910A0160E880E00E948C
:1004B00079000E94D500882309F0DFC3409109012B
:1004C00050910A0160E081E00E9479000E94D5000D
:1004D000882309F0D2C34091090150910A0160E0DC
:1004E00082E00E9479000E94D500882309F0C5C3EC
:1004F0004091090150910A0160E084E00E94790076
:100500000E94D500882309F0B8C340910901509199
:100510000A0160E088E00E9479000E94D5008823EB
:1005200009F0ABC380911001909111010196909355
:100530001101809310018091100190911101059794
:100540000CF4B8CE8091140190911501843091057E
:1005500019F0892B09F060C182E390E090930A01C1
:100560008093090110921101109210014EC1409127
:10057000090150910A0160E080E00E9479000E9428
:10058000D500882309F079C34091090150910A01EF
:1005900060E088E00E9479000E94D500882309F07D
:1005A0006CC34091090150910A0160E08CE00E9407
:1005B00079000E94D500882309F05FC340910901AA
:1005C00050910A0160E08EE00E9479000E94D500FF
:1005D000882309F052C34091090150910A0160E05B
:1005E0008FE00E9479000E94D500882309F045C35E
:1005F0004091090150910A0160E88FE00E94790062
:100600000E94D500882309F038C340910901509118
:100610000A0160EC8FE00E9479000E94D5008823D7
:1006200009F02BC34091090150910A0160EE8FE05F
:100630000E9479000E94D500882309F01EC34091D2
:10064000090150910A0160EF8FE00E9479000E9439
:10065000D500882309F011C34091090150910A0186
:1006600068EF8FE00E9479000E94D500882309F08E
:1006700004C34091090150910A016CEF8FE00E9480
:1006800079000E94D500882309F0F7C24091090142
:1006900050910A016EEF8FE00E9479000E94D50010
:1006A000882309F0EAC24091090150910A016FEFD5
:1006B0008FE00E9479000E94D500882309F0DDC2F6
:1006C0004091090150910A016EEF8FE00E9479007C
:1006D0000E94D500882309F0D0C2409109015091B1
:1006E0000A016CEF8FE00E9479000E94D5008823F8
:1006F00009F0C3C24091090150910A0168EF8FE0EF
:100700000E9479000E94D500882309F0B6C240916A
:10071000090150910A0160EF8FE00E9479000E9468
:10072000D500882309F0A9C24091090150910A011E
:1007300060EE8FE00E9479000E94D500882309F0C6
:100740009CC24091090150910A0160EC8FE00E9427
:1007500079000E94D500882309F08FC240910901D9
:1007600050910A0160E88FE00E9479000E94D50054
:10077000882309F082C24091090150910A0160E08A
:100780008FE00E9479000E94D500882309F075C28D
:100790004091090150910A0160E08EE00E947900C9
:1007A0000E94D500882309F068C240910901509148
:1007B0000A0160E08CE00E9479000E94D500882345
:1007C00009F05BC24091090150910A0160E088E0A4
:1007D0000E9479000E94D500882309F04EC2409102
:1007E000090150910A0160E080E00E9479000E94B6
:1007F000D500882309F041C2809110019091110128
:1008000001969093110180931001809110019091B5
:10081000110103970CF4ABCE809114019091150156
:100820008530910511F0892BA1F588EC90E090932B
:100830000A0180930901109211011092100123C046
:100840004091090150910A0165E585E00E94790017
:100850000E94D500882309F010C2409109015091EF
:100860000A016AEA8AE00E9479000E94D500882382
:1008700009F003C2809110019091110101969093AB
:1008800011018093100180911001909111010F9737
:10089000BCF280911401909115018630910519F0F8
:1008A000892B09F07CC088EC90E090930A0180933A
:1008B000090110921101109210016AC040910901C2
:1008C00050910A0160E680E00E9479000E94D50004
:1008D000882309F0D2C14091090150910A0160E9D1
:1008E00080E00E9479000E94D500882309F0C5C1EC
:1008F0004091090150910A0168E081E00E9479006D
:100900000E94D500882309F0B8C140910901509197
:100910000A0164E082E00E9479000E94D5008823E9
:1009200009F0ABC14091090150910A0162E084E0F5
:100930000E9479000E94D500882309F09EC1409151
:10094000090150910A0161E088E00E9479000E944B
:10095000D500882309F091C14091090150910A0105
:1009600060E080E00E9479000E94D500882309F0B1
:1009700084C168EE73E080E090E00E94FA06809106
:100980001001909111010196909311018093100133
:10099000809110019091110103970CF48FCF8091F9
:1009A0001401909115018730910519F0892B09F0F8
:1009B0007EC184E690E090930A0180930901109231
:1009C0001101109210016CC14091090150910A016E
:1009D00060E080E00E9479000E94D500882309F041
:1009E0004CC14091090150910A0160E084E00E94ED
:1009F00079000E94D500882309F03FC14091090188
:100A000050910A0162E084E00E9479000E94D500C2
:100A1000882309F032C14091090150910A0162E432
:100A200084E00E9479000E94D500882309F025C146
:100A30004091090150910A0162E486E00E94790028
:100A40000E94D500882309F018C1409109015091F6
:100A50000A0162E586E00E9479000E94D5008823A1
:100A600009F00BC14091090150910A0163E586E04C
:100A70000E9479000E94D500882309F0FEC04091B1
:100A8000090150910A0163ED86E00E9479000E94FD
:100A9000D500882309F0F1C04091090150910A0165
:100AA0006BED86E00E9479000E94D500882309F052
:100AB000E4C04091090150910A016BED8EE00E9463
:100AC00079000E94D500882309F0D7C04091090120
:100AD00050910A016BEF8EE00E9479000E94D500D0
:100AE000882309F0CAC04091090150910A016FEFB3
:100AF0008EE00E9479000E94D500882309F0BDC0D5
:100B00004091090150910A016FEF8FE00E94790036
:100B10000E94D500882309F0B0C04091090150918E
:100B20000A0160E080E00E9479000E94D5008823DD
:100B300009F0A3C04091090150910A016FEF8FE0C5
:100B40000E9479000E94D500882309F096C0409148
:100B5000090150910A016DEF8FE00E9479000E9417
:100B6000D500882309F089C04091090150910A01FC
:100B70006DEF8EE00E9479000E94D500882309F075
:100B80007CC04091090150910A016DEE8EE00E94F7
:100B900079000E94D500882309F06FC040910901B7
:100BA00050910A016DEE8AE00E9479000E94D50002
:100BB000882309F062C04091090150910A016DE655
:100BC0008AE00E9479000E94D500882309F055C070
:100BD0004091090150910A016CE68AE00E94790077
:100BE0000E94D500882309F048C040910901509126
:100BF0000A016CE682E00E9479000E94D5008823F9
:100C0000E1F54091090150910A0168E682E00E94F5
:100C100079000E94D500882381F540910901509107
:100C20000A0168E282E00E9479000E94D5008823D0
:100C300021F54091090150910A0168E280E00E948B
:100C400079000E94D5008823C1F440910901509198
:100C50000A0168E080E00E9479000E94D5008823A4
:100C600061F44091090150910A0160E080E00E9426
:100C700079000E94D500882351F080911401909151
:100C800015010196909315018093140108958091A8
:100C90001001909111010196909311018093100120
:100CA000809110019091110102970CF48DCE20914A
:100CB0001401309115018091020190910301821776
:100CC000930724F41092150110921401089581E005
:100CD00090E009C061E0822F0E946C0780910E01B4
:100CE00090910F01019690930F0180930E01209136
:100CF0000E0130910F0180910B0190910C01821730
:100D0000930744F760E0809100010E946C0708950A
:100D10000E9432070E9467060E942001FDCF1F92A9
:100D20000F920FB60F9211242F938F939F93AF932F
:100D3000BF9380911D0190911E01A0911F01B09160
:100D400020018050904CAF4FBF4F80931D01909376
:100D50001E01A0931F01B093200127C080911D01A7
:100D600090911E01A0911F01B091200180549F41DC
:100D7000A040B04080931D0190931E01A0931F01DD
:100D8000B09320018091210190912201A091230133
:100D9000B09124010196A11DB11D80932101909372
:100DA0002201A0932301B093240180911D01909111
:100DB0001E01A0911F01B091200181549F41A040CC
:100DC000B04060F6BF91AF919F918F912F910F909E
:100DD0000FBE0F901F9018958FB7F89420912101A6
:100DE0003091220140912301509124018FBFB9011C
:100DF000CA010895EF92FF920F931F937B018C011C
:100E00008FB7F89440912101509122016091230104
:100E1000709124018FBF2FB7F89480912101909198
:100E20002201A0912301B09124012FBF841B950BB7
:100E3000A60BB70B8E159F05A007B10760F31F9196
:100E40000F91FF90EF900895019759F0019749F0A5
:100E5000FC01EE0FFF1F31978FB7F8943197F1F730
:100E60008FBF0895789484B5826084BD84B5816015
:100E700084BD85B5826085BD85B5816085BDEEE6A2
:100E8000F0E0808181608083E1E8F0E08081826031
:100E90008083808181608083E0E8F0E080818160F0
:100EA0008083E1EBF0E0808184608083E0EBF0E020
:100EB000808181608083EAE7F0E0808184608083C4
:100EC000808182608083808181608083808180686E
:100ED00080831092C1000895282F30E0C901855702
:100EE0009F4FFC01949129583F4FF9018491882329
:100EF00081F0E82FF0E0E859FF4FE491F0E066233D
:100F000029F4808190958923808308958081892B9D
:100F100080830895482F50E0CA0181569F4FFC01FD
:100F20002491CA0185579F4FFC01949149585F4F06
:100F3000FA0134913323C1F1222331F1233021F41A
:100F4000809180008F7705C0243031F4809180003B
:100F50008F7D8093800018C0213019F484B58F777D
:100F600004C0223021F484B58F7D84BD0DC02630AD
:100F700021F48091B0008F7705C0273029F480914B
:100F8000B0008F7D8093B000E32FF0E0E359FF4F76
:100F9000E491F0E0662329F4808190958923808391
:100FA00008958081892B80830895482F50E0CA01DD
:100FB00081569F4FFC012491CA0185579F4FFC0128
:100FC000949149585F4FFA013491332319F420E08A
:100FD00030E035C0222331F1233021F480918000AC
:100FE0008F7705C0243031F4809180008F7D80930D
:100FF000800018C0213019F484B58F7704C02230E6
:1010000021F484B58F7D84BD0DC0263021F48091FC
:10101000B0008F7705C0273029F48091B0008F7D14
:101020008093B000E32FF0E0EE58FF4FE491F0E042
:10103000808120E030E0892311F021E030E0C90117
:061040000895F894FFCFB3
:0E1046000D0007000132000000C8000C000081
:00000001FF
