:100000000C945A000C9477000C9477000C947700B1
:100010000C9477000C9477000C9477000C94770084
:100020000C9477000C9477000C9477000C94770074
:100030000C9477000C9477000C9477000C94770064
:100040000C9496040C9477000C9477000C94770031
:100050000C9477000C9477000C9477000C94770044
:100060000C9477000C947700000024272A000025C8
:10007000282B000023262904040404040404040299
:100080000202020202030303030303010204081035
:100090002040800102040810200102040810200002
:1000A0000000070002010000030406000000000039
:1000B0000000000011241FBECFEFD4E0DEBFCDBF93
:1000C00011E0A0E0B1E0E4E5FCE002C005900D9293
:1000D000A230B107D9F711E0A2E0B1E001C01D9252
:1000E000AF31B107E1F70E948F040C9428060C94FD
:1000F00000009C01220F331FC90180E19802812D6D
:10010000990B1124892B09F02160C9010895FF92F0
:100110000F931F93CF93DF93EC018B011092070194
:1001200010920601FF24F39412C0BE01617070703A
:100130006F258F5F0E949105D595C7958091060127
:100140009091070101969093070180930601809199
:100150000601909107018C3091053CF3B801882786
:1001600077FD8095982F0E940105DF91CF911F9117
:100170000F91FF900895EF92FF920F931F93CF93EB
:10018000DF937C01EB018A011092030110920201BE
:100190001AC0B801CE018E299F290E948700CC0F7A
:1001A000DD1FCE0180E19802812D990B1124892B4E
:1001B00009F0C16080910201909103010196909332
:1001C00003018093020180910201909103010C9739
:1001D00004F3DF91CF911F910F91FF90EF9008955D
:1001E000CF93DF9381E090E0909311018093100111
:1001F0001092050110920401C1E0D0E02AC0D09312
:100200000D01C0930C0142E350E061E070E0809189
:100210001001909111010E94BB00209110013091BA
:100220001101220F331FC90180E19802812D990B22
:100230001124892B09F021603093110120931001C2
:10024000809104019091050101969093050180939E
:10025000040180910401909105010C9784F2DF91D3
:10026000CF9108950F931F93CF93DF93EC018B01F0
:10027000109203011092020118C0B801CE010E9431
:100280008700CC0FDD1FCE0180E19802812D990BF4
:100290001124892B09F0C160809102019091030122
:1002A0000196909303018093020180910201909145
:1002B00003010C9714F3DF91CF911F910F910895D3
:1002C000EF92FF920F931F93CF93DF93F82EEA01E3
:1002D0001092070110920601EE24E39415C0062F38
:1002E00010E0B801617070706E258F5F0E949105FB
:1002F00015950795602F8091060190910701019651
:100300009093070180930601809106019091070167
:100310008830910524F31092070110920601EE2413
:10032000E39415C00F2D10E0B801617070706E2558
:10033000875F0E94910515950795F02E8091060123
:100340009091070101969093070180930601809197
:100350000601909107018530910524F3BE0188279D
:1003600077FD8095982F0E940105DF91CF911F9115
:100370000F91FF90EF900895CF93DF930E94F000CC
:100380001092050110920401C6EFDFEF16C08C9F9A
:10039000B0018D9F700D9C9F700D11246C597F4F83
:1003A00081E090E00E94320180910401909105016A
:1003B000019690930501809304018091040190912E
:1003C00005018A3091051CF30E94F00081E090E065
:1003D00090930F0180930E01109205011092040179
:1003E00025C068E770E080910E0190910F010E9496
:1003F000320120910E0130910F01220F331FC901EC
:1004000080E19802812D990B1124892B09F021603C
:10041000216030930F0120930E018091040190918F
:1004200005010196909305018093040180910401D8
:10043000909105010C97ACF28FEF9FEF90930F0115
:1004400080930E011092050110920401C1E0D0E0EA
:1004500026C064E670E080910E0190910F010E9429
:10046000320120910E0130910F01220F331FC9017B
:1004700080E19802812D990B1124892B09F02160CC
:100480002C273D2730930F0120930E01809104010A
:10049000909105010196909305018093040180914C
:1004A0000401909105010C97A4F20E94F0001092B3
:1004B00005011092040199C044E650E060E080E03C
:1004C0000E94600144E650E061E080E00E9460012B
:1004D00044E650E063E080E00E94600144E650E0C2
:1004E00067E080E00E94600144E650E06FE080E059
:1004F0000E94600144E650E06FE180E00E946001EC
:1005000044E650E06FE380E00E94600144E650E082
:100510006FE780E00E94600144E650E06FEF80E00A
:100520000E94600144E650E06FEF81E00E946001AC
:1005300044E650E06FEF83E00E94600144E650E043
:100540006FEF87E00E94600144E650E06FEF8FE0BC
:100550000E94600144E650E06EEF8FE00E9460016F
:1005600044E650E06CEF8FE00E94600144E650E00A
:1005700068EF8FE00E94600144E650E060EF8FE09A
:100580000E94600144E650E060EE8FE00E9460014E
:1005900044E650E060EC8FE00E94600144E650E0E9
:1005A00060E88FE00E94600144E650E060E08FE088
:1005B0000E94600144E650E060E08EE00E9460012D
:1005C00044E650E060E08CE00E94600144E650E0C8
:1005D00060E088E00E946001809104019091050133
:1005E00001969093050180930401809104019091FC
:1005F00005010A970CF460CF0E94F00010920501EB
:100600001092040115C044E650E06AEA8AE00E94B4
:10061000600144E650E065E585E00E94600180915C
:1006200004019091050101969093050180930401C6
:10063000809104019091050144972CF30E94F000F1
:10064000109205011092040151C044EF51E061E0A5
:1006500080E00E94600140E951E062E088E00E9491
:1006600060014CE251E064E084E00E94600148ECEB
:1006700050E068E082E00E94600144E650E060E102
:1006800081E00E94600142E350E060EA80E00E9465
:10069000600142E350E060E480E00E94600144E6D3
:1006A00050E060EA80E00E94600148EC50E060E1C8
:1006B00081E00E9460014CE251E068E082E00E942B
:1006C000600140E951E064E084E00E94600144EF91
:1006D00051E062E088E00E94600180910401909105
:1006E0000501019690930501809304018091040116
:1006F000909105010A970CF4A8CF0E94F000109287
:10070000050110920401C6EFDFEFE2C08C9FA0014B
:100710008D9F500D9C9F500D11244C595F4F61E0EF
:1007200080E00E94600180910401909105018C9FFE
:10073000A0018D9F500D9C9F500D11244C595F4F6F
:1007400063E088E00E9460018091040190910501BE
:100750008C9FA0018D9F500D9C9F500D11244C59D2
:100760005F4F67E08CE00E946001809104019091EE
:1007700005018C9FA0018D9F500D9C9F500D112451
:100780004C595F4F6FE08EE00E9460018091040140
:10079000909105018C9FA0018D9F500D9C9F500D45
:1007A00011244C595F4F6FE18FE00E9460018091EE
:1007B0000401909105018C9FA0018D9F500D9C9F7D
:1007C000500D11244C595F4F6FEB8FE00E94600178
:1007D00080910401909105018C9FA0018D9F500D87
:1007E0009C9F500D11244C595F4F6FEF8FE00E947A
:1007F000600180910401909105018C9FA0018D9F63
:10080000500D9C9F500D11244C595F4F6EEF87E0A7
:100810000E94600180910401909105018C9FA001CC
:100820008D9F500D9C9F500D11244C595F4F6CEFC4
:1008300083E00E94600180910401909105018C9FEA
:10084000A0018D9F500D9C9F500D11244C595F4F5E
:1008500068EF81E00E9460018091040190910501A0
:100860008C9FA0018D9F500D9C9F500D11244C59C1
:100870005F4F60EF80E00E946001809104019091E1
:1008800005018C9FA0018D9F500D9C9F500D112440
:100890004C595F4F60E680E00E9460018091040146
:1008A000909105018C9FA0018D9F500D9C9F500D34
:1008B00011244C595F4F60E080E00E9460018091FC
:1008C0000401909105010196909305018093040124
:1008D00080910401909105018A3091050CF416CFA6
:1008E000DF91CF91089581E090E009C061E0822F0F
:1008F0000E947305809102019091030101969093EB
:100900000301809302012091020130910301809143
:100910000001909101018217930744F708950E9406
:1009200039050E9473040E94BC01FDCF1F920F92F3
:100930000FB60F9211242F938F939F93AF93BF9372
:100940008091170190911801A0911901B0911A019D
:100950008050904CAF4FBF4F809317019093180178
:10096000A0931901B0931A0127C0809117019091AB
:100970001801A0911901B0911A0180549F41A04023
:10098000B0408093170190931801A0931901B09380
:100990001A0180911B0190911C01A0911D01B09141
:1009A0001E010196A11DB11D80931B0190931C0196
:1009B000A0931D01B0931E01809117019091180121
:1009C000A0911901B0911A0181549F41A040B040FB
:1009D00060F6BF91AF919F918F912F910F900FBEB5
:1009E0000F901F9018958FB7F89420911B013091AC
:1009F0001C0140911D0150911E018FBFB901CA0118
:100A00000895EF92FF920F931F937B018C018FB794
:100A1000F89440911B0150911C0160911D0170914F
:100A20001E018FBF2FB7F89480911B0190911C017C
:100A3000A0911D01B0911E012FBF841B950BA60B29
:100A4000B70B8E159F05A007B10760F31F910F919B
:100A5000FF90EF900895019759F0019749F0FC013C
:100A6000EE0FFF1F31978FB7F8943197F1F78FBFD3
:100A70000895789484B5826084BD84B5816084BD16
:100A800085B5826085BD85B5816085BDEEE6F0E007
:100A9000808181608083E1E8F0E0808182608083F2
:100AA000808181608083E0E8F0E0808181608083E4
:100AB000E1EBF0E0808184608083E0EBF0E0808116
:100AC00081608083EAE7F0E08081846080838081B8
:100AD0008260808380818160808380818068808360
:100AE0001092C1000895282F30E0C90185579F4F0B
:100AF000FC01949129583F4FF9018491882381F09A
:100B0000E82FF0E0E859FF4FE491F0E0662329F484
:100B1000808190958923808308958081892B8083AB
:100B20000895482F50E0CA0181569F4FFC0124913F
:100B3000CA0185579F4FFC01949149585F4FFA01B4
:100B400034913323C1F1222331F1233021F48091F8
:100B500080008F7705C0243031F4809180008F7D34
:100B60008093800018C0213019F484B58F7704C0B9
:100B7000223021F484B58F7D84BD0DC0263021F450
:100B80008091B0008F7705C0273029F48091B000A4
:100B90008F7D8093B000E32FF0E0E359FF4FE491A5
:100BA000F0E0662329F4808190958923808308955D
:100BB0008081892B80830895482F50E0CA01815697
:100BC0009F4FFC012491CA0185579F4FFC019491CE
:100BD00049585F4FFA013491332319F420E030E093
:100BE00035C0222331F1233021F4809180008F77AA
:100BF00005C0243031F4809180008F7D8093800087
:100C000018C0213019F484B58F7704C0223021F444
:100C100084B58F7D84BD0DC0263021F48091B00055
:100C20008F7705C0273029F48091B0008F7D8093A5
:100C3000B000E32FF0E0EE58FF4FE491F0E0808148
:100C400020E030E0892311F021E030E0C90108956F
:040C5000F894FFCF46
:020C54000C0092
:00000001FF
