:100000000C945A000C9477000C9477000C947700B1
:100010000C9477000C9477000C9477000C94770084
:100020000C9477000C9477000C9477000C94770074
:100030000C9477000C9477000C9477000C94770064
:100040000C9491050C9477000C9477000C94770035
:100050000C9477000C9477000C9477000C94770044
:100060000C9477000C947700000024272A000025C8
:10007000282B000023262904040404040404040299
:100080000202020202030303030303010204081035
:100090002040800102040810200102040810200002
:1000A0000000070002010000030406000000000039
:1000B0000000000011241FBECFEFD4E0DEBFCDBF93
:1000C00011E0A0E0B1E0EAE4FEE002C005900D928C
:1000D000AA30B107D9F711E0AAE0B1E001C01D9242
:1000E000AE31B107E1F70E948A050C9423070C9406
:1000F0000000EF92FF920F931F93CF93DF93F82EA0
:10010000EA0110920D0110920C01EE24E39415C047
:10011000062F10E0B801617070706E258F5F0E942D
:100120008C0615950795602F80910C0190910D011B
:10013000019690930D0180930C0180910C01909198
:100140000D018830910524F310920D0110920C01DD
:10015000EE24E39415C00F2D10E0B80161707070AB
:100160006E25875F0E948C0615950795F02E80916D
:100170000C0190910D01019690930D0180930C015B
:1001800080910C0190910D018430910524F3BE0102
:10019000882777FD8095982F0E94FC05DF91CF91ED
:1001A0001F910F91FF90EF900895809100010E94A0
:1001B000D70680930E01813069F580910F01882365
:1001C00049F50E94EE0520911001309111014091F6
:1001D000120150911301621B730B840B950B20913C
:1001E000020130910301409104015091050126174D
:1001F00037074807590770F410920E010E94EE0568
:100200006093100170931101809312019093130178
:1002100081E0089580910E0180930F0180E00895A0
:10022000CF93DF9340E050E06FEF8FE00E947900C2
:100230000E94D5008823E1F340E050E060E080E0D8
:100240000E9479000E94D5008823E1F3C4E6D0E043
:10025000D0930701C093060144E650E060E080E0DF
:100260000E9479000E94D500882309F017C14091AF
:1002700006015091070160E088E00E9479000E9429
:10028000D500882309F00AC1409106015091070169
:1002900060E084E00E9479000E94D500882309F084
:1002A000FDC0409106015091070160E082E00E948C
:1002B00079000E94D500882309F0F0C04091060122
:1002C0005091070160E081E00E9479000E94D50012
:1002D000882309F0E3C0409106015091070160E8CE
:1002E0000E9479000E94D500882309F0D7C0409170
:1002F00006015091070160E40E9479000E94D50038
:10030000882309F0CBC0409106015091070160E2BB
:100310000E9479000E94D500882309F0BFC0409157
:1003200006015091070160E10E9479000E94D5000A
:10033000882309F0B3C0409106015091070168E09D
:100340000E9479000E94D500882309F0A7C040913F
:1003500006015091070164E00E9479000E94D500D7
:10036000882309F09BC0409106015091070162E08B
:100370000E9479000E94D500882309F08FC0409127
:1003800006015091070161E00E9479000E94D500AA
:10039000882309F083C0409106015091070162E073
:1003A0000E9479000E94D500882309F077C040910F
:1003B00006015091070164E00E9479000E94D50077
:1003C000882309F06BC0409106015091070168E055
:1003D0000E9479000E94D500882309F05FC04091F7
:1003E00006015091070160E10E9479000E94D5004A
:1003F000882309F053C0409106015091070160E243
:100400000E9479000E94D500882309F047C04091DE
:1004100006015091070160E40E9479000E94D50016
:100420008823E1F5409106015091070160E80E94A0
:1004300079000E94D500882389F5409106015091EA
:10044000070160E081E00E9479000E94D5008823C6
:1004500029F5409106015091070160E082E00E9479
:1004600079000E94D5008823C9F44091060150917B
:10047000070160E084E00E9479000E94D500882393
:1004800069F4409106015091070160E088E00E9404
:1004900079000E94D500882309F4DACEC2E3D0E0C7
:1004A000D0930701C093060142E350E060E080E092
:1004B0000E9479000E94D500882309F032C1409142
:1004C00006015091070160E088E00E9479000E94D7
:1004D000D500882309F025C14091060150910701FC
:1004E00060E08CE00E9479000E94D500882309F02A
:1004F00018C1409106015091070160E08EE00E9412
:1005000079000E94D500882309F00BC140910601B3
:100510005091070160E08FE00E9479000E94D500B1
:10052000882309F0FEC0409106015091070160E860
:100530008FE00E9479000E94D500882309F0F1C065
:10054000409106015091070160EC8FE00E94790014
:100550000E94D500882309F0E4C040910601509123
:10056000070160EE8FE00E9479000E94D500882389
:1005700009F0D7C0409106015091070160EF8FE06C
:100580000E9479000E94D500882309F0CAC04091DA
:1005900006015091070168EF8FE00E9479000E94E8
:1005A000D500882309F0BDC0409106015091070194
:1005B0006CEF8FE00E9479000E94D500882309F03B
:1005C000B0C040910601509107016EEF8FE00E948C
:1005D00079000E94D500882309F0A3C0409106014C
:1005E000509107016FEF8FE00E9479000E94D500C3
:1005F000882309F096C040910601509107016EEFE3
:100600008FE00E9479000E94D500882309F089C0FC
:1006100040910601509107016CEF8FE00E94790034
:100620000E94D500882309F07CC0409106015091BA
:10063000070168EF8FE00E9479000E94D5008823AF
:1006400009F06FC0409106015091070160EF8FE003
:100650000E9479000E94D500882309F062C0409171
:1006600006015091070160EE8FE00E9479000E9420
:10067000D500882309F055C040910601509107012B
:1006800060EC8FE00E9479000E94D500882309F079
:1006900048C0409106015091070160E88FE00E9438
:1006A00079000E94D5008823E1F540910601509120
:1006B000070160E08FE00E9479000E94D500882346
:1006C00081F5409106015091070160E08EE00E94A3
:1006D00079000E94D500882321F5409106015091B0
:1006E000070160E08CE00E9479000E94D500882319
:1006F000C1F4409106015091070160E088E00E943A
:1007000079000E94D500882361F440910601509140
:10071000070160E00E9479000E94D500882309F457
:10072000BFCEC8ECD0E0D0930701C093060148ECDF
:1007300050E065E585E00E9479000E94D50088239D
:1007400061F440910601509107016AEA8AE00E9433
:1007500079000E94D500882331F3C8ECD0E0D09313
:100760000701C093060148EC50E060E680E00E947B
:1007700079000E94D500882309F04EC040910601FF
:100780005091070160E90E9479000E94D5008823FA
:1007900009F042C0409106015091070168E081E0F4
:1007A0000E9479000E94D5008823B1F5409106018E
:1007B0005091070164E082E00E9479000E94D50018
:1007C000882351F5409106015091070162E084E0D1
:1007D0000E9479000E94D5008823F1F4409106011F
:1007E0005091070161E088E00E9479000E94D500E5
:1007F000882391F4409106015091070160E00E9426
:1008000079000E94D500882339F468EE73E080E017
:1008100090E00E94FC05A3CFC8EED3E0D09307017F
:10082000C093060148EE53E060E080E00E9479004A
:100830000E94D500882309F049C1409106015091DA
:10084000070160E084E00E9479000E94D5008823BF
:1008500009F03CC1409106015091070162E084E03B
:100860000E9479000E94D500882309F02FC1409191
:1008700006015091070162E484E00E9479000E9421
:10088000D500882309F022C140910601509107014B
:1008900062E486E00E9479000E94D500882309F076
:1008A00015C1409106015091070162E586E00E9462
:1008B00079000E94D500882309F008C14091060103
:1008C0005091070163E586E00E9479000E94D500FF
:1008D000882309F0FBC0409106015091070163EDA8
:1008E00086E00E9479000E94D500882309F0EEC0BE
:1008F00040910601509107016BED86E00E9479005E
:100900000E94D500882309F0E1C040910601509172
:1009100007016BED8EE00E9479000E94D5008823CC
:1009200009F0D4C040910601509107016BEF8EE0B1
:100930000E9479000E94D500882309F0C7C0409129
:100940000601509107016FEF8EE00E9479000E942E
:10095000D500882309F0BAC04091060150910701E3
:100960006FEF8FE00E9479000E94D500882309F084
:10097000ADC0409106015091070160E00E947900EE
:100980000E94D500882309F0A1C040910601509132
:1009900007016FEF8FE00E9479000E94D500882345
:1009A00009F094C040910601509107016DEF8FE06E
:1009B0000E9479000E94D500882309F087C04091E9
:1009C0000601509107016DEF8EE00E9479000E94B0
:1009D000D500882309F07AC04091060150910701A3
:1009E0006DEE8EE00E9479000E94D500882309F008
:1009F0006DC040910601509107016DEE8AE00E94A2
:100A000079000E94D500882309F060C0409106015A
:100A1000509107016DE68AE00E9479000E94D5009E
:100A2000882309F053C040910601509107016CE6FC
:100A30008AE00E9479000E94D500882309F046C010
:100A400040910601509107016CE682E00E94790016
:100A50000E94D5008823D1F54091060150910701ED
:100A600068E682E00E9479000E94D500882371F533
:100A7000409106015091070168E282E00E947900EE
:100A80000E94D500882311F540910601509107017D
:100A900068E20E9479000E94D5008823B9F4409151
:100AA00006015091070168E00E9479000E94D5007C
:100AB000882361F4409106015091070160E00E9493
:100AC00079000E94D500882309F4A8CEDF91CF9148
:100AD000089581E090E009C061E0822F0E946E06D7
:100AE00080910A0190910B01019690930B018093E4
:100AF0000A0120910A0130910B0180910801909127
:100B000009018217930744F760E0809100010E9479
:100B10006E0608950E9434060E9469050E94100125
:100B2000FDCF1F920F920FB60F9211242F938F9328
:100B30009F93AF93BF938091160190911701A0915D
:100B40001801B09119018050904CAF4FBF4F809366
:100B5000160190931701A0931801B093190127C0B3
:100B60008091160190911701A0911801B09119017F
:100B700080549F41A040B04080931601909317018C
:100B8000A0931801B093190180911A0190911B0153
:100B9000A0911C01B0911D010196A11DB11D809372
:100BA0001A0190931B01A0931C01B0931D01809129
:100BB000160190911701A0911801B091190181546B
:100BC0009F41A040B04060F6BF91AF919F918F913F
:100BD0002F910F900FBE0F901F9018958FB7F8941C
:100BE00020911A0130911B0140911C0150911D016F
:100BF0008FBFB901CA010895EF92FF920F931F931F
:100C00007B018C018FB7F89440911A0150911B0120
:100C100060911C0170911D018FBF2FB7F8948091D6
:100C20001A0190911B01A0911C01B0911D012FBFD1
:100C3000841B950BA60BB70B8E159F05A007B1075C
:100C400060F31F910F91FF90EF900895019759F075
:100C5000019749F0FC01EE0FFF1F31978FB7F89411
:100C60003197F1F78FBF0895789484B5826084BD81
:100C700084B5816084BD85B5826085BD85B58160A0
:100C800085BDEEE6F0E0808181608083E1E8F0E000
:100C9000808182608083808181608083E0E8F0E0F1
:100CA000808181608083E1EBF0E0808184608083DB
:100CB000E0EBF0E0808181608083EAE7F0E0808112
:100CC0008460808380818260808380818160808372
:100CD0008081806880831092C1000895282F30E0C1
:100CE000C90185579F4FFC01949129583F4FF90145
:100CF0008491882381F0E82FF0E0E859FF4FE491D8
:100D0000F0E0662329F480819095892380830895FB
:100D10008081892B80830895482F50E0CA01815635
:100D20009F4FFC012491CA0185579F4FFC0194916C
:100D300049585F4FFA0134913323C1F1222331F135
:100D4000233021F4809180008F7705C0243031F466
:100D5000809180008F7D8093800018C0213019F42D
:100D600084B58F7704C0223021F484B58F7D84BD93
:100D70000DC0263021F48091B0008F7705C0273058
:100D800029F48091B0008F7D8093B000E32FF0E0D4
:100D9000E359FF4FE491F0E0662329F480819095B8
:100DA0008923808308958081892B80830895482F2B
:100DB00050E0CA0181569F4FFC012491CA0185571A
:100DC0009F4FFC01949149585F4FFA0134913323AE
:100DD00019F420E030E035C0222331F1233021F432
:100DE000809180008F7705C0243031F4809180009D
:100DF0008F7D8093800018C0213019F484B58F77DF
:100E000004C0223021F484B58F7D84BD0DC026300E
:100E100021F48091B0008F7705C0273029F48091AC
:100E2000B0008F7D8093B000E32FF0E0EE58FF4FCD
:100E3000E491F0E0808120E030E0892311F021E0AE
:0A0E400030E0C9010895F894FFCFD7
:0A0E4A000D0032000000C8000C008B
:00000001FF
