:100000000C945A000C9477000C9477000C947700B1
:100010000C9477000C9477000C9477000C94770084
:100020000C9477000C9477000C9477000C94770074
:100030000C9477000C9477000C9477000C94770064
:100040000C9498030C9477000C9477000C94770030
:100050000C9477000C9477000C9477000C94770044
:100060000C9477000C947700000024272A000025C8
:10007000282B000023262904040404040404040299
:100080000202020202030303030303010204081035
:100090002040800102040810200102040810200002
:1000A0000000070002010000030406000000000039
:1000B0000000000011241FBECFEFD4E0DEBFCDBF93
:1000C00011E0A0E0B1E0E8E5FAE002C005900D9291
:1000D000AA30B107D9F711E0AAE0B1E001C01D9242
:1000E000AE31B107E1F70E9491030C942A050C94FC
:1000F0000000EF92FF920F931F93CF93DF93F82EA0
:10010000EA0110920D0110920C01EE24E39415C047
:10011000062F10E0B801617070706E258F5F0E942D
:10012000930415950795602F80910C0190910D0116
:10013000019690930D0180930C0180910C01909198
:100140000D018830910524F310920D0110920C01DD
:10015000EE24E39415C00F2D10E0B80161707070AB
:100160006E25875F0E94930415950795F02E809168
:100170000C0190910D01019690930D0180930C015B
:1001800080910C0190910D018430910524F3BE0102
:10019000882777FD8095982F0E940304DF91CF91E7
:1001A0001F910F91FF90EF900895809100010E94A0
:1001B000DE0480930E01813069F580910F01882360
:1001C00049F50E94F50320911001309111014091F1
:1001D000120150911301621B730B840B950B20913C
:1001E000020130910301409104015091050126174D
:1001F00037074807590770F410920E010E94F50363
:100200006093100170931101809312019093130178
:1002100081E0089580910E0180930F0180E00895A0
:100220000F931F93CF93DF9302E010E0C4E1D0E07F
:1002300010930B0100930A0148E250E060E080E077
:100240000E9479000E94D500882309F0EDC08091BA
:100250000A0190910B018C9FA0018D9F500D9C9FD6
:10026000500D112460E088E00E9479000E94D500C2
:10027000882309F0D9C080910A0190910B018C9FCD
:10028000A0018D9F500D9C9F500D112460E084E0D3
:100290000E9479000E94D500882309F0C5C0809192
:1002A0000A0190910B018C9FA0018D9F500D9C9F86
:1002B000500D112460E082E00E9479000E94D50078
:1002C000882309F0B1C080910A0190910B018C9FA5
:1002D000A0018D9F500D9C9F500D112460E081E086
:1002E0000E9479000E94D500882309F09DC080916A
:1002F0000A0190910B018C9FA0018D9F500D9C9F36
:10030000500D112460E880E00E9479000E94D50021
:10031000882309F089C080910A0190910B018C9F7C
:10032000A0018D9F500D9C9F500D112460E480E032
:100330000E9479000E94D500882309F075C0809141
:100340000A0190910B018C9FA0018D9F500D9C9FE5
:10035000500D112460E280E00E9479000E94D500D7
:10036000882309F061C080910A0190910B018C9F54
:10037000A0018D9F500D9C9F500D112460E180E0E5
:100380000E9479000E94D500882309F04DC0809119
:100390000A0190910B018C9FA0018D9F500D9C9F95
:1003A000500D112468E080E00E9479000E94D50081
:1003B0008823D1F580910A0190910B018C9FA001B7
:1003C0008D9F500D9C9F500D112464E080E00E9491
:1003D00079000E94D500882339F580910A01909117
:1003E0000B018C9FA0018D9F500D9C9F500D1124DF
:1003F00062E080E00E9479000E94D5008823A1F489
:1004000080910A0190910B018C9FA0018D9F500D4E
:100410009C9F500D112461E080E00E9479000E94B1
:10042000D500882309F404CF4091060150910701BB
:1004300060E080E00E9479000E94D500882309F0E6
:1004400032C1409106015091070160E088E00E94AE
:1004500079000E94D500882309F025C1409106014A
:100460005091070160E08CE00E9479000E94D50065
:10047000882309F018C1409106015091070160E0FE
:100480008EE00E9479000E94D500882309F00BC1FC
:10049000409106015091070160E08FE00E947900D1
:1004A0000E94D500882309F0FEC0409106015091BA
:1004B000070160E88FE00E9479000E94D500882340
:1004C00009F0F1C0409106015091070160EC8FE006
:1004D0000E9479000E94D500882309F0E4C0409171
:1004E00006015091070160EE8FE00E9479000E94A2
:1004F000D500882309F0D7C040910601509107012B
:1005000060EF8FE00E9479000E94D500882309F0F7
:10051000CAC0409106015091070168EF8FE00E9428
:1005200079000E94D500882309F0BDC040910601E2
:10053000509107016CEF8FE00E9479000E94D50076
:10054000882309F0B0C040910601509107016EEF79
:100550008FE00E9479000E94D500882309F0A3C093
:1005600040910601509107016FEF8FE00E947900E2
:100570000E94D500882309F096C040910601509151
:1005800007016EEF8FE00E9479000E94D50088235A
:1005900009F089C040910601509107016CEF8FE08E
:1005A0000E9479000E94D500882309F07CC0409108
:1005B00006015091070168EF8FE00E9479000E94C8
:1005C000D500882309F06FC04091060150910701C2
:1005D00060EF8FE00E9479000E94D500882309F027
:1005E00062C0409106015091070160EE8FE00E94C9
:1005F00079000E94D500882309F055C0409106017A
:100600005091070160EC8FE00E9479000E94D500B4
:10061000882309F048C0409106015091070160E825
:100620008FE00E9479000E94D5008823E1F5409177
:1006300006015091070160E08FE00E9479000E945E
:10064000D500882381F5409106015091070160E0B3
:100650008EE00E9479000E94D500882321F5409108
:1006600006015091070160E08CE00E9479000E9431
:10067000D5008823C1F4409106015091070160E044
:1006800088E00E9479000E94D500882361F440919F
:1006900006015091070160E00E9479000E94D50098
:1006A000882309F4C1CE409106015091070165E508
:1006B00085E00E9479000E94D500882361F4409172
:1006C0000601509107016AEA8AE00E9479000E94BF
:1006D000D500882341F3DF91CF911F910F910895A9
:1006E00081E090E009C061E0822F0E947504809152
:1006F0000A0190910B01019690930B0180930A01DE
:1007000020910A0130910B0180910801909109011B
:100710008217930744F760E0809100010E947504FE
:1007200008950E943B040E9470030E941001FDCFB7
:100730001F920F920FB60F9211242F938F939F93B6
:10074000AF93BF938091160190911701A09118016A
:10075000B09119018050904CAF4FBF4F809316015C
:1007600090931701A0931801B093190127C08091AD
:10077000160190911701A0911801B09119018054B0
:100780009F41A040B0408093160190931701A09321
:100790001801B093190180911A0190911B01A09149
:1007A0001C01B0911D010196A11DB11D80931A017C
:1007B00090931B01A0931C01B0931D018091160121
:1007C00090911701A0911801B091190181549F4196
:1007D000A040B04060F6BF91AF919F918F912F9153
:1007E0000F900FBE0F901F9018958FB7F89420911F
:1007F0001A0130911B0140911C0150911D018FBFC6
:10080000B901CA010895EF92FF920F931F937B01E4
:100810008C018FB7F89440911A0150911B0160919F
:100820001C0170911D018FBF2FB7F89480911A01A0
:1008300090911B01A0911C01B0911D012FBF841B41
:10084000950BA60BB70B8E159F05A007B10760F39C
:100850001F910F91FF90EF900895019759F0019724
:1008600049F0FC01EE0FFF1F31978FB7F8943197D5
:10087000F1F78FBF0895789484B5826084BD84B504
:10088000816084BD85B5826085BD85B5816085BD8B
:10089000EEE6F0E0808181608083E1E8F0E0808135
:1008A00082608083808181608083E0E8F0E08081E5
:1008B00081608083E1EBF0E0808184608083E0EB05
:1008C000F0E0808181608083EAE7F0E080818460ED
:1008D0008083808182608083808181608083808149
:1008E000806880831092C1000895282F30E0C901EC
:1008F00085579F4FFC01949129583F4FF9018491EE
:10090000882381F0E82FF0E0E859FF4FE491F0E010
:10091000662329F4808190958923808308958081BE
:10092000892B80830895482F50E0CA0181569F4F3C
:10093000FC012491CA0185579F4FFC0194914958AD
:100940005F4FFA0134913323C1F1222331F1233077
:1009500021F4809180008F7705C0243031F480919C
:1009600080008F7D8093800018C0213019F484B5F9
:100970008F7704C0223021F484B58F7D84BD0DC0F3
:10098000263021F48091B0008F7705C0273029F4FC
:100990008091B0008F7D8093B000E32FF0E0E359A9
:1009A000FF4FE491F0E0662329F48081909589233C
:1009B000808308958081892B80830895482F50E09B
:1009C000CA0181569F4FFC012491CA0185579F4F50
:1009D000FC01949149585F4FFA013491332319F483
:1009E00020E030E035C0222331F1233021F4809122
:1009F00080008F7705C0243031F4809180008F7D96
:100A00008093800018C0213019F484B58F7704C01A
:100A1000223021F484B58F7D84BD0DC0263021F4B1
:100A20008091B0008F7705C0273029F48091B00005
:100A30008F7D8093B000E32FF0E0EE58FF4FE491FC
:100A4000F0E0808120E030E0892311F021E030E007
:080A5000C9010895F894FFCFDD
:0A0A58000D0064000000C8000C004F
:00000001FF
