:100000000C945A000C9477000C9477000C947700B1
:100010000C9477000C9477000C9477000C94770084
:100020000C9477000C9477000C9477000C94770074
:100030000C9477000C9477000C9477000C94770064
:100040000C94D1010C9477000C9477000C947700F9
:100050000C9477000C9477000C9477000C94770044
:100060000C9477000C947700000024272A000025C8
:10007000282B000023262904040404040404040299
:100080000202020202030303030303010204081035
:100090002040800102040810200102040810200002
:1000A0000000070002010000030406000000000039
:1000B0000000000011241FBECFEFD4E0DEBFCDBF93
:1000C00011E0A0E0B1E0E8E1F7E002C005900D9298
:1000D000A430B107D9F711E0A4E0B1E001C01D924E
:1000E000A231B107E1F70E94CA010C948A030C9473
:1000F0000000EF92FF920F931F93CF93DF93082F8F
:10010000F62EEA011092070110920601EE24E39404
:1001100013C010E0B801617070706E258F5F0E948F
:10012000CC021595079580910601909107010196E3
:100130009093070180930601809106019091070139
:100140008830910534F31092070110920601EE24D5
:10015000E39415C00F2D10E0B801617070706E252A
:10016000875F0E94CC0215950795F02E80910601BD
:100170009091070101969093070180930601809169
:100180000601909107018530910524F3BE0188276F
:1001900077FD8095982F0E943C02DF91CF911F91AF
:1001A0000F91FF90EF90089581E090E0CAC065E064
:1001B00070E00E946303AB01609300015093010162
:1001C0006FE18FE30E94790040910001509101019D
:1001D0006FE180E00E94790040910001509101019F
:1001E0006FE081E00E94790040910001509101018F
:1001F00067E182E00E947900409100015091010185
:100200006FE185E00E947900409100015091010169
:100210006BE080E00E947900409100015091010163
:100220006FE18BE00E947900409100015091010143
:1002300067E180E00E947900409100015091010146
:100240006FE085E00E94790040910001509101012A
:100250006FE182E00E94790040910001509101011C
:100260006FE181E00E94790040910001509101010D
:1002700061E080E00E94790040910001509101010D
:100280006FE18FE10E9479004091000150910101DE
:100290006FE180E00E9479004091000150910101DE
:1002A0006FE081E00E9479004091000150910101CE
:1002B00067E182E00E9479004091000150910101C4
:1002C0006FE185E00E9479004091000150910101A9
:1002D0006BE080E00E9479004091000150910101A3
:1002E0006FE18BE00E947900409100015091010183
:1002F00067E180E00E947900409100015091010186
:100300006FE085E00E947900409100015091010169
:100310006FE182E00E94790040910001509101015B
:100320006FE181E00E94790040910001509101014C
:1003300061E080E00E9479008091040190910501C4
:10034000019690930501809304018091040190919E
:100350000501823391050CF42ACF089581E090E0E5
:1003600009C061E0822F0E94AE0280910401909149
:1003700005010196909305018093040120910401E9
:10038000309105018091020190910301821793073A
:1003900044F708950E9474020E94AE010E94D400A6
:1003A000FDCF1F920F920FB60F9211242F938F93B0
:1003B0009F93AF93BF9380910A0190910B01A091FD
:1003C0000C01B0910D018050904CAF4FBF4F809306
:1003D0000A0190930B01A0930C01B0930D0127C06B
:1003E00080910A0190910B01A0910C01B0910D0137
:1003F00080549F41A040B04080930A0190930B012C
:10040000A0930C01B0930D0180910E0190910F010A
:10041000A0911001B09111010196A11DB11D809311
:100420000E0190930F01A0931001B09311018091E0
:100430000A0190910B01A0910C01B0910D01815422
:100440009F41A040B04060F6BF91AF919F918F91C6
:100450002F910F900FBE0F901F9018958FB7F894A3
:1004600020910E0130910F01409110015091110126
:100470008FBFB901CA010895EF92FF920F931F93A6
:100480007B018C018FB7F89440910E0150910F01C0
:1004900060911001709111018FBF2FB7F894809176
:1004A0000E0190910F01A0911001B09111012FBF89
:1004B000841B950BA60BB70B8E159F05A007B107E4
:1004C00060F31F910F91FF90EF900895019759F0FD
:1004D000019749F0FC01EE0FFF1F31978FB7F89499
:1004E0003197F1F78FBF0895789484B5826084BD09
:1004F00084B5816084BD85B5826085BD85B5816028
:1005000085BDEEE6F0E0808181608083E1E8F0E087
:10051000808182608083808181608083E0E8F0E078
:10052000808181608083E1EBF0E080818460808362
:10053000E0EBF0E0808181608083EAE7F0E0808199
:1005400084608083808182608083808181608083F9
:100550008081806880831092C1000895282F30E048
:10056000C90185579F4FFC01949129583F4FF901CC
:100570008491882381F0E82FF0E0E859FF4FE4915F
:10058000F0E0662329F48081909589238083089583
:100590008081892B80830895482F50E0CA018156BD
:1005A0009F4FFC012491CA0185579F4FFC019491F4
:1005B00049585F4FFA0134913323C1F1222331F1BD
:1005C000233021F4809180008F7705C0243031F4EE
:1005D000809180008F7D8093800018C0213019F4B5
:1005E00084B58F7704C0223021F484B58F7D84BD1B
:1005F0000DC0263021F48091B0008F7705C02730E0
:1006000029F48091B0008F7D8093B000E32FF0E05B
:10061000E359FF4FE491F0E0662329F4808190953F
:100620008923808308958081892B80830895482FB2
:1006300050E0CA0181569F4FFC012491CA018557A1
:100640009F4FFC01949149585F4FFA013491332335
:1006500019F420E030E035C0222331F1233021F4B9
:10066000809180008F7705C0243031F48091800024
:100670008F7D8093800018C0213019F484B58F7766
:1006800004C0223021F484B58F7D84BD0DC0263096
:1006900021F48091B0008F7705C0273029F4809134
:1006A000B0008F7D8093B000E32FF0E0EE58FF4F55
:1006B000E491F0E0808120E030E0892311F021E036
:1006C00030E0C901089597FB092E07260AD077FD6F
:1006D00004D00CD006D000201AF4709561957F4F9D
:1006E0000895F6F7909581959F4F0895AA1BBB1B1F
:1006F00051E107C0AA1FBB1FA617B70710F0A61B22
:10070000B70B881F991F5A95A9F780959095BC0142
:08071000CD010895F894FFCF1C
:0407180001000D00CF
:00000001FF
