:100000000C945A000C9477000C9477000C947700B1
:100010000C9477000C9477000C9477000C94770084
:100020000C9477000C9477000C9477000C94770074
:100030000C9477000C9477000C9477000C94770064
:100040000C94560B0C9477000C94D70D0C947700FD
:100050000C9477000C9477000C9477000C94770044
:100060000C9477000C947700000024272A000025C8
:10007000282B000023262904040404040404040299
:100080000202020202030303030303010204081035
:100090002040800102040810200102040810200002
:1000A0000000070002010000030406000000000039
:1000B0000000000011241FBECFEFD4E0DEBFCDBF93
:1000C00011E0A0E0B1E0E4EFFCE102C005900D9288
:1000D000A831B107D9F711E0A8E1B1E001C01D9244
:1000E000AB3BB107E1F70E944F0B0C94780E0C94D8
:1000F0000000809118010E94360C20910A01309175
:100100000B01821793072CF080911201909113013B
:100110000895809118010E94360C089560E0809146
:1001200004010E94C60C80911001909111010E945F
:10013000EB0B61E0809104010E94C60C88EC90E01A
:100140000E94EB0B60E0809104010E94C60C80913C
:100150001001909111010E94EB0B61E0809106016A
:100160000E94C60C08959F92AF92BF92CF92DF92E9
:10017000EF92FF920F931F93982EA62EB42EF22E7D
:100180001E2D10921D0110921C0112C0612F617072
:10019000809100010E94C60C16950E948E008091ED
:1001A0001C0190911D01019690931D0180931C01EB
:1001B00080911C0190911D01089744F310921D013C
:1001C00010921C0112C0602F6170809100010E948A
:1001D000C60C06950E948E0080911C0190911D0115
:1001E000019690931D0180931C0180911C019091B8
:1001F0001D01089744F310921D0110921C0112C0BA
:100200006F2D6170809100010E94C60CF6940E94CF
:100210008E0080911C0190911D01019690931D010B
:1002200080931C0180911C0190911D01089744F35B
:1002300010921D0110921C0112C06B2D61708091F3
:1002400000010E94C60CB6940E948E0080911C0191
:1002500090911D01019690931D0180931C01809146
:100260001C0190911D01089744F310921D011092FA
:100270001C0112C06A2D6170809100010E94C60CA1
:10028000A6940E948E0080911C0190911D01019600
:1002900090931D0180931C0180911C0190911D0180
:1002A000089744F310921D0110921C0122C0692D81
:1002B0006170809100010E94C60C80911C01909198
:1002C0001D01079751F460E0809106010E94C60C61
:1002D00061E0809102010E94C60C96940E948E00FB
:1002E00080911C0190911D01019690931D018093B6
:1002F0001C0180911C0190911D010897C4F280910E
:100300001001909111010E94EB0B60E080910201BD
:100310000E94C60CB601882777FD8095982F0E9411
:10032000C10B1F910F91FF90EF90DF90CF90BF9086
:10033000AF909F9008951F93809108010E94110D26
:10034000182F80932001813009F042C08091210153
:100350008823F1F50E94B30B2091230130912401F1
:100360004091250150912601621B730B840B950B64
:1003700020910C0130910D0140910E0150910F011F
:10038000261737074807590718F5109220010E94D1
:10039000B30B609323017093240180932501909304
:1003A0002601809118010E94360C20910A0130919B
:1003B0000B01821793074CF080912201882319F4D6
:1003C0001093220102C01092220181E01F91089532
:1003D000809120018093210180E0F8CFCF92DF92BD
:1003E000EF920F9310921F0110921E01D6C28091BE
:1003F00018010E94360C20910A0130910B018217DE
:10040000930714F40C94E60A80912201813011F0D4
:100410000C94E60ACAC20E9479006C01EE2400E046
:1004200020E040E060E080E40E94B3000E949B0175
:10043000882309F0BAC20E9479006C0120E040E0F4
:1004400060E080E20E94B3000E949B01882309F0D3
:10045000ACC20E9479006C0120E040E060E080E1E5
:100460000E94B3000E949B01882309F09EC20E9453
:1004700079006C0120E040E060E088E00E94B30079
:100480000E949B01882309F090C20E9479006C01B0
:1004900020E040E060E084E00E94B3000E949B0105
:1004A000882309F082C20E9479006C0120E040E0BC
:1004B00060E082E00E94B3000E949B01882309F063
:1004C00074C20E9479006C0120E040E060E081E0AD
:1004D0000E94B3000E949B01882309F066C20E941B
:1004E00079006C0120E040E060E880E00E94B30009
:1004F0000E949B01882309F058C20E9479006C0178
:1005000020E040E060E480E00E94B3000E949B0194
:10051000882309F04AC20E9479006C0120E040E083
:1005200060E280E00E94B3000E949B01882309F0F2
:100530003CC20E9479006C0120E040E060E180E074
:100540000E94B3000E949B01882309F02EC20E94E2
:1005500079006C0120E040E068E080E00E94B30098
:100560000E949B01882309F020C20E9479006C013F
:1005700020E040E064E080E00E94B3000E949B0124
:10058000882309F012C20E9479006C0120E040E04B
:1005900062E080E00E94B3000E949B01882309F082
:1005A00004C20E9479006C0120E040E061E080E03C
:1005B0000E94B3000E949B01882309F0F6C10E94AB
:1005C00079006C0120E040E860E080E00E94B30028
:1005D0000E949B01882309F0E8C10E9479006C0108
:1005E00020E040E460E080E00E94B3000E949B01B4
:1005F000882309F0DAC10E9479006C0120E040E212
:1006000060E080E00E94B3000E949B01882309F013
:10061000CCC10E9479006C0120E040E160E080E004
:100620000E94B3000E949B01882309F0BEC10E9472
:1006300079006C0120E048E060E080E00E94B300B7
:100640000E949B01882309F0B0C10E9479006C01CF
:1006500020E044E060E080E00E94B3000E949B0143
:10066000882309F0A2C10E9479006C0120E042E0D9
:1006700060E080E00E94B3000E949B01882309F0A3
:1006800094C10E9479006C0120E041E060E080E0CC
:100690000E94B3000E949B01882309F086C10E943A
:1006A00079006C0120E840E060E080E00E94B30047
:1006B0000E949B01882309F078C10E9479006C0197
:1006C00020E440E060E080E00E94B3000E949B01D3
:1006D000882309F06AC10E9479006C0120E240E0A1
:1006E00060E080E00E94B3000E949B01882309F033
:1006F0005CC10E9479006C0120E140E060E080E094
:100700000E94B3000E949B01882309F04EC10E9401
:1007100079006C0128E040E060E080E00E94B300D6
:100720000E949B01882309F040C10E9479006C015E
:1007300024E040E060E080E00E94B3000E949B0162
:10074000882309F032C10E9479006C0122E040E068
:1007500060E080E00E94B3000E949B01882309F0C2
:1007600024C10E9479006C0121E040E060E080E05B
:100770000E94B3000E949B01882309F016C10E94C9
:1007800079006C0100E820E040E060E080E00E9439
:10079000B3000E949B01882309F007C10E947900E1
:1007A0006C0100E420E040E060E080E00E94B300E3
:1007B0000E949B01882309F0F8C00E9479006C0117
:1007C00000E220E040E060E080E00E94B3000E9490
:1007D0009B01882309F0E9C00E9479006C0100E1C7
:1007E00020E040E060E080E00E94B3000E949B01B6
:1007F000882309F0DAC00E9479006C0108E020E04B
:1008000040E060E080E00E94B3000E949B018823EA
:1008100009F0CBC00E9479006C0104E020E040E0C8
:1008200060E080E00E94B3000E949B01882309F0F1
:10083000BCC00E9479006C0102E020E040E060E072
:1008400080E00E94B3000E949B01882309F0ADC0A4
:100850000E9479006C0101E020E040E060E080E06F
:100860000E94B3000E949B01882309F09EC00E9451
:1008700079006C0100E8E02E00E020E040E060E05C
:1008800080E00E94B3000E949B01882309F08DC084
:100890000E9479006C01B0E4EB2E20E040E060E0C3
:1008A00080E00E94B3000E949B01882309F07DC074
:1008B0000E9479006C01A0E2EA2E20E040E060E0B6
:1008C00080E00E94B3000E949B01882309F06DC064
:1008D0000E9479006C01F0E1EF2E20E040E060E042
:1008E00080E00E94B3000E949B01882309F05DC054
:1008F0000E9479006C01E8E0EE2E20E040E060E02C
:1009000080E00E94B3000E949B01882309F04DC043
:100910000E9479006C0174E0E72E20E040E060E086
:1009200080E00E94B3000E949B018823F1F50E94A1
:1009300079006C0162E0E62E20E040E060E080E0BB
:100940000E94B3000E949B01882379F50E947900E0
:100950006C01EE24E39420E040E060E080E00E943F
:10096000B3000E949B01882301F5809118010E9429
:10097000360C20910A0130910B018217930724F461
:1009800010921F0110921E0180911E0190911F0173
:10099000019690931F0180931E0180911E019091FA
:1009A0001F01181619060CF022CD10921F0110928B
:1009B0001E01A4C0809118010E94360C20910A01EA
:1009C00030910B01821793070CF412C6809122011B
:1009D000813009F00DC699C00E9479006C01EE24A7
:1009E00000E020E040E068EF81E00E94B3000E9458
:1009F0009B01882309F089C00E9479006C0120E0E6
:100A000040EF67E080E00E94B3000E949B018823D2
:100A100009F07BC00E9479006C0120EC4FE060E09F
:100A200080E00E94B3000E949B01882309F06DC002
:100A30000E9479006C0100E82FE340E060E080E074
:100A40000E94B3000E949B01882309F05EC00E94AF
:100A500079006C010EE720E040E060E080E00E9459
:100A6000B3000E949B01882309F04FC00E947900C7
:100A70006C0150EFE52E01E020E040E060E080E016
:100A80000E94B3000E949B01882309F03EC00E948F
:100A900079006C014CE0E42E00E020E040E060E0F2
:100AA00080E00E94B3000E949B01882371F50E94A0
:100AB00079006C0133E0E32E20E040E060E080E06C
:100AC0000E94B3000E949B018823F9F480911801D1
:100AD0000E94360C20910A0130910B018217930776
:100AE00024F410921F0110921E0180911E0190911A
:100AF0001F01019690931F0180931E0180911E019A
:100B000090911F010A970CF455CF10921F0110927B
:100B10001E01E1C2809118010E94360C20910A0149
:100B200030910B01821793070CF473C58091220159
:100B3000813009F06EC5D7C20E9479006C01EE24A5
:100B400000E020E040E060E280E00E94B3000E940C
:100B50009B01882309F0C7C20E9479006C0128E03C
:100B6000E22E20E040E060E280E00E94B3000E94BC
:100B70009B01882309F0B7C20E9479006C019AE0BA
:100B8000E92E20E040E060E280E00E94B3000E9495
:100B90009B01882309F0A7C20E9479006C0120E024
:100BA00044E060E280E00E94B3000E949B01882341
:100BB00009F099C20E9479006C0120E044E060E2F3
:100BC00081E00E94B3000E949B01882309F08BC240
:100BD0000E9479006C0120E444E060E281E00E9420
:100BE000B3000E949B01882309F07DC20E94790016
:100BF0006C0124E444E060E281E00E94B3000E94C2
:100C00009B01882309F06FC20E9479006C0124E4E3
:100C100044E060E281E40E94B3000E949B018823CB
:100C200009F061C20E9479006C0124E444E060E2B2
:100C300083E40E94B3000E949B01882309F053C201
:100C40000E9479006C0100E424E444E060E283E463
:100C50000E94B3000E949B01882309F044C20E94B5
:100C600079006C0124E444E860E283E40E94B3006C
:100C70000E949B01882309F036C20E9479006C0112
:100C800008E424E444E860E283E40E94B3000E94A4
:100C90009B01882309F027C20E9479006C0124E49B
:100CA0004CE860E283E40E94B3000E949B01882329
:100CB00009F019C20E9479006C0124E44CE864E256
:100CC00083E40E94B3000E949B01882309F00BC2B9
:100CD0000E9479006C0124E44CE86CE283E40E94F9
:100CE000B3000E949B01882309F0FDC10E94790096
:100CF0006C0124E54CE86CE283E40E94B3000E949E
:100D00009B01882309F0EFC10E9479006C018AE2FF
:100D1000E82E24E54CE86CE283E40E94B3000E94D4
:100D20009B01882309F0DFC10E9479006C0124E552
:100D30004CE86CE283E50E94B3000E949B0188238B
:100D400009F0D1C10E9479006C0124E54CEA6CE203
:100D500083E50E94B3000E949B01882309F0C3C170
:100D60000E9479006C0124ED4CEA6CE283E50E945C
:100D7000B3000E949B01882309F0B5C10E9479004D
:100D80006C01BAEAEB2E24ED4CEA6CE283E50E949A
:100D9000B3000E949B01882309F0A5C10E9479003D
:100DA0006C0124ED4CEA6CE283ED0E94B3000E94DA
:100DB0009B01882309F097C10E9479006C0124ED02
:100DC0004CEE6CE283ED0E94B3000E949B018823ED
:100DD00009F089C10E9479006C01AAEBEA2E24ED8A
:100DE0004CEE6CE283ED0E94B3000E949B018823CD
:100DF00009F079C10E9479006C0124ED4CEF6CE29E
:100E000083ED0E94B3000E949B01882309F06BC10F
:100E10000E9479006C0108EC24ED4CEF6CE283ED4C
:100E20000E94B3000E949B01882309F05CC10E94CC
:100E300079006C0108ED24ED4CEF6CE283ED0E942B
:100E4000B3000E949B01882309F04DC10E947900E4
:100E50006C0109ED24ED4CEF6CE283ED0E94B300D0
:100E60000E949B01882309F03EC10E9479006C0119
:100E700024ED4CEF6EE283ED0E94B3000E949B01D3
:100E8000882309F030C10E9479006C0124EF4CEFF7
:100E90006EE283ED0E94B3000E949B01882309F05B
:100EA00022C10E9479006C0124EF4CEF6EEA83EDC1
:100EB0000E94B3000E949B01882309F014C10E9484
:100EC00079006C010DED24EF4CEF6EEA83ED0E948A
:100ED000B3000E949B01882309F005C10E9479009C
:100EE0006C01FAEFEF2E24EF4CEF6EEA83ED0E94D7
:100EF000B3000E949B01882309F0F5C00E9479008D
:100F00006C0124EF4CEF6EEA8BED0E94B3000E945F
:100F10009B01882309F0E7C00E9479006C0124EF4F
:100F20004CEF6EEA8BEF0E94B3000E949B01882376
:100F300009F0D9C00E9479006C0124EF4EEF6EEAEF
:100F40008BEF0E94B3000E949B01882309F0CBC065
:100F50000E9479006C010FED24EF4EEF6EEA8BEFEB
:100F60000E94B3000E949B01882309F0BCC00E942C
:100F700079006C0126EF4EEF6EEA8BEF0E94B30012
:100F80000E949B01882309F0AEC00E9479006C0189
:100F900026EF4EEF6EEB8BEF0E94B3000E949B0199
:100FA000882309F0A0C00E9479006C012EEF4EEF5B
:100FB0006EEB8BEF0E94B3000E949B01882309F027
:100FC00092C00E9479006C012FEF4EEF6EEB8BEF19
:100FD0000E94B3000E949B01882309F084C00E94F4
:100FE00079006C01EBEFEE2E2FEF4EEF6EEB8BEFF7
:100FF0000E94B3000E949B01882309F074C00E94E4
:1010000079006C012FEF4EEF6FEB8BEF0E94B30076
:101010000E949B01882309F066C00E9479006C0140
:101020002FEF4EEF6FEB8FEF0E94B3000E949B01FA
:10103000882309F058C00E9479006C010FEF2FEF50
:101040004EEF6FEB8FEF0E94B3000E949B0188234D
:1010500009F049C00E9479006C01EE24EA942FEF58
:101060004EEF6FEB8FEF0E94B3000E949B0188232D
:10107000D1F50E9479006C012FEF4EEF6FEF8FEFEB
:101080000E94B3000E949B01882369F50E947900A9
:101090006C012FEF4FEF6FEF8FEF0E94B3000E94B4
:1010A0009B01882301F5809118010E94360C209144
:1010B0000A0130910B018217930724F410921F014B
:1010C00010921E0180911E0190911F010196909334
:1010D0001F0180931E0180911E0190911F0118161F
:1010E00019060CF017CD10921F0110921E0121C19C
:1010F0000E9479006C01EE24EA940FEF2FEF4FEF7E
:101100006FEF8FEF0E94B3000E949B01882309F0CC
:1011100017C10E9479006C017DEFE72E2FEF4FEF92
:101120006FEF8FEF0E94B3000E949B01882309F0AC
:1011300007C10E9479006C01EE24EA942FEF4FEF73
:101140006FEF8FEB0E94B3000E949B01882309F090
:10115000F7C00E9479006C010EEF2FEF4FEF6FEF99
:101160008FEF0E94B3000E949B01882309F0E8C022
:101170000E9479006C010FEF2FEF4FEB6FEF8FEFB5
:101180000E94B3000E949B01882309F0D9C00E94ED
:1011900079006C016BEFE62E2FEF4FEF6FEF8FEFC3
:1011A0000E94B3000E949B01882309F0C9C00E94DD
:1011B00079006C01EE24EA942FEE4FEF6FEF8FEF82
:1011C0000E94B3000E949B01882309F0B9C00E94CD
:1011D00079006C012FEF4FEF6FED8FEF0E94B3009E
:1011E0000E949B01882309F0ABC00E9479006C012A
:1011F0005EEFE52E2FEF4FEF6FEF8FEF0E94B30002
:101200000E949B01882309F09BC00E9479006C0119
:10121000EE24EA942FEF4DEF6FEF8FEF0E94B300B3
:101220000E949B01882309F08BC00E9479006C0109
:101230002BEF4FEF6EEF8FEF0E94B3000E949B01E8
:10124000882309F07DC00E9479006C014FEBE42EE9
:101250002FEF4FEF6FEF8FEF0E94B3000E949B01C3
:10126000882309F06DC00E9479006C01EE24EA9495
:101270002FEF4FEF6FEF8FEF0E94B3000E949B01A3
:10128000882309F05DC00E9479006C0107EF2FEF01
:101290004FEF6FEF8FEF0E94B3000E949B018823F6
:1012A00009F04EC00E9479006C010FEF2FEF4FEF55
:1012B0006FEF8FEE0E94B3000E949B01882309F01C
:1012C0003FC00E9479006C012FEF4DEF6FEF8FEF61
:1012D0000E94B3000E949B01882391F58091180120
:1012E0000E94360C20910A0130910B01821793075E
:1012F00024F410921F0110921E01809118010E9487
:10130000360C20910A0130910B018217930744F0AB
:1013100080912201813021F410921F0110921E0150
:1013200080911E0190911F01019690931F0180935F
:101330001E0180911E0190911F0104970CF4D8CEDC
:1013400010921F0110921E0139C1809118010E9454
:10135000360C20910A0130910B01821793070CF48F
:1013600069C180912201813009F064C173C10E947A
:1013700079006C01EE2400E020E040E060E08EEFB8
:101380000E94B3000E949B01882309F063C10E9460
:1013900079006C0120E040E068EF8FEF0E94B3001D
:1013A0000E949B01882309F055C10E9479006C01BD
:1013B00020E040EF6FEF8FEF0E94B3000E949B018F
:1013C000882309F047C10E9479006C0120EC4FEF9F
:1013D0006FEF8FEF0E94B3000E949B01882309F0FA
:1013E00039C10E9479006C0100E82FEF4FEF6FEFD9
:1013F0008FEF0E94B3000E949B01882309F02AC14D
:101400000E9479006C010EEF2FEF4FEF6FEF8FEF1F
:101410000E94B3000E949B01882309F01BC10E9417
:1014200079006C0130EFE32E0FEF2FEF4FEF6FEFEE
:101430008FEF0E94B3000E949B01882309F00AC12C
:101440000E9479006C012CEFE22E2FEF4FEF6FEF2F
:101450008FEF0E94B3000E949B01882309F0FAC01D
:101460000E9479006C01EE24EA942FEF4FEF6FEFAA
:101470008FEF0E94B3000E949B01882309F0EAC00D
:101480000E9479006C019CEFE92E2FEF4FEF6FEF78
:101490008FEF0E94B3000E949B01882309F0DAC0FD
:1014A0000E9479006C0180EFE82E2FEF4FEF6FEF75
:1014B0008FEF0E94B3000E949B01882309F0CAC0ED
:1014C0000E9479006C01EE240EEF2FEF4FEF6FEFCB
:1014D0008FEF0E94B3000E949B01882309F0BAC0DD
:1014E0000E9479006C0100E82FEF4FEF6FEF8FEF54
:1014F0000E94B3000E949B01882309F0ABC00E94A8
:1015000079006C0100E020EC4FEF6FEF8FEF0E944D
:10151000B3000E949B01882309F09CC00E947900BF
:101520006C0120E040EF6FEF8FEF0E94B3000E944C
:101530009B01882309F08EC00E9479006C0120E095
:1015400040E068EF8FEF0E94B3000E949B01882368
:1015500009F080C00E9479006C0120E040E060E06A
:101560008EEF0E94B3000E949B01882309F072C095
:101570000E9479006C0120E040E060E080E00E9481
:10158000B3000E949B01882309F064C08091180178
:101590000E94360C20910A0130910B0182179307AB
:1015A00024F410921F0110921E0180911E0190914F
:1015B0001F01019690931F0180931E0180911E01CF
:1015C00090911F0103970CF4C0CE44C00E94790093
:1015D0006C01EE2400E020E040E060E080E80E9442
:1015E000B3000E949B01882311F40C940B02DDC907
:1015F0000E9479006C01EE2400E020E040E060E011
:101600008EEF0E94B3000E949B01882309F4E4C975
:101610007CCA0E9479006C01EE2400E020E040E0EA
:1016200060E080E00E94B3000E949B01882309F4DF
:1016300083CA59CD0E9479006C01EE2400E020E0BD
:1016400040E060E080E00E94B3000E949B0188239C
:1016500009F48DCE0F91EF90DF90CF90089560E860
:1016600075E280E090E00E945D0D61E080910001F4
:101670000E94A80C61E0809104010E94A80C61E026
:10168000809102010E94A80C61E0809106010E94F5
:10169000A80C60E0809108010E94A80C08950E94A7
:1016A000F90B0E942F0B0E94EE01FDCF1F920F92AB
:1016B0000FB60F9211242F938F939F93AF93BF93E5
:1016C00080912F0190913001A0913101B0913201B0
:1016D0008050904CAF4FBF4F80932F0190933001BB
:1016E000A0933101B093320127C080912F019091D6
:1016F0003001A0913101B091320180589E43A04049
:10170000B04080932F0190933001A0933101B093AA
:1017100032018091330190913401A0913501B09153
:1017200036010196A11DB11D8093330190933401C0
:10173000A0933501B093360180912F019091300133
:10174000A0913101B091320181589E43A040B04038
:1017500060F6BF91AF919F918F912F910F900FBE27
:101760000F901F9018958FB7F89420913301309106
:10177000340140913501509136018FBFB901CA0142
:101780000895EF92FF920F931F937B018C018FB707
:10179000F89440913301509134016091350170917A
:1017A00036018FBF2FB7F8948091330190913401A7
:1017B000A0913501B09136012FBF841B950BA60B6C
:1017C000B70B8E159F05A007B10760F31F910F910E
:1017D000FF90EF900895019759F0FC01EE0FFF1F65
:1017E000EE0FFF1F32978FB7F8943197F1F78FBF45
:1017F0000895789484B5826084BD84B5816084BD89
:1018000085B5826085BD85B5816085BDEEE6F0E079
:10181000808181608083E1E8F0E080818260808364
:10182000808181608083E0E8F0E080818160808356
:10183000E1EBF0E0808184608083E0EBF0E0808188
:1018400081608083EAE7F0E080818460808380812A
:1018500082608083808181608083808180688083D2
:101860001092C10008958093160108958F70909191
:1018700016019295990F990F907C982B90937C006C
:1018800080917A00806480937A0080917A0086FD4E
:10189000FCCF2091780040917900942F80E030E0D7
:1018A000282B392BC90108951F93CF93DF93182F4D
:1018B000EB0161E00E94A80CE12FF0E0E156FF4F40
:1018C0008491833051F480918000806880938000FF
:1018D000D0938900C093880037C0843051F4809140
:1018E0008000806280938000D0938B00C0938A0038
:1018F0002BC0813029F484B5806884BDC7BD24C065
:10190000823029F484B5806284BDC8BD1DC0863094
:1019100041F48091B00080688093B000C093B30020
:1019200013C0873041F48091B00080628093B00092
:10193000C093B40009C0C038D10514F460E001C000
:1019400061E0812F0E94C60CDF91CF911F91089515
:10195000282F30E0C90185579F4FFC0194912958E9
:101960003F4FF9018491882381F0E82FF0E0E85996
:10197000FF4FE491F0E0662329F48081909589235C
:10198000808308958081892B80830895482F50E0BB
:10199000CA0181569F4FFC012491CA0185579F4F70
:1019A000FC01949149585F4FFA0134913323C1F1FE
:1019B000222331F1233021F4809180008F7705C0FC
:1019C000243031F4809180008F7D8093800018C096
:1019D000213019F484B58F7704C0223021F484B506
:1019E0008F7D84BD0DC0263021F48091B0008F77AB
:1019F00005C0273029F48091B0008F7D8093B0001E
:101A0000E32FF0E0E359FF4FE491F0E0662329F47F
:101A1000808190958923808308958081892B80839C
:101A20000895482F50E0CA0181569F4FFC01249130
:101A3000CA0185579F4FFC01949149585F4FFA01A5
:101A40003491332319F420E030E035C0222331F102
:101A5000233021F4809180008F7705C0243031F449
:101A6000809180008F7D8093800018C0213019F410
:101A700084B58F7704C0223021F484B58F7D84BD76
:101A80000DC0263021F48091B0008F7705C027303B
:101A900029F48091B0008F7D8093B000E32FF0E0B7
:101AA000EE58FF4FE491F0E0808120E030E08923A0
:101AB00011F021E030E0C9010895EF92FF920F93F9
:101AC0001F937B018C0122E030E040E050E00E9457
:101AD000270E205C3D4B404F5F4FCA01B901A80162
:101AE00097010E94270EC901DA010197A109B109E6
:101AF000292F3A2F4B2F552747FD5A950196A11DA7
:101B0000B11D2093C50081508093C400E1ECF0E04A
:101B1000808180618083808188608083808180680B
:101B200080831F910F91FF90EF900895982F8091DF
:101B3000C00085FFFCCF9093C600089580913701C7
:101B40009091380180589F4F2091390130913A018E
:101B5000821B930B60E870E00E94140E0895409180
:101B6000390150913A0180913701909138018417E1
:101B7000950719F42FEF3FEF0FC0FA01E55CFE4F18
:101B80002081CA01019660E870E00E94140E9093D3
:101B90003A018093390130E0C901089580913901FB
:101BA00090913A01909338018093370108951F92E4
:101BB0000F920FB60F9211242F933F934F935F9381
:101BC0006F937F938F939F93AF93BF93EF93FF9305
:101BD0004091C600E0913701F0913801CF010196A4
:101BE00060E870E00E94140E9C0180913901909190
:101BF0003A012817390739F0E55CFE4F40833093EE
:101C0000380120933701FF91EF91BF91AF919F91E0
:101C10008F917F916F915F914F913F912F910F9095
:101C20000FBE0F901F90189597FB092E07260AD01C
:101C300077FD04D027D006D000201AF47095619566
:101C40007F4F0895F6F7909581959F4F089597FBE4
:101C5000092E05260ED057FD04D028D00AD0001C2E
:101C600038F450954095309521953F4F4F4F5F4F39
:101C70000895F6F790958095709561957F4F8F4FF9
:101C80009F4F0895AA1BBB1B51E107C0AA1FBB1F92
:101C9000A617B70710F0A61BB70B881F991F5A95F8
:101CA000A9F780959095BC01CD010895A1E21A2E67
:101CB000AA1BBB1BFD010DC0AA1FBB1FEE1FFF1FF0
:101CC000A217B307E407F50720F0A21BB30BE40B40
:101CD000F50B661F771F881F991F1A9469F7609587
:101CE0007095809590959B01AC01BD01CF01089541
:041CF000F894FFCF96
:101CF400090008000A000B000700FF03F4010000BC
:081D04000A00C80030000100D4
:00000001FF
