:100000000C945A000C9477000C9477000C947700B1
:100010000C9477000C9477000C9477000C94770084
:100020000C9477000C9477000C9477000C94770074
:100030000C9477000C9477000C9477000C94770064
:100040000C948F010C9477000C949B030C94770014
:100050000C9477000C9477000C9477000C94770044
:100060000C9477000C947700000024272A000025C8
:10007000282B000023262904040404040404040299
:100080000202020202030303030303010204081035
:100090002040800102040810200102040810200002
:1000A0000000070002010000030406000000000039
:1000B0000000000011241FBECFEFD4E0DEBFCDBF93
:1000C00011E0A0E0B1E0ECE7F8E002C005900D928D
:1000D000A431B107D9F711E0A4E1B1E001C01D924C
:1000E000AA3BB107E1F70E9488010C943C040C94F0
:1000F000000060E0809104010E948A0284E190E0A7
:100100000E94240261E0809104010E948A0282E33D
:1001100090E00E94240260E0809104010E948A0223
:100120000895CF93DF93EC01109215011092140102
:1001300054C010921701109216013FC0EC0FFD1F22
:1001400060816170809100010E948A02E091140137
:10015000F0911501EC0FFD1F808190E0959587953A
:10016000808380911601909117010797B1F48091D7
:100170001001909111010197209114013091150106
:100180002817390751F460E0809106010E948A0225
:1001900061E0809102010E948A020E94790061E080
:1001A000809106010E948A028091160190911701A8
:1001B00001969093170180931601809116019091FA
:1001C0001701E0911401F091150108970CF4B6CFD6
:1001D0003196F0931501E0931401209114013091B0
:1001E00015018091100190911101281739070CF425
:1001F000A0CF84E190E00E94240260E0809102019F
:100200000E948A02DF91CF910895CF93DF9380916E
:100210002C0190912D01892BC9F42091100130916E
:100220001101E0E2F1E080E090E002C0119201965D
:1002300082179307DCF3909315018093140181E0FA
:100240008093200180E291E00E94910080912C0136
:1002500090912D010197C9F5209110013091110164
:10026000C0E2D1E0FE0180E090E045E502C04193AC
:10027000019682179307DCF3909315018093140184
:1002800080E291E00E94910068EE73E080E090E0EF
:100290000E94FA01209110013091110180E090E05C
:1002A0004AEA02C04993019682179307DCF39093C0
:1002B00015018093140180E291E00E94910068EEA4
:1002C00073E080E090E00E94FA01DF91CF91089501
:1002D00060E875E280E090E00E94210361E0809197
:1002E00000010E946C0261E0809104010E946C0296
:1002F00061E0809102010E946C0261E08091060140
:100300000E946C0260E0809108010E946C020895D6
:100310000E9432020E9468010E940501FDCF1F92D7
:100320000F920FB60F9211242F938F939F93AF9339
:10033000BF9380912E0190912F01A0913001B09137
:1003400031018050904CAF4FBF4F80932E0190935E
:100350002F01A0933001B093310127C080912E016D
:1003600090912F01A0913001B091310180589E43AE
:10037000A040B04080932E0190932F01A0933001B4
:10038000B09331018091320190913301A0913401F9
:10039000B09135010196A11DB11D8093320190935A
:1003A0003301A0933401B093350180912E019091D7
:1003B0002F01A0913001B091310181589E43A0409E
:1003C000B04060F6BF91AF919F918F912F910F90A8
:1003D0000FBE0F901F9018958FB7F894209132019F
:1003E0003091330140913401509135018FBFB901F3
:1003F000CA010895EF92FF920F931F937B018C0126
:100400008FB7F894409132015091330160913401DB
:10041000709135018FBF2FB7F89480913201909180
:100420003301A0913401B09135012FBF841B950B8E
:10043000A60BB70B8E159F05A007B10760F31F91A0
:100440000F91FF90EF900895019759F0FC01EE0F86
:10045000FF1FEE0FFF1F32978FB7F8943197F1F718
:100460008FBF0895789484B5826084BD84B581601F
:1004700084BD85B5826085BD85B5816085BDEEE6AC
:10048000F0E0808181608083E1E8F0E0808182603B
:100490008083808181608083E0E8F0E080818160FA
:1004A0008083E1EBF0E0808184608083E0EBF0E02A
:1004B000808181608083EAE7F0E0808184608083CE
:1004C0008081826080838081816080838081806878
:1004D00080831092C1000895282F30E0C90185570C
:1004E0009F4FFC01949129583F4FF9018491882333
:1004F00081F0E82FF0E0E859FF4FE491F0E0662347
:1005000029F4808190958923808308958081892BA7
:1005100080830895482F50E0CA0181569F4FFC0107
:100520002491CA0185579F4FFC01949149585F4F10
:10053000FA0134913323C1F1222331F1233021F424
:10054000809180008F7705C0243031F48091800045
:100550008F7D8093800018C0213019F484B58F7787
:1005600004C0223021F484B58F7D84BD0DC02630B7
:1005700021F48091B0008F7705C0273029F4809155
:10058000B0008F7D8093B000E32FF0E0E359FF4F80
:10059000E491F0E0662329F480819095892380839B
:1005A00008958081892B80830895482F50E0CA01E7
:1005B00081569F4FFC012491CA0185579F4FFC0132
:1005C000949149585F4FFA013491332319F420E094
:1005D00030E035C0222331F1233021F480918000B6
:1005E0008F7705C0243031F4809180008F7D809317
:1005F000800018C0213019F484B58F7704C02230F0
:1006000021F484B58F7D84BD0DC0263021F4809106
:10061000B0008F7705C0273029F48091B0008F7D1E
:100620008093B000E32FF0E0EE58FF4FE491F0E04C
:10063000808120E030E0892311F021E030E0C90121
:100640000895EF92FF920F931F937B018C0122E09C
:1006500030E040E050E00E94EB03205C3D4B404F17
:100660005F4FCA01B901A80197010E94EB03C901BC
:10067000DA010197A109B109292F3A2F4B2F5527EC
:1006800047FD5A950196A11DB11D2093C5008150CB
:100690008093C400E1ECF0E0808180618083808100
:1006A000886080838081806880831F910F91FF9094
:1006B000EF900895982F8091C00085FFFCCF909314
:1006C000C6000895809136019091370180589F4F60
:1006D0002091380130913901821B930B60E870E062
:1006E0000E94D803089540913801509139018091BA
:1006F0003601909137018417950719F42FEF3FEFDA
:100700000FC0FA01E65CFE4F2081CA01019660E845
:1007100070E00E94D803909339018093380130E053
:10072000C901089580913801909139019093370162
:100730008093360108951F920F920FB60F921124E5
:100740002F933F934F935F936F937F938F939F93D9
:10075000AF93BF93EF93FF934091C600E0913601B2
:10076000F0913701CF01019660E870E00E94D80354
:100770009C0180913801909139012817390739F08F
:10078000E65CFE4F40833093370120933601FF91A2
:10079000EF91BF91AF919F918F917F916F915F91F9
:1007A0004F913F912F910F900FBE0F901F90189572
:1007B00097FB092E07260AD077FD04D027D006D054
:1007C00000201AF4709561957F4F0895F6F7909583
:1007D00081959F4F089597FB092E05260ED057FD52
:1007E00004D028D00AD0001C38F45095409530959C
:1007F00021953F4F4F4F5F4F0895F6F790958095A5
:10080000709561957F4F8F4F9F4F0895AA1BBB1B1B
:1008100051E107C0AA1FBB1FA617B70710F0A61B00
:10082000B70B881F991F5A95A9F780959095BC0121
:10083000CD010895A1E21A2EAA1BBB1BFD010DC01C
:10084000AA1FBB1FEE1FFF1FA217B307E407F50780
:1008500020F0A21BB30BE40BF50B661F771F881F5C
:10086000991F1A9469F760957095809590959B01F2
:0C087000AC01BD01CF010895F894FFCF4A
:10087C00090008000A000B000700C8000000300047
:04088C000600020060
:00000001FF
