:100000000C945A000C9477000C9477000C947700B1
:100010000C9477000C9477000C9477000C94770084
:100020000C9477000C9477000C9477000C94770074
:100030000C9477000C9477000C9477000C94770064
:100040000C948E020C9477000C949A040C94770014
:100050000C9477000C9477000C9477000C94770044
:100060000C9477000C947700000024272A000025C8
:10007000282B000023262904040404040404040299
:100080000202020202030303030303010204081035
:100090002040800102040810200102040810200002
:1000A0000000070002010000030406000000000039
:1000B0000000000011241FBECFEFD4E0DEBFCDBF93
:1000C00011E0A0E0B1E0EAE7FAE002C005900D928D
:1000D000A231B107D9F711E0A2E1B1E001C01D9250
:1000E000A43BB107E1F70E9487020C943B050C94F6
:1000F000000060E0809104010E94890384E190E0A7
:100100000E94230361E0809104010E94890382E33D
:1001100090E00E94230360E0809104010E94890323
:100120000895BF92CF92DF92EF92FF920F931F93A9
:10013000B82EC62ED42EF22E1E2D10921301109220
:10014000120117C0612F6170809100010E94890324
:1001500016950E94790061E0809106010E94890352
:100160008091120190911301019690931301809355
:100170001201809112019091130108971CF31092C3
:1001800013011092120117C0602F6170809100015D
:100190000E94890306950E94790061E08091060122
:1001A0000E9489038091120190911301019690930E
:1001B000130180931201809112019091130108970D
:1001C0001CF3109213011092120117C06F2D617071
:1001D000809100010E948903F6940E94790061E0F9
:1001E000809106010E948903809112019091130170
:1001F00001969093130180931201809112019091C6
:10020000130108971CF3109213011092120117C0EA
:100210006D2D6170809100010E948903D6940E9427
:10022000790061E0809106010E94890380911201AA
:100230009091130101969093130180931201809184
:1002400012019091130108971CF310921301109260
:10025000120117C06C2D6170809100010E9489030A
:10026000C6940E94790061E0809106010E94890392
:100270008091120190911301019690931301809344
:100280001201809112019091130108971CF31092B2
:1002900013011092120127C06B2D61708091000133
:1002A0000E9489038091120190911301079751F4E4
:1002B00060E0809106010E94890361E08091020163
:1002C0000E948903B6940E94790061E08091060142
:1002D0000E948903809112019091130101969093DD
:1002E00013018093120180911201909113010897DC
:1002F0009CF284E190E00E94230360E0809102017F
:100300000E9489031F910F91FF90EF90DF90CF9093
:10031000BF900895EF920F93CF93DF9380910801E0
:100320000E94D403EC019093150180931401813055
:10033000910509F043C08091160190911701892B16
:10034000E9F50E94EB0220911801309119014091CA
:100350001A0150911B01621B730B840B950B2091AA
:100360000A0130910B0140910C0150910D012617AB
:1003700037074807590710F5D0931501C0931401AA
:1003800080912601909127010196909327018093F7
:10039000260120911001309111018217930721F459
:1003A00010922701109226010E94EB02609318011F
:1003B0007093190180931A0190931B01809114018D
:1003C0009091150190931701809316018091260159
:1003D00090912701892BF1F4EE24EA940FEF2FEF8F
:1003E0004FEF6FEF8FEF0E94910068EE73E080E0B7
:1003F00090E00E94F90285E5E82E05E525E545E552
:1004000065E585E50E94910068EE73E080E090E08C
:100410000E94F902DF91CF910F91EF900895EF9232
:10042000FF920F931F93CF93DF937B018C01C091B9
:100430000E01D0910F012197109213011092120119
:100440002BC06E2D6170809100010E948903809104
:100450001201909113018C179D0751F460E0809177
:1004600006010E94890361E0809102010E948903D4
:1004700015950795F794E7940E94790061E08091C3
:1004800006010E9489038091120190911301019647
:100490009093130180931201209112013091130166
:1004A00080910E0190910F012817390754F284E1D1
:1004B00090E00E94230360E0809102010E94890382
:1004C000DF91CF911F910F91FF90EF90089560E819
:1004D00075E280E090E00E94200461E080910001DC
:1004E0000E946B0361E0809104010E946B0361E054
:1004F000809102010E946B0361E0809106010E94DD
:100500006B0360E0809108010E946B0308950E94D4
:1005100031030E9467020E948A01FDCF1F920F9251
:100520000FB60F9211242F938F939F93AF93BF9386
:100530008091280190912901A0912A01B0912B016D
:100540008050904CAF4FBF4F80932801909329016A
:10055000A0932A01B0932B0127C08091280190918C
:100560002901A0912A01B0912B0180589E43A040FF
:10057000B0408093280190932901A0932A01B09361
:100580002B0180912C0190912D01A0912E01B09111
:100590002F010196A11DB11D80932C0190932D0177
:1005A000A0932E01B0932F018091280190912901F1
:1005B000A0912A01B0912B0181589E43A040B040E8
:1005C00060F6BF91AF919F918F912F910F900FBEC9
:1005D0000F901F9018958FB7F89420912C013091AF
:1005E0002D0140912E0150912F018FBFB901CA01F9
:1005F0000895EF92FF920F931F937B018C018FB7A9
:10060000F89440912C0150912D0160912E01709130
:100610002F018FBF2FB7F89480912C0190912D015D
:10062000A0912E01B0912F012FBF841B950BA60B1B
:10063000B70B8E159F05A007B10760F31F910F91AF
:10064000FF90EF900895019759F0FC01EE0FFF1F06
:10065000EE0FFF1F32978FB7F8943197F1F78FBFE6
:100660000895789484B5826084BD84B5816084BD2A
:1006700085B5826085BD85B5816085BDEEE6F0E01B
:10068000808181608083E1E8F0E080818260808306
:10069000808181608083E0E8F0E0808181608083F8
:1006A000E1EBF0E0808184608083E0EBF0E080812A
:1006B00081608083EAE7F0E08081846080838081CC
:1006C0008260808380818160808380818068808374
:1006D0001092C1000895282F30E0C90185579F4F1F
:1006E000FC01949129583F4FF9018491882381F0AE
:1006F000E82FF0E0E859FF4FE491F0E0662329F499
:10070000808190958923808308958081892B8083BF
:100710000895482F50E0CA0181569F4FFC01249153
:10072000CA0185579F4FFC01949149585F4FFA01C8
:1007300034913323C1F1222331F1233021F480910C
:1007400080008F7705C0243031F4809180008F7D48
:100750008093800018C0213019F484B58F7704C0CD
:10076000223021F484B58F7D84BD0DC0263021F464
:100770008091B0008F7705C0273029F48091B000B8
:100780008F7D8093B000E32FF0E0E359FF4FE491B9
:10079000F0E0662329F48081909589238083089571
:1007A0008081892B80830895482F50E0CA018156AB
:1007B0009F4FFC012491CA0185579F4FFC019491E2
:1007C00049585F4FFA013491332319F420E030E0A7
:1007D00035C0222331F1233021F4809180008F77BE
:1007E00005C0243031F4809180008F7D809380009B
:1007F00018C0213019F484B58F7704C0223021F459
:1008000084B58F7D84BD0DC0263021F48091B00069
:100810008F7705C0273029F48091B0008F7D8093B9
:10082000B000E32FF0E0EE58FF4FE491F0E080815C
:1008300020E030E0892311F021E030E0C901089583
:10084000EF92FF920F931F937B018C0122E030E027
:1008500040E050E00E94EA04205C3D4B404F5F4F77
:10086000CA01B901A80197010E94EA04C901DA018D
:100870000197A109B109292F3A2F4B2F552747FD81
:100880005A950196A11DB11D2093C50081508093FA
:10089000C400E1ECF0E08081806180838081886029
:1008A00080838081806880831F910F91FF90EF90FB
:1008B0000895982F8091C00085FFFCCF9093C600CB
:1008C0000895809130019091310180589F4F20917F
:1008D000320130913301821B930B60E870E00E947B
:1008E000D704089540913201509133018091300135
:1008F000909131018417950719F42FEF3FEF0FC046
:10090000FA01EC5CFE4F2081CA01019660E870E0BC
:100910000E94D704909333018093320130E0C901E3
:100920000895809132019091330190933101809329
:10093000300108951F920F920FB60F9211242F933A
:100940003F934F935F936F937F938F939F93AF9357
:10095000BF93EF93FF934091C600E0913001F09177
:100960003101CF01019660E870E00E94D7049C013C
:1009700080913201909133012817390739F0EC5CEE
:10098000FE4F40833093310120933001FF91EF916E
:10099000BF91AF919F918F917F916F915F914F9197
:1009A0003F912F910F900FBE0F901F90189597FBBE
:1009B000092E07260AD077FD04D027D006D00020C4
:1009C0001AF4709561957F4F0895F6F7909581958B
:1009D0009F4F089597FB092E05260ED057FD04D092
:1009E00028D00AD0001C38F45095409530952195B8
:1009F0003F4F4F4F5F4F0895F6F790958095709554
:100A000061957F4F8F4F9F4F0895AA1BBB1B51E1EC
:100A100007C0AA1FBB1FA617B70710F0A61BB70B6E
:100A2000881F991F5A95A9F780959095BC01CD0113
:100A30000895A1E21A2EAA1BBB1BFD010DC0AA1F1F
:100A4000BB1FEE1FFF1FA217B307E407F50720F037
:100A5000A21BB30BE40BF50B661F771F881F991FB2
:100A60001A9469F760957095809590959B01AC01FB
:0A0A7000BD01CF010895F894FFCFF7
:100A7A00090008000A000B000700C8000000300047
:020A8A00020068
:00000001FF
