:100000000C945A000C9477000C9477000C947700B1
:100010000C9477000C9477000C9477000C94770084
:100020000C9477000C9477000C9477000C94770074
:100030000C9477000C9477000C9477000C94770064
:100040000C945C030C9477000C9477000C9477006C
:100050000C9477000C9477000C9477000C94770044
:100060000C9477000C947700000024272A000025C8
:10007000282B000023262904040404040404040299
:100080000202020202030303030303010204081035
:100090002040800102040810200102040810200002
:1000A0000000070002010000030406000000000039
:1000B0000000000011241FBECFEFD4E0DEBFCDBF93
:1000C00011E0A0E0B1E0E8E1FBE002C005900D9294
:1000D000A630B107D9F711E0A6E0B1E001C01D924A
:1000E000A831B107E1F70E9455030C948A050C94DE
:1000F000000080910A010E943C0420E08F5F934041
:100100000CF421E0822F089580910A010E943C04A2
:10011000892B29F460910001709101010AC080913E
:100120000A010E943C0464E670E00E9463056F5F70
:100130007F4FCB010895EF92FF920F931F93CF93C0
:10014000DF93082FF62EEA011092090110920801A0
:10015000EE24E39413C010E0B801617070706E2556
:100160008F5F0E94CC0415950795809108019091AE
:10017000090101969093090180930801809108017B
:10018000909109018830910534F310920901109281
:100190000801EE24E39415C00F2D10E0B801617042
:1001A00070706E25875F0E94CC0415950795F02E20
:1001B0008091080190910901019690930901809323
:1001C000080180910801909109018530910524F37F
:1001D0000E9484008C9FB0018D9F700D9C9F700DBC
:1001E0001124882777FD8095982F0E94C703DF91FF
:1001F000CF911F910F91FF90EF900895CF93DF93D0
:1002000048E250E061E080E00E949B0085E090E0E1
:100210009093070180930601C2E0D0E03BC04AE022
:1002200050E060E080E00E949B004AE050E061E026
:1002300080E00E949B004AE050E063E080E00E9482
:100240009B004AE050E067E080E00E949B004AE0AB
:1002500050E06FE080E00E949B004AE050E06FE1D8
:1002600080E00E949B008091060190910701019718
:1002700041F40E947900882321F4D0930701C093B0
:100280000601809106019091070101979093070163
:1002900080930601809106019091070118161906B6
:1002A0000CF4BDCF8AE090E09093070180930601A3
:1002B000C2E0D0E03BC04FE050E063E080E00E944D
:1002C0009B004FE050E065E080E00E949B004FE023
:1002D00050E069E080E00E949B004FE050E061E167
:1002E00080E00E949B004FE050E069E080E00E94C7
:1002F0009B004FE050E065E080E00E949B00809111
:10030000060190910701019741F40E94790088232A
:1003100021F4D0930701C0930601809106019091CA
:1003200007010197909307018093060180910601D0
:1003300090910701181619060CF4BDCF8FE090E0DC
:100340009093070180930601CFE0D0E03BC061E0CD
:1003500080E00E949B00409106015091070162E0FD
:1003600080E00E949B00409106015091070164E0EB
:1003700080E00E949B00409106015091070168E0D7
:1003800080E00E949B00409106015091070160E1CE
:1003900080E00E949B0080910601909107010197E7
:1003A00041F40E947900882321F4D0930701C0937F
:1003B0000601809106019091070101979093070132
:1003C000809306014091060150910701141615060D
:1003D0000CF4BDCF4AE050E06FE18FEF0E949B002C
:1003E0004EE150E060E080E00E949B0084E190E0FC
:1003F0009093070180930601C2E0D0E047C04AE035
:1004000050E060E080E80E949B004AE050E060E03D
:1004100080E40E949B004AE050E060E080E20E949D
:100420009B004AE050E060E080E10E949B004AE0CF
:1004300050E060E088E00E949B004AE050E060E00D
:1004400084E00E949B004AE050E060E082E00E946D
:100450009B004AE050E060E081E00E949B008091B8
:10046000060190910701019741F40E9479008823C9
:1004700021F4D0930701C093060180910601909169
:10048000070101979093070180930601809106016F
:1004900090910701181619060CF4B1CF84E090E092
:1004A0009093070180930601C2E0D0E05FC044E66C
:1004B00050E061E08FEF0E949B0044E650E061E075
:1004C0008DEF0E949B0044E650E060E18DEF0E94BA
:1004D0009B0044E650E060E18FED0E949B0044E603
:1004E00050E060E08FED0E949B0044E650E060E049
:1004F0008FE70E949B0044E650E064E08BE70E9497
:100500009B0044E650E065E08BEB0E949B0044E6D4
:1005100050E064E08FEA0E949B0044E650E060E017
:100520008EEE0E949B0044E650E068E086EF0E9459
:100530009B0044E650E062E087EF0E949B008091C0
:10054000060190910701019741F40E9479008823E8
:1005500021F4D0930701C093060180910601909188
:10056000070101979093070180930601809106018E
:1005700090910701181619060CF499CF8FE090E0BE
:100580009093070180930601CFE0D0E05BC060E06C
:1005900080E00E949B00409106015091070160E0BD
:1005A00080E80E949B00409106015091070160E0A5
:1005B00080EC0E949B00409106015091070160E091
:1005C00080EE0E949B00409106015091070160E07F
:1005D00080EF0E949B00409106015091070160E06E
:1005E00088EF0E949B00409106015091070160E056
:1005F0008CEF0E949B00409106015091070160E042
:100600008EEF0E949B00409106015091070161E02E
:100610008FEF0E949B008091060190910701019746
:1006200041F40E947900882321F4D0930701C093FC
:1006300006018091060190910701019790930701AF
:10064000809306014091060150910701141615068A
:100650000CF49DCF44E150E06FE18FEF0E949B00CE
:100660004CE350E060E080E00E949B00DF91CF917E
:10067000089581E090E009C061E0822F0E94AE04FD
:100680008091060190910701019690930701809354
:10069000060120910601309107018091020190919D
:1006A00003018217930744F708950E94FF030E94F5
:1006B00039030E94FE00FDCF1F920F920FB60F92DA
:1006C00011242F938F939F93AF93BF938091100129
:1006D00090911101A0911201B09113018050904CA2
:1006E000AF4FBF4F8093100190931101A09312015F
:1006F000B093130127C08091100190911101A09136
:100700001201B091130180549F41A040B0408093EA
:10071000100190931101A0931201B09313018091E5
:10072000140190911501A0911601B0911701019645
:10073000A11DB11D8093140190931501A093160182
:10074000B09317018091100190911101A0911201B5
:10075000B091130181549F41A040B04060F6BF9119
:10076000AF919F918F912F910F900FBE0F901F907F
:1007700018958FB7F894209114013091150140918C
:100780001601509117018FBFB901CA010895EF9268
:10079000FF920F931F937B018C018FB7F8944091C8
:1007A00014015091150160911601709117018FBFCE
:1007B0002FB7F8948091140190911501A091160122
:1007C000B09117012FBF841B950BA60BB70B8E158D
:1007D0009F05A007B10760F31F910F91FF90EF9065
:1007E0000895019759F0019749F0FC01EE0FFF1FA2
:1007F00031978FB7F8943197F1F78FBF08957894B8
:1008000084B5826084BD84B5816084BD85B5826015
:1008100085BD85B5816085BDEEE6F0E080818160B3
:100820008083E1E8F0E08081826080838081816064
:100830008083E0E8F0E0808181608083E1EBF0E09C
:10084000808184608083E0EBF0E080818160808340
:10085000EAE7F0E080818460808380818260808329
:100860008081816080838081806880831092C10054
:1008700008958093040108958F70909104019295DA
:10088000990F990F907C982B90937C0080917A001F
:10089000806480937A0080917A0086FDFCCF20915D
:1008A000780040917900942F80E030E0282B392B9C
:1008B000C90108951F93CF93DF93182FEB0161E0D7
:1008C0000E94AE04E12FF0E0E156FF4F84918330A7
:1008D00051F480918000806880938000D0938900DB
:1008E000C093880037C0843051F4809180008062CA
:1008F00080938000D0938B00C0938A002BC08130FE
:1009000029F484B5806884BDC7BD24C0823029F431
:1009100084B5806284BDC8BD1DC0863041F480911D
:10092000B00080688093B000C093B30013C08730DC
:1009300041F48091B00080628093B000C093B40015
:1009400009C0C038D10514F460E001C061E0812F16
:100950000E94CC04DF91CF911F910895282F30E0A1
:10096000C90185579F4FFC01949129583F4FF901C8
:100970008491882381F0E82FF0E0E859FF4FE4915B
:10098000F0E0662329F4808190958923808308957F
:100990008081892B80830895482F50E0CA018156B9
:1009A0009F4FFC012491CA0185579F4FFC019491F0
:1009B00049585F4FFA0134913323C1F1222331F1B9
:1009C000233021F4809180008F7705C0243031F4EA
:1009D000809180008F7D8093800018C0213019F4B1
:1009E00084B58F7704C0223021F484B58F7D84BD17
:1009F0000DC0263021F48091B0008F7705C02730DC
:100A000029F48091B0008F7D8093B000E32FF0E057
:100A1000E359FF4FE491F0E0662329F4808190953B
:100A20008923808308958081892B80830895482FAE
:100A300050E0CA0181569F4FFC012491CA0185579D
:100A40009F4FFC01949149585F4FFA013491332331
:100A500019F420E030E035C0222331F1233021F4B5
:100A6000809180008F7705C0243031F48091800020
:100A70008F7D8093800018C0213019F484B58F7762
:100A800004C0223021F484B58F7D84BD0DC0263092
:100A900021F48091B0008F7705C0273029F4809130
:100AA000B0008F7D8093B000E32FF0E0EE58FF4F51
:100AB000E491F0E0808120E030E0892311F021E032
:100AC00030E0C901089597FB092E07260AD077FD6B
:100AD00004D00CD006D000201AF4709561957F4F99
:100AE0000895F6F7909581959F4F0895AA1BBB1B1B
:100AF00051E107C0AA1FBB1FA617B70710F0A61B1E
:100B0000B70B881F991F5A95A9F780959095BC013E
:080B1000CD010895F894FFCF18
:060B180005000D000100C4
:00000001FF
