:100000000C945A000C9477000C9477000C947700B1
:100010000C9477000C9477000C9477000C94770084
:100020000C9477000C9477000C9477000C94770074
:100030000C9477000C9477000C9477000C94770064
:100040000C94DC030C9477000C9477000C947700EC
:100050000C9477000C9477000C9477000C94770044
:100060000C9477000C947700000024272A000025C8
:10007000282B000023262904040404040404040299
:100080000202020202030303030303010204081035
:100090002040800102040810200102040810200002
:1000A0000000070002010000030406000000000039
:1000B0000000000011241FBECFEFD4E0DEBFCDBF93
:1000C00011E0A0E0B1E0E0EEFAE002C005900D9290
:1000D000A230B107D9F711E0A2E0B1E001C01D9252
:1000E000A031B107E1F70E94D5030C946E050C9482
:1000F0000000EF92FF920F931F93CF93DF93F82EA0
:10010000EA011092050110920401EE24E39415C057
:10011000062F10E0B801617070706E258F5F0E942D
:10012000D70415950795602F8091040190910501E2
:1001300001969093050180930401809104019091B0
:1001400005018830910524F31092050110920401F5
:10015000EE24E39415C00F2D10E0B80161707070AB
:100160006E25875F0E94D70415950795F02E809124
:10017000040190910501019690930501809304017B
:1001800080910401909105018530910524F3BE0111
:10019000882777FD8095982F0E944704DF91CF91A3
:1001A0001F910F91FF90EF90089540ED57E06FEF92
:1001B0008FE10E9479000895CF93DF930E94D500CC
:1001C00010920301109202015DC04BE450E060E424
:1001D00080E00E9479004BE450E060EE80E00E94F5
:1001E00079004BE450E060EF81E00E9479004BE43D
:1001F00050E068EF83E00E9479004BE450E06CEF40
:1002000087E00E9479004BE450E06EEF8FE00E949F
:1002100079004BE450E06FEF8FE10E9479004BE4EE
:1002200050E06FEB8FE10E9479004BE450E06FE10A
:100230008FE10E9479004BE450E06FE08EE10E9474
:1002400079004BE450E067E08CE10E9479004BE4D8
:1002500050E063E088E10E9479004BE450E061E007
:1002600080E10E9479004BE450E060E080E00E9471
:10027000790080910201909103010196909303010E
:1002800080930201809102019091030105970CF483
:100290009CCF0E94D500109203011092020157C01A
:1002A00048EC50E062E080E10E94790048EC50E0C8
:1002B00061E088E00E94790048EC50E060E084E171
:1002C0000E94790048EC50E060E08AE00E947900EA
:1002D00048EC50E060E085E00E94790048EC50E096
:1002E00060E882E00E94790048EC50E060E481E040
:1002F0000E94790048EC50E060EA80E00E947900BA
:1003000048EC50E060E580E00E94790048EC50E065
:1003100068E280E00E94790048EC50E064E180E00F
:100320000E94790048EC50E06AE080E00E94790089
:1003300048EC50E065E080E00E9479008091020185
:1003400090910301019690930301809302018091A3
:1003500002019091030105970CF4A2CF0E94D500F1
:100360001092030110920201C6EFDFEFE2C08C9FF2
:10037000A0018D9F500D9C9F500D11244C595F4F33
:1003800061E080E00E947900809102019091030178
:100390008C9FA0018D9F500D9C9F500D11244C5996
:1003A0005F4F62E080E00E947900809102019091AD
:1003B00003018C9FA0018D9F500D9C9F500D112417
:1003C0004C595F4F64E080E00E9479008091020107
:1003D000909103018C9FA0018D9F500D9C9F500D0B
:1003E00011244C595F4F68E080E00E9479008091B1
:1003F0000201909103018C9FA0018D9F500D9C9F45
:10040000500D11244C595F4F60E180E00E9479004B
:1004100080910201909103018C9FA0018D9F500D4E
:100420009C9F500D11244C595F4F60E280E00E9468
:10043000790080910201909103018C9FA0018D9F12
:10044000500D9C9F500D11244C595F4F60E480E08B
:100450000E94790080910201909103018C9FA0017C
:100460008D9F500D9C9F500D11244C595F4F60E89B
:1004700080E00E94790080910201909103018C9F9D
:10048000A0018D9F500D9C9F500D11244C595F4F22
:1004900060E081E00E947900809102019091030167
:1004A0008C9FA0018D9F500D9C9F500D11244C5985
:1004B0005F4F60E082E00E9479008091020190919C
:1004C00003018C9FA0018D9F500D9C9F500D112406
:1004D0004C595F4F60E084E00E94790080910201F6
:1004E000909103018C9FA0018D9F500D9C9F500DFA
:1004F00011244C595F4F60E088E00E9479008091A0
:100500000201909103018C9FA0018D9F500D9C9F33
:10051000500D11244C595F4F60E080E10E9479003A
:1005200080910201909103010196909303018093C1
:10053000020180910201909103018A3091050CF42F
:1005400016CF0E94D5001092030110920201A5C09F
:1005500044E650E060E080E00E94790044E650E02C
:1005600060E080E10E94790044E650E060E088E1CC
:100570000E94790044E650E060E08CE10E9479003E
:1005800044E650E060E08EE10E94790044E650E0ED
:1005900060E08FE10E94790044E650E060E88FE17E
:1005A0000E94790044E650E060EC8FE10E947900FF
:1005B00044E650E060EE8FE10E94790044E650E0AE
:1005C00060EF8FE10E94790044E650E068EF8FE130
:1005D0000E94790044E650E06CEF8FE10E947900C0
:1005E00044E650E06EEF8FE10E94790044E650E06F
:1005F0006FEF8FE10E94790044E650E06EEF8FE1EB
:100600000E94790044E650E06CEF8FE10E9479008F
:1006100044E650E068EF8FE10E94790044E650E044
:1006200060EF8FE10E94790044E650E060EE8FE1D8
:100630000E94790044E650E060EC8FE10E9479006E
:1006400044E650E060E88FE10E94790044E650E023
:1006500060E08FE10E94790044E650E060E08EE1C6
:100660000E94790044E650E060E08CE10E9479004D
:1006700044E650E060E088E10E94790044E650E002
:1006800060E080E10E947900809102019091030175
:100690000196909303018093020180910201909151
:1006A000030102970CF454CF0E94D500109203016D
:1006B0001092020133C046E950E060E480E00E94FD
:1006C000790046E950E060EA80E00E94790046E95E
:1006D00050E060E181E00E94790046E950E068E086
:1006E00082E00E94790046E950E064E084E00E94E4
:1006F000790046E950E062E088E00E94790046E92E
:1007000050E061E080E10E947900809102019091C7
:1007100003010196909303018093020180910201ED
:10072000909103010A973CF20E94D50010920301B8
:100730001092020115C048EC50E065E585E10E9489
:10074000790048EC50E06AEA8AE00E9479008091E2
:10075000020190910301019690930301809302019D
:1007600080910201909103010F972CF3DF91CF91BB
:10077000089581E090E009C061E0822F0E94B904F1
:10078000809102019091030101969093030180935F
:1007900002012091020130910301809100019091AA
:1007A00001018217930744F708950E947F040E9475
:1007B000B9030E94DC00FDCF1F920F920FB60F927B
:1007C00011242F938F939F93AF93BF938091080130
:1007D00090910901A0910A01B0910B018050904CB9
:1007E000AF4FBF4F8093080190930901A0930A0176
:1007F000B0930B0127C08091080190910901A0914D
:100800000A01B0910B0180549F41A040B0408093F9
:10081000080190930901A0930A01B0930B01809104
:100820000C0190910D01A0910E01B0910F01019664
:10083000A11DB11D80930C0190930D01A0930E0199
:10084000B0930F018091080190910901A0910A01D4
:10085000B0910B0181549F41A040B04060F6BF9120
:10086000AF919F918F912F910F900FBE0F901F907E
:1008700018958FB7F89420910C0130910D0140919B
:100880000E0150910F018FBFB901CA010895EF9277
:10089000FF920F931F937B018C018FB7F8944091C7
:1008A0000C0150910D0160910E0170910F018FBFED
:1008B0002FB7F89480910C0190910D01A0910E0139
:1008C000B0910F012FBF841B950BA60BB70B8E1594
:1008D0009F05A007B10760F31F910F91FF90EF9064
:1008E0000895019759F0019749F0FC01EE0FFF1FA1
:1008F00031978FB7F8943197F1F78FBF08957894B7
:1009000084B5826084BD84B5816084BD85B5826014
:1009100085BD85B5816085BDEEE6F0E080818160B2
:100920008083E1E8F0E08081826080838081816063
:100930008083E0E8F0E0808181608083E1EBF0E09B
:10094000808184608083E0EBF0E08081816080833F
:10095000EAE7F0E080818460808380818260808328
:100960008081816080838081806880831092C10053
:100970000895282F30E0C90185579F4FFC019491BD
:1009800029583F4FF9018491882381F0E82FF0E046
:10099000E859FF4FE491F0E0662329F480819095B7
:1009A0008923808308958081892B80830895482F2F
:1009B00050E0CA0181569F4FFC012491CA0185571E
:1009C0009F4FFC01949149585F4FFA0134913323B2
:1009D000C1F1222331F1233021F4809180008F77FF
:1009E00005C0243031F4809180008F7D8093800099
:1009F00018C0213019F484B58F7704C0223021F457
:100A000084B58F7D84BD0DC0263021F48091B00067
:100A10008F7705C0273029F48091B0008F7D8093B7
:100A2000B000E32FF0E0E359FF4FE491F0E06623DC
:100A300029F4808190958923808308958081892B72
:100A400080830895482F50E0CA0181569F4FFC01D2
:100A50002491CA0185579F4FFC01949149585F4FDB
:100A6000FA013491332319F420E030E035C0222319
:100A700031F1233021F4809180008F7705C024303C
:100A800031F4809180008F7D8093800018C02130E8
:100A900019F484B58F7704C0223021F484B58F7D9A
:100AA00084BD0DC0263021F48091B0008F7705C041
:100AB000273029F48091B0008F7D8093B000E32F20
:100AC000F0E0EE58FF4FE491F0E0808120E030E06C
:100AD000892311F021E030E0C9010895F894FFCF97
:020AE0000D0007
:00000001FF
